:400000000080002011000000A90E0000A90E000080B500AF47F2BC63C4F2000344F2FA62C4F2000212681A6000F042FF10B5054C237833B9044810B10448AFF30080012103
:40004000217010BD2081FF1F000000007C1F000008B5064B1BB106480649AFF300800648016811B1054A02B1904708BD000000007C1F00002481FF1F0881FF1F0000000013
:4000800080B483B000AF03463960FB7197F90730002B10DA4FF46D43CEF20003FA7902F00F02A2F104013A68D2B24FEA4212D2B25B181A760DE04FF46143CEF2000397F9DB
:4000C00007103A68D2B24FEA4212D2B25B1883F8002307F10C07BD4680BC704780B582B000AF78607B6803F1FF326FF07F439A4202D94FF001031DE04EF21003CEF200037C
:400100007A6802F1FF325A604FF0FF304FF00701FFF7B6FF4EF21003CEF200034FF000029A604EF21003CEF200034FF007021A604FF00003184607F10807BD4680BD00BFD0
:4001400080B500AF4FF00C0000F08EF848F23C13C1F6FF734FF001021A7080BD80B582B000AF02460B46FA71BB71FB79032B2BD801A252F823F000BF890100009901000051
:40018000A9010000B9010000BB79A3F18003DBB2184600F069F818E0BB79A3F14003DBB2184600F061F810E0BB79A3F16C03DBB2184600F059F808E0BB79A3F12C03DBB25E
:4001C000184600F051F800E000BF07F10807BD4680BD00BF80B584B000AF78604FF00103FB737B681B78BB730CE0BB7B184600F01FF8FB7B7A68D3181B78BB73FB7B03F189
:400200000103FB73BB7B002BEFD107F11007BD4680BD00BF80B582B000AF0346FB71FB79184600F005F807F10807BD4680BD00BF80B584B000AF0346FB7100F031F8FB7933
:400240004FEA1313FB73FB7B184600F02DF9FB7903F00F03FB73FB7B184600F025F907F11007BD4680BD00BF80B584B000AF0346FB7100F015F8FB794FEA1313FB73FB7B6F
:40028000184600F06BF9FB7903F00F03FB73FB7B184600F063F907F11007BD4680BD00BF80B582B000AF4FF4A243C4F200034FF4A242C4F200021278D2B222F07F02D2B27C
:4002C0001A7045F20213C4F200031B78DBB223F00F03FB7145F20213C4F20003FA7942F00F02D2B21A7045F20313C4F200031B78DBB223F00F03FB7145F20313C4F2000338
:40030000FA791A7045F20413C4F200031B78DBB223F00F03FB7145F20413C4F20003FA791A704FF4A243C4F200034FF4A242C4F200021278D2B222F02002D2B21A704FF4B1
:40034000A243C4F200034FF4A242C4F200021278D2B242F04002D2B21A704FF0000001F01FFB4FF4A243C4F200034FF4A242C4F200021278D2B242F01002D2B21A704FF0C7
:40038000010001F00DFB45F20113C4F200031B78FB714FF4A243C4F200034FF4A242C4F200021278D2B222F01002D2B21A704FF0000001F0F5FAFB7903F00803FB714FF400
:4003C000A243C4F200034FF4A242C4F200021278D2B242F01002D2B21A704FF0010001F0DFFA4FF4A243C4F200034FF4A242C4F200021278D2B222F01002D2B21A70FB79A2
:40040000002BAAD14FF4A243C4F200034FF4A242C4F200021278D2B222F04002D2B21A704FF4A243C4F200034FF4A242C4F200021278D2B222F07F02D2B21A7045F202132B
:40044000C4F2000345F20212C4F200021278D2B222F00F02D2B21A7045F20313C4F200031B78DBB223F00F03FB7145F20313C4F20003FA7942F00F02D2B21A7045F20413B2
:40048000C4F200031B78DBB223F00F03FB7145F20413C4F20003FA7942F00F02D2B21A7007F10807BD4680BD80B582B000AF0346FB714FF4A243C4F200034FF4A242C4F237
:4004C00000021278D2B242F02002D2B21A704FF4A243C4F200034FF4A242C4F200021278D2B222F04002D2B21A704FF0000001F057FA4FF4A243C4F200034FF4A242C4F21B
:4005000000021278D2B222F00F02D2B21A704FF4A243C4F200034FF4A242C4F200021278D1B2FA790A43D2B242F01002D2B21A704FF0010001F034FA4FF4A243C4F20003D7
:400540004FF4A242C4F200021278D2B222F01002D2B21A7007F10807BD4680BD80B582B000AF0346FB714FF4A243C4F200034FF4A242C4F200021278D2B222F06002D2B284
:400580001A704FF4A243C4F200034FF4A242C4F200021278D2B222F00F02D2B21A704FF4A243C4F200034FF4A242C4F200021278D1B2FA790A43D2B242F01002D2B21A704F
:4005C0004FF0010001F0ECF94FF4A243C4F200034FF4A242C4F200021278D2B222F01002D2B21A7007F10807BD4680BD80B582B000AF0346FB71FB794FEA1313DBB21A4613
:4006000042F2BC03C0F200039B5C1846FFF702FEFB7903F00F0242F2BC03C0F200039B5C1846FFF7F7FD07F10807BD4680BD00BF80B400AF48F24013C1F6FF731B6803F152
:40064000010248F24013C1F6FF731A60BD4680BC704700BF80B500AF48F26813C1F6FF73DA7948F26813C1F6FF731A7248F26813C1F6FF739A7948F26813C1F6FF73DA71F9
:4006800048F26813C1F6FF735A7948F26813C1F6FF739A7148F26813C1F6FF731A7948F26813C1F6FF735A7148F26813C1F6FF73DA7848F26813C1F6FF731A7148F2681338
:4006C000C1F6FF739A7848F26813C1F6FF73DA7048F26813C1F6FF735A7848F26813C1F6FF739A7000F09AFF03461A4648F26813C1F6FF735A7048F26813C1F6FF731B7AB2
:40070000802B40F0CA8048F26813C1F6FF739A7848F26813C1F6FF73DB78D318DAB248F26813C1F6FF731B79D318DAB248F26813C1F6FF735B79D318DAB248F26813C1F67E
:40074000FF739B79D318DAB248F26813C1F6FF73DB79D318DAB248F24513C1F6FF731A7048F24513C1F6FF731B7803F07F03DAB248F24513C1F6FF731A7048F26813C1F68E
:40078000FF735A7848F27A13C1F6FF731A7048F26813C1F6FF739A7848F25013C1F6FF73DA7048F26813C1F6FF73DA7848F25013C1F6FF739A7048F26813C1F6FF731A790A
:4007C00048F25013C1F6FF735A7048F26813C1F6FF735A7948F25013C1F6FF731A7048F26813C1F6FF73DA7948F28013C1F6FF731A7048F26813C1F6FF739A7948F27C13FD
:40080000C1F6FF731A7048F26813C1F6FF73DB7903F00203002B1BD048F24613C1F6FF731B78002B07D148F24613C1F6FF734FF004021A700CE048F24613C1F6FF731B78AD
:4008400003F1FF33DAB248F24613C1F6FF731A7048F26813C1F6FF73DB7903F00803002B1BD048F24613C1F6FF731B78042B07D148F24613C1F6FF734FF000021A700CE071
:4008800048F24613C1F6FF731B7803F10103DAB248F24613C1F6FF731A7080BD80B485B000AF786048F24013C1F6FF731B68FB6000BF48F24013C1F6FF731A68FB68D21A18
:4008C0007B689A42F5D307F11407BD4680BC704780B500AF00F0B2FE4FF07F0000F06AFF4FF03200FFF7DAFF4FF0000000F062FF00F01EFF80BD00BF80B500AF00F09EFE84
:400900004FF07F0000F056FF4FF03200FFF7C6FF4FF0000000F04EFF4FF03200FFF7BEFF4FF07F0000F046FF4FF03200FFF7B6FF4FF0000000F03EFF4FF03200FFF7AEFF59
:4009400000F0F6FE80BD00BF80B500AF4FF4FA7001F002F84FF00200FFF700FE4FF00200FFF7FCFD4FF00000FFF7F8FD4FF00000FFF7F4FD4FF00800FFF7F0FD4FF03200CB
:4009800000F0EAFF4FF01300FFF76EFC4FF0320000F0E2FF4FF00000FFF7E0FD4FF0320000F0DAFF4FF00000FFF7D8FD4FF00000FFF7D4FD4FF00000FFF7D0FD4FF00000CD
:4009C000FFF7CCFD4FF00000FFF7C8FD4FF02000FFF74AFC4FF02800FFF746FC4FF00B00FFF742FC4FF00600FFF73EFC4FF00100FFF73AFC4FF0140000F0AEFF4FF0020074
:400A0000FFF732FC4FF0640000F0A6FF4FF01700FFF72AFC4FF0320000F09EFF4FF00F00FFF722FC4FF00C00FFF71EFC80BD00BF80B582B000AFF871B9717A713B71FB797D
:400A400018464FF00001FFF789FBBB791846FFF7CDFD7B791846FFF7C9FD41F6BC70C0F20000FFF7B7FB3B791846FFF7BFFD3B7C1846FFF7BBFD41F6BC70C0F20000FFF7AF
:400A8000A9FB3B7D1846FFF7B1FD3B7E1846FFF7ADFD41F6BC70C0F20000FFF79BFB3B7F1846FFF7A3FD97F820301846FFF79EFD07F10807BD4680BD80B500AF48F23D134F
:400AC000C1F6FF731B78002B08D1FFF73DFF48F23D13C1F6FF734FF001021A70FFF730FB80BD00BF80B500AFFFF7F2FEFFF7E4FF00F01AFD4FF08100FFF7B6FB42F2A4007F
:400B0000C0F20000FFF766FB4FF08600FFF7ACFB42F2AC00C0F20000FFF75CFB80BD00BF80B584B000AF0346FB80B7F90630002B03D14FF00003FB8122E0B7F9063013F104
:400B4000FF0F02DA4FF60173FB80B7F90630FF2B02DD4FF0FF03FB80B7F90630002B09DA4FF0010001F04CF9FB88C3F100039BB2FB8105E04FF0000001F042F9FB88FB81F0
:400B8000FB89DBB2184601F0EFF807F11007BD4680BD00BF80B584B000AF0346FB80B7F90630002B03D14FF00003FB8122E0B7F9063013F1FF0F02DA4FF60173FB80B7F9A7
:400BC0000630FF2B02DD4FF0FF03FB80B7F90630002B09DA4FF0010001F034F9FB88C3F100039BB2FB8105E04FF0000001F02AF9FB88FB81FB89DBB2184601F0C5F807F159
:400C00001007BD4680BD00BF80B584B000AF0346FB80B7F90630002B03D14FF00003FB8122E0B7F9063013F1FF0F02DA4FF60173FB80B7F90630FF2B02DD4FF0FF03FB806A
:400C4000B7F90630002B09DA4FF0000001F01CF9FB88C3F100039BB2FB8105E04FF0010001F012F9FB88FB81FB89DBB2184600F083FF07F11007BD4680BD00BF80B584B0C0
:400C800000AF0346FB80B7F90630002B03D14FF00003FB8122E0B7F9063013F1FF0F02DA4FF60173FB80B7F90630FF2B02DD4FF0FF03FB80B7F90630002B09DA4FF0000036
:400CC00001F004F9FB88C3F100039BB2FB8105E04FF0010001F0FAF8FB88FB81FB89DBB2184600F059FF07F11007BD4680BD00BFF0B589B006AF4FF00F0040F23161C0F2E0
:400D0000000100F061FE40F25560C0F2000000F08DFD4FF4E870C0F20100FFF7DFF962B600F0C0FDFFF7D4FD00F07AFE00F070FFFFF7D8FE4FF06400FFF7B0FD4FF002008E
:400D4000FFF792FAFFF7D8FD4FF000004FF00001FFF704FA42F28C00C0F20000FFF73AFA48F28013C1F6FF73197848F27C13C1F6FF731A7848F25013C1F6FF731C7848F278
:400D80005013C1F6FF7393F801E048F25013C1F6FF739E7848F25013C1F6FF73DD7848F27A13C1F6FF73187848F24513C1F6FF731B78CDF800E001960295039004934FF03A
:400DC00001002346FFF734FE48F25013C1F6FF735B78002B03D14FF04003FB8005E048F25013C1F6FF735B78FB8048F25013C1F6FF731B78002B03D14FF04003BB8005E0D9
:400E000048F25013C1F6FF731B78BB8048F25013C1F6FF739B78002B03D14FF040037B8005E048F25013C1F6FF739B787B80FA88BB88D3189AB27B88D3189BB2A3F1C00382
:400E40009BB29BB21BB21846FFF76AFEFA88BB88D31A9AB27B88D3189BB2A3F140039BB29BB21BB21846FFF795FEFA88BB88D31A9AB27B88D31A9BB203F140039BB29BB2E5
:400E80001BB21846FFF7C0FEFA88BB88D3189AB27B88D31A9BB2A3F140039BB29BB21BB21846FFF7EBFE4FE780B400AFFEE700BF80B586B000AF40F20103C0F200037B6101
:400EC00042F22813C0F200033B6140F20103C0F200037B6142F22813C0F200033B613BE03B691B68FB603B695B68BB603B699B683B604FF000037B600FE0FB681A68BB6836
:400F00001A60BB6803F10403BB60FB6803F10403FB607B6803F104037B607A683B689A42EBD13B69DB683B604FF000037B600BE0BB684FF000021A60BB6803F10403BB60CE
:400F40007B6803F104037B607A683B689A42EFD13B6903F110033B617B69002B0CBF00230123DBB27A6902F1FF327A61002BB7D100F0CCFFFFF7BCFEFEE700BF80B582B097
:400F800000AF4EF60C53CEF200034FF48062C0F2FA521A604EF61453CEF200034EF61452CEF20002126842F400721A604FF000037B6019E07B68032B07D840F20003C0F21C
:400FC00000037A6853F8223003E040F6A963C0F2000348F20002C1F6FF72796842F821307B6803F101037B607B682F2BE2D947F2BC63C4F200031B78DAB248F20413C1F6DF
:40100000FF731A704EF60853CEF2000348F20002C1F6FF721A6000F05FF948F20013C1F6FF734FF000021A6007F10807BD4680BD80B582B000AF7860396078684FF000010D
:401040003A6800F092FF07F10807BD4680BD00BF80B584B000AFF860B9607A60F868B9687A6800F079FF07F11007BD4680BD00BF80B483B000AF0346FB71FEE780B487B0F0
:4010800000AF786039604FF000033B614FF000037B612CE07B694FEA83037A68D3181B68BB60BB68FB73BB6823F0FF03BB6017E03B694FEA43033A68D3181B781A46BB6859
:4010C000D3183A694FEA420239688A1852781A703B6903F101033B61FB7B03F1FF33FB73FB7B002BE4D17B6903F101037B617B691B2BCFD907F11C07BD4680BC704700BF5C
:4011000080B582B000AF4FF48143C4F200034FF005021A8044F28203C4F200034FF018021A7044F28403C4F200034FF041021A8044F28603C4F200034FF018021A7044F27F
:401140008803C4F2000340F25A321A8044F28A03C4F200034FF018021A704FF48643C4F200034FF002021A704FF040234FF008021A704FF48443C4F200034FF003021A70DC
:4011800044F2A163C4F200034FF48472C4F600121278D2B21A7044F22223C4F2000340F242221A8044F22023C4F2000341F251221A804FF00003FB704FF019037B6019E0ED
:4011C000FB784FEA4303DAB244F22523C4F200031B78DBB203F00103DBB21343DBB203F00303FB704FF4F07000F096FB7B6803F1FF337B607B68002B02D0FB78032BDFD116
:401200007B68002B03D14FF00300FFF731FF44F20403C4F200034FF480721A8044F20403C4F200034FF007021A7044F20603C4F200034FF000021A7044F20803C4F200031A
:401240004FF048021A7044F20403C4F200034FF000021A7044F20103C4F200034FF002021A7044F2A233C4F2000344F2A232C4F200021278D2B242F00702D2B21A7007F105
:401280000807BD4680BD00BF80B483B000AF40F2CF13C4F600131B78FB7145F66E03C4F20003FA7902F00702D2B21A7045F66F03C4F20003FA794FEA1212D2B21A7045F6CA
:4012C0007603C4F200034FF044021A7007F10C07BD4680BC704700BF80B586B000AF72B64FF49043C4F200034FF001021A70FFF707FF44F2E863C4F2000344F2E862C4F2A4
:4013000000021278D2B242F00402D2B21A704FF00003FB7519E0FA7D13464FEA43039B184FEA430342F2CC02C0F200029B183B613B691A683B699B889BB210461946FFF741
:4013400077FEFB7D03F10103FB75FB7D062BE2D94FF00003FB7523E0FA7D13464FEA83039B184FEA430342F2F802C0F200029B18FB60FB681B68BB60FB685B687B60FB68E9
:401380001A7A5B7A4FEA032313437B807B88B86879681A46FFF75CFEFB7D03F10103FB75FB7D002BD8D04FF090404FF07001C4F60001FFF763FE45F20303C4F2010345F236
:4013C0000302C4F201021278D2B242F00202D2B21A7045F21303C4F2010345F21302C4F201021278D2B242F00202D2B21A7044F2A033C4F2000344F2A032C4F20002127873
:40140000D2B242F04002D2B21A7044F2C233C4F2000344F2C232C4F200021278D2B242F01002D2B21A7045F20210C4F2000040F2B451C4F600014FF00802FFF709FE45F212
:40144000C210C4F2000040F2BC51C4F600014FF00802FFF7FDFD45F2F010C4F2000040F2C451C4F600014FF00A02FFF7F1FD45F22010C4F200004FF4BA61C4F600014FF01E
:401480000A02FFF7E5FD45F23210C4F2000040F2DC51C4F600014FF00802FFF7D9FD45F24210C4F2000040F2E451C4F600014FF00802FFF7CDFD45F25210C4F2000040F2FF
:4014C000EC51C4F600014FF00802FFF7C1FD45F26010C4F2000040F2F451C4F600014FF00A02FFF7B5FD44F22233C4F2000344F22232C4F200021278D2B242F00802D2B221
:401500001A70FFF7C1FE44F2B030C4F2000044F2A031C4F200014FF00E02FFF799FD07F11807BD4680BD00BF80B500AF48F24813C1F6FF731B78002B08D100F00BF848F28B
:401540004813C1F6FF734FF001021A7000F02AF880BD00BF80B400AF46F28A53C4F200034FF072021A7046F28953C4F200034FF020021A7046F22953C4F200034FF00702B2
:401580001A7046F23953C4F200034FF048021A7046F28843C4F200034FF000021A70BD4680BC704780B582B000AF00F0BFF90346FB7146F29A53C4F2000346F29A52C4F269
:4015C00000021278D2B242F02002D2B21A7046F29953C4F2000346F29952C4F200021278D2B242F01002D2B21A7046F29843C4F2000346F29842C4F200021278D2B242F08B
:401600001002D2B21A7000F065F9FB79184600F091F907F10807BD4680BD00BF80B483B000AF46F24A53C4F200031B78FB71FB79184607F10C07BD4680BC704780B500AF90
:4016400048F24A13C1F6FF731B78002B08D100F00BF848F24A13C1F6FF734FF001021A7000F052F880BD00BF80B582B000AF46F27853C4F200031B78DBB223F03F03FB71AB
:4016800046F27853C4F20003FA7942F00902D2B21A7046F29853C4F2000346F29852C4F200021278D2B242F00102D2B21A704FF0FF0000F051F84FF0FF0000F06BF84FF062
:4016C0007F0000F077F84FF0000000F083F800F02DF90346BB7146F29853C4F2000346F29852C4F200021278D2B242F01002D2B21A70BB79184600F01DF900F03DF807F10C
:401700000807BD4680BD00BF80B400AF46F27853C4F2000346F27852C4F200021278D2B262F07F02D2B21A70BD4680BC704700BF80B400AF46F27853C4F2000346F27852FD
:40174000C4F200021278D2B202F07F02D2B21A70BD4680BC704700BF80B483B000AF0346FB7146F20853C4F20003FA791A7007F10C07BD4680BC704780B500AF01E000F0A3
:4017800049F800F037F8034603F01003002BF6D180BD00BF80B483B000AF0346FB7146F24853C4F20003FA791A7007F10C07BD4680BC704780B483B000AF0346FB7146F234
:4017C0002853C4F20003FA791A7007F10C07BD4680BC704780B483B000AF0346FB7146F28853C4F20003FA791A7007F10C07BD4680BC704780B483B000AF46F26853C4F263
:4018000000031B78FB71FB79184607F10C07BD4680BC704780B400AF46F25853C4F200031B78DBB21846BD4680BC704780B582B000AF786000F042F8786800F00BF84FF0B6
:40184000070000F01BF800F02DF807F10807BD4680BD00BF80B485B000AF78604EF60853CEF200031B68FB60FB6803F140037A681A6007F11407BD4680BC704780B483B0AD
:4018800000AF0346FB714FF46443CEF20003FA794FEA4212D2B21A7007F10C07BD4680BC704700BF80B400AF4FF46143CEF200034FF001021A60BD4680BC704780B400AF27
:4018C0004EF28013CEF200034FF001021A60BD4680BC704780B400AF44F2A233C4F2000344F2A232C4F200021278D2B242F00402D2B21A7044F2B233C4F2000344F2B232F5
:40190000C4F200021278D2B242F00402D2B21A70BD4680BC704700BF0230800800F0058000BF013800467FF4FCAF7047EFF3108072B6704780F31088704700BFAFF30080B0
:4019400080B483B000AF0346FB7101BE07F10C07BD4680BC704700BF80B582B000AF78600BE048F21813C1F6FF731B681846FFF7D3FF7B68A3F500437B607B68B3F5004F9A
:40198000EFD848F21013C1F6FF731B687A6802FB03F31846FFF7C0FF07F10807BD4680BD80B582B000AF0346FB80FA8848F21413C1F6FF731B7803FB02F31846FFF7ACFFBD
:4019C00007F10807BD4680BD80B584B000AF03463960FB714EF60853CEF200031B68FB60FB790F2B03D94FF00000FFF7A9FFFB7903F00F034FEA8303FA68D3181B68BB6070
:401A0000FB7903F00F034FEA8303FA68D3183A681A60BB68184607F11007BD4680BD00BF80B500AF48F24B13C1F6FF731B78002B08D100F00BF848F24B13C1F6FF734FF047
:401A400001021A7000F056F880BD00BF80B582B000AF46F27B43C4F200031B78DBB223F03F03FB7146F27B43C4F20003FA7942F00902D2B21A7046F29B43C4F2000346F285
:401A80009B42C4F200021278D2B242F00102D2B21A704FF0FF0000F041F84FF0FF0000F05BF84FF0000000F067F84FF0000000F073F84FF0000000F07FF8FFF737FF034615
:401AC000BB7146F29B43C4F2000346F29B42C4F200021278D2B242F01002D2B21A70BB791846FFF727FF00F029F807F10807BD4680BD00BF80B400AF46F27B43C4F2000367
:401B000046F27B42C4F200021278D2B262F07F02D2B21A70BD4680BC704700BF80B483B000AF0346FB7146F20B43C4F20003FA791A7007F10C07BD4680BC704780B500AF68
:401B400001E000F059F800F047F8034603F01003002BF6D180BD00BF80B483B000AF0346FB7146F24B43C4F20003FA791A7007F10C07BD4680BC704780B483B000AF034630
:401B8000FB7146F22B43C4F20003FA791A7007F10C07BD4680BC704780B483B000AF0346FB7146F23B43C4F20003FA791A7007F10C07BD4680BC704780B483B000AF0346C5
:401BC000FB7146F28B43C4F20003FA791A7007F10C07BD4680BC704780B483B000AF46F26B43C4F200031B78FB71FB79184607F10C07BD4680BC704780B400AF46F25B437C
:401C0000C4F200031B78DBB21846BD4680BC704780B500AF48F24C13C1F6FF731B78002B08D100F00BF848F24C13C1F6FF734FF001021A7000F056F880BD00BF80B582B018
:401C400000AF46F27A43C4F200031B78DBB223F03F03FB7146F27A43C4F20003FA7942F00902D2B21A7046F29A43C4F2000346F29A42C4F200021278D2B242F00102D2B259
:401C80001A704FF0FF0000F041F84FF0FF0000F05BF84FF0000000F067F84FF0000000F073F84FF0000000F07FF8FFF73FFE0346BB7146F29A43C4F2000346F29A42C4F2A4
:401CC00000021278D2B242F01002D2B21A70BB791846FFF72FFE00F029F807F10807BD4680BD00BF80B400AF46F27A43C4F2000346F27A42C4F200021278D2B262F07F0298
:401D0000D2B21A70BD4680BC704700BF80B483B000AF0346FB7146F20A43C4F20003FA791A7007F10C07BD4680BC704780B500AF01E000F059F800F047F8034603F0100355
:401D4000002BF6D180BD00BF80B483B000AF0346FB7146F24A43C4F20003FA791A7007F10C07BD4680BC704780B483B000AF0346FB7146F22A43C4F20003FA791A7007F110
:401D80000C07BD4680BC704780B483B000AF0346FB7146F23A43C4F20003FA791A7007F10C07BD4680BC704780B483B000AF0346FB7146F28A43C4F20003FA791A7007F165
:401DC0000C07BD4680BC704780B483B000AF46F26A43C4F200031B78FB71FB79184607F10C07BD4680BC704780B400AF46F25A43C4F200031B78DBB21846BD4680BC70476F
:401E000080B485B000AF0346FB7145F25013C4F200031B78DBB223F00203FB7345F25013C4F20003FA794FEA4202D2B202F00202D1B2FA7B0A43D2B21A7007F11407BD46B6
:401E400080BC704780B485B000AF0346FB7145F25013C4F200031B78DBB223F00803FB7345F25013C4F20003FA794FEAC202D2B202F00802D1B2FA7B0A43D2B21A7007F115
:401E80001407BD4680BC704780B485B000AF0346FB7145F23013C4F200031B78DBB223F04003FB7345F23013C4F20003FA794FEA8212D2B202F04002D1B2FA7B0A43D2B239
:401EC0001A7007F11407BD4680BC704780B485B000AF0346FB7145F26013C4F200031B78DBB203F07F03FB7345F26013C4F20003FA794FEAC212D1B2FA7B0A43D2B21A70E6
:401F000007F11407BD4680BC704700BF38B50E4D0E4B0024E81A8510AC4205D00B4951F8242090470134F7E700F0ECF80849094A541AA5100024AC4205D0054B53F82400AE
:401F400080470134F7E738BD1021000010210000102100001821000010B50023934203D0CC5CC4540133F9E710BD82180346934202D003F8011BFAE77047000000000000DC
:401F8000210000003F0000004C310000202000004C320000523100005232000053454C454354000053544152540000002020202020202000307800002030780020000000C1
:401FC0002064736B792074726F6F737469746520312E3076000000002020202073656C656374206D6F646520202020200000000020202044696554656D70657261747572D4
:402000006520202000000000207374617475733A00000000535543434553532020000000554E4B4E4F574E202000000053544152544544202000000054494D454F55542076
:402040002000000020426C7565746F6F7468204D6F6E69746F7220200000000020436F6E66696775726174696F6E204D6F6465200000000020202020646576696365206F66
:402080006E6F6620202020200000000020426C7565746F6F746820436F6E74726F6C6C200000000064736B790000000074726F6F7374697465312E3976000000303132335E
:4020C000343536373839414243444546105100401000000001400010001401400006801A0140800100400140000A004C014000020050014020000000001A014034050048A4
:4021000080000000F8B500BFF8BC08BC9E467047510000007D0F0000F8B500BFF8BC08BC9E4670472D000000382100000881FF1F1800000068000000000000008014EF0311
:40214000D0010100420000000000E88000000000000000000000000000000000000000000000000000000000000000000000000000000000000000000000000000000000E3
:40218000000000000000000000000000000000000000000000000000000000000000000000000000000000000000000000000000000000000000000000000000000000001F
:4021C00000000000000000000000000000000000000000000000000000000000000000000000000000000000000000000000000000000000000000000000000000000000DF
:40220000000000000000000000000000000000000000000000000000000000000000000000000000000000000000000000000000000000000000000000000000000000009E
:40224000000000000000000000000000000000000000000000000000000000000000000000000000000000000000000000000000000000000000000000000000000000005E
:020000040003F7
:0200000480007A
:400000000652004003640040036500404D08014040090140540A01403D0B0140020D0140011501400117014061180140431901400E1A0140491B0140024001400141014026
:400040000142014001430140034401400A4501400B460140074701400348014003490140034C0140024D01400850014001510140108011803004310160087810880F8A2F12
:400080008B2F882D89388A720040010D0514061007E108090A30110113BA142C161119071B601E03203021C4220C230A250D2620281429402C1C2E223220344035E0361FED
:4000C000371F3B283E144046410245E046C0470B481A49FF4AFF4BFF4EF04F44500C5401580459045A045B045C225D225F0166C06A406B028C028F019208960897029B0155
:400100009C04A601AF02B008B102B201B402B501B604BE50BF01D608D804D904DB04DD90DF01008005160A010B600E21102014211616170119081A081B421C201E092004E2
:4001400022012528261027212A402E022F2430203208361037013B403E043F02452047014D034E045614572058025A425C205D815E086302881089808F4092409360940486
:400180009D08A020A702AA04AD20C071C2ADC4F4CAE8CCA6CEC8D0A0D220D6F8D808E808EC04000404080A040B06110412021B0126082801300131023202340435043608A2
:4001C000370139083E014030410645D146504702481B49FF4AFF4BFF4DA04F04501852805427580459045A045B045F01604062C06440654066C068C06AC06CC06EC080082D
:4002000083019E0DA701AE03B008B202B301B401B604C030C102C5D0C650C712C83AC9FFCAFFCBFFCDA0CF04D018D280D427D804D904DA04DB04DF01E040E2C0E440E5403D
:40024000E6C0E8C0EAC0ECC0EEC000200108028004010B400F02102012081780181019621C011D281E802102229826042F20300C310233203B203C024010440845084608B4
:40028000482849014D0150085310541056085721580459415A205C085D215E80611065107340740177808C048D129240A702B640C01EC288C486CA40CC05CE84D062D204C5
:4002C000D6FFD8248702E008E210E60100080404070E0C310E02101412011431150816061A272F05300731043230330134083502370838083A023E044020410645D14620B2
:40030000480B49FF4AFF4BFF4DA04F04501852805425580459045A045B045C125D115F01604062C06440654066C068C06AC06CC06EC08108850C890C8B139001951F9602E3
:4003400099049F12A10EA311A513A70CAE02B101B201B30EB402B51CB902BB20BE14C003C515C803C9FFCA07CBFFCC40CD20CEF0CF05D008D418D604D804D904DA04DB0432
:40038000DC20DD22DF01E040E1A8E240E3200420052507010BA00C010E64120218241C101D101E442130220A23102501268027182BA02E8030203108324035803680370830
:4003C000380839203A023F0440104710484049054B084F2557105A025D845F0160866520768079047B1080809604970898029B219C019D149E40A108A210A440A608B2409A
:40040000C0B0C27CC401CA13CC4ECE47D022D220D6D1D82D83058B049702B106B701B880BF01D608D804D904DB04DC21DD90DF01018003A409280A800B0110A4118013206F
:4004400019011BA01F4020222241230824402540280129042A202B803004312032403504370C39543B023C203E203F0140404210432048014B105240531059015A105B2020
:400480005F4064016701695470A47108720283218740881089808D0193109408968297A09B209E42A121A420A7A0C00FC20FC40FCA0FCC4ECEAFD007D20CD611D810E21029
:4004C000E6023240CC1096809680968050025504D40301800520590167808402A402A504C003D602D801510457808D04978099209D01A504B580D406E402EE028D01978074
:4005000099209D01AB80AD04E40282409680E6807C808C80DE209920B340EC0185209920000501010C050D01100611011C061D0100030000CC032300F3FC0C0003FC0000EA
:4005400001100000000033000C030000CF0010034200000308000003042300C0FF450028008A40248003000C0FE07C100000A00000000100250306000400EC000CFFFFFFE3
:4005800062A0F0410C0000000000021304040404222200010000000000004002001030100010101200000000000000000000000000000000007F7F000000000000080800C0
:4005C0000800000030000030300030000000000020000CA0A000A00000000000004040000000000000F0F00000000000000A0A0000000000040000858500050000000000A0
:4006000000000000000000000000000000000000000000000000000000000000000000000000000000000000000000000000000000000000000000000000000000000000BA
:40064000000000000000000000000000000000000000000000000000000000000000000000000000000000000000000000000000000000000000000000000000000000007A
:40068000000000000000000000000000000000000000000000000000000000000000000000000000000000000000000000000000000000000000000000000000000000003A
:4006C00000000000000000000000000000000000000000000000000000000000000000000000000000000000000000000000000000000000000000000000000000000000FA
:0200000490006A
:0400000000004005B7
:0200000490105A
:04000000BC90ACAF55
:0200000490303A
:02000000078B6C
:0200000490402A
:4000000000000000000000000000000000000000000000000000000000000000000000000000000000000000000000000000000000000000000000000000000000000000C0
:400040000000000000000000000000000000000000000000000000000000000000000000000000000000000000000000000000000000000000000000000000000000000080
:400080000000000000000000000000000000000000000000000000000000000000000000000000000000000000000000000000000000000000000000000000000000000040
:4000C0000000000000000000000000000000000000000000000000000000000000000000000000000000000000000000000000000000000000000000000000000000000000
:0200000490501A
:0C00000000012E12306900012E2337F49D
:00000001FF