:400000000080002011000000790300007903000080B500AF47F2BC63C4F2000344F2FA62C4F2000212681A6000F0AAF910B5054C237833B9044810B10448AFF30080012117
:40004000217010BD2081FF1F000000008C16000008B5064B1BB106480649AFF300800648016811B1054A02B1904708BD000000008C1600002481FF1F0881FF1F0000000005
:4000800080B500AF48F24813C1F6FF73DA7948F24813C1F6FF731A7248F24813C1F6FF739A7948F24813C1F6FF73DA7148F24813C1F6FF735A7948F24813C1F6FF739A71CD
:4000C00048F24813C1F6FF731A7948F24813C1F6FF735A7148F24813C1F6FF73DA7848F24813C1F6FF731A7148F24813C1F6FF739A7848F24813C1F6FF73DA7048F2481360
:40010000C1F6FF735A7848F24813C1F6FF739A7001F020FA03461A4648F24813C1F6FF735A7000F021F948F24813C1F6FF731B7A802B40F0CE8048F24813C1F6FF739A786A
:4001400048F24813C1F6FF73DB78D318DAB248F24813C1F6FF731B79D318DAB248F24813C1F6FF735B79D318DAB248F24813C1F6FF739B79D318DAB248F24813C1F6FF731E
:40018000DB79D318DAB248F25913C1F6FF731A7048F25913C1F6FF731B7803F07F03DAB248F25913C1F6FF731A7048F24813C1F6FF735A7848F25A13C1F6FF731A7048F23B
:4001C0004813C1F6FF739A7848F24013C1F6FF73DA7048F24813C1F6FF73DA7848F24013C1F6FF739A7048F24813C1F6FF731A7948F24013C1F6FF735A7048F24813C1F67C
:40020000FF735A7948F24013C1F6FF731A7048F24813C1F6FF73DA7948F25C13C1F6FF731A7048F24813C1F6FF739A7948F25B13C1F6FF731A7048F24813C1F6FF73DB798E
:4002400003F00203002B1DD048F24413C1F6FF731B78002B07D148F24413C1F6FF734FF004021A700CE048F24413C1F6FF731B7803F1FF33DAB248F24413C1F6FF731A7066
:4002800000F062F848F24813C1F6FF73DB7903F00803002B1DD048F24413C1F6FF731B78042B07D148F24413C1F6FF734FF000021A700CE048F24413C1F6FF731B7803F1C6
:4002C0000103DAB248F24413C1F6FF731A7000F043F880BD80B500AF40F28100C0F2000001F048F900F01CF84FF0010001F010F94FF0640000F0CCFB00F012F800F0AAFD1E
:4003000062B601F073F900F01FF84FF47A7000F0BFFB00F021F84FF47A7000F0B9FBF2E780B500AF00F02EFC4FF07F0000F0E6FC4FF0C80000F0ACFB4FF0000000F0DEFC82
:4003400000F09AFC80BD00BF80B500AF4FF0010000F05EFB80BD00BF80B500AF4FF0000000F056FB80BD00BF80B500AF4FF0010000F02EFB80BD00BF80B400AFFEE700BF72
:4003800080B586B000AF40F20103C0F200037B6141F20073C0F200033B6140F20103C0F200037B6141F20073C0F200033B613BE03B691B68FB603B695B68BB603B699B68E1
:4003C0003B604FF000037B600FE0FB681A68BB681A60BB6803F10403BB60FB6803F10403FB607B6803F104037B607A683B689A42EBD13B69DB683B604FF000037B600BE082
:40040000BB684FF000021A60BB6803F10403BB607B6803F104037B607A683B689A42EFD13B6903F110033B617B69002B0CBF00230123DBB27A6902F1FF327A61002BB7D141
:4004400001F0ECF8FFF746FFFEE700BF80B582B000AF4EF60C53CEF200034FF48062C0F2FA521A604EF61453CEF200034EF61452CEF20002126842F400721A604FF00003F7
:400480007B6019E07B68032B07D840F20003C0F200037A6853F8223003E040F27933C0F2000348F20002C1F6FF72796842F821307B6803F101037B607B682F2BE2D947F2E2
:4004C000BC63C4F200031B78DAB248F20413C1F6FF731A704EF60853CEF2000348F20002C1F6FF721A6000F06DF948F20013C1F6FF734FF000021A6007F10807BD4680BDF3
:4005000080B582B000AF7860396078684FF000013A6801F0B2F807F10807BD4680BD00BF80B584B000AFF860B9607A60F868B9687A6801F099F807F11007BD4680BD00BF7B
:4005400080B483B000AF0346FB71FEE780B487B000AF786039604FF000033B614FF000037B612CE07B694FEA83037A68D3181B68BB60BB68FB73BB6823F0FF03BB6017E04F
:400580003B694FEA43033A68D3181B781A46BB68D3183A694FEA420239688A1852781A703B6903F101033B61FB7B03F1FF33FB73FB7B002BE4D17B6903F101037B617B699F
:4005C000252BCFD907F11C07BD4680BC704700BF80B582B000AF4FF48143C4F200034FF003021A8044F28203C4F200034FF018021A7044F28403C4F200034FF00E021A80C9
:4006000044F28603C4F200034FF018021A7044F28803C4F200034FF017021A8044F28A03C4F200034FF018021A7044F28C03C4F200034FF49C721A8044F28E03C4F20003AB
:400640004FF018021A704FF48643C4F200034FF002021A704FF040234FF008021A704FF48443C4F200034FF003021A7044F2A163C4F200034FF48472C4F600121278D2B2F9
:400680001A7044F22223C4F200034FF008021A8044F22023C4F2000341F251221A804FF00003FB704FF019037B6019E0FB784FEA4303DAB244F22523C4F200031B78DBB276
:4006C00003F00103DBB21343DBB203F00303FB704FF4F07000F0BCF97B6803F1FF337B607B68002B02D0FB78032BDFD17B68002B03D14FF00300FFF723FF44F20403C4F2A3
:4007000000034FF480721A8044F20403C4F200034FF007021A7044F20603C4F200034FF000021A7044F20803C4F200034FF048021A7044F20403C4F200034FF000021A708E
:4007400044F20103C4F200034FF002021A7044F2A233C4F2000344F2A232C4F200021278D2B242F00F02D2B21A7007F10807BD4680BD00BF80B483B000AF40F2CF13C4F6EA
:4007800000131B78FB7145F66E03C4F20003FA7902F00702D2B21A7045F66F03C4F20003FA794FEA1212D2B21A7045F67603C4F200034FF044021A7007F10C07BD4680BC3C
:4007C000704700BF80B586B000AF72B644F2E863C4F2000344F2E862C4F200021278D2B242F00402D2B21A704FF00003FB7519E0FA7D13464FEA43039B184FEA430341F21C
:400800009062C0F200029B183B613B691A683B699B889BB210461946FFF772FEFB7D03F10103FB75FB7D082BE2D94FF00003FB7523E0FA7D13464FEA83039B184FEA4303B2
:4008400041F2C862C0F200029B18FB60FB681B68BB60FB685B687B60FB681A7A5B7A4FEA032313437B807B88B86879681A46FFF757FEFB7D03F10103FB75FB7D012BD8D9F7
:400880004FF090404FF09801C4F60001FFF75EFE45F20303C4F2010345F20302C4F201021278D2B242F00202D2B21A7045F21303C4F2010345F21302C4F201021278D2B2EC
:4008C00042F00202D2B21A7044F2A033C4F2000344F2A032C4F200021278D2B242F04002D2B21A7044F2C233C4F2000344F2C232C4F200021278D2B242F01002D2B21A707C
:4009000045F2C210C4F2000040F64C71C4F600014FF00802FFF704FE45F24210C4F2000040F65471C4F600014FF00802FFF7F8FD45F25210C4F2000040F65C71C4F60001D3
:400940004FF00802FFF7ECFD45F26010C4F2000040F66471C4F600014FF00A02FFF7E0FD44F22233C4F2000344F22232C4F200021278D2B242F00802D2B21A704FF490431A
:40098000C4F200034FF001021A70FFF721FE4FF49043C4F200034FF081021A704FF00403C4F208034FF001021A70FFF7E3FE44F2B030C4F2000044F2A031C4F200014FF00F
:4009C0000E02FFF7ADFD07F11807BD4680BD00BF80B485B000AF0346FB7145F2C013C4F200031B78DBB203F07F03FB7345F2C013C4F20003FA794FEAC212D1B2FA7B0A4316
:400A0000D2B21A7007F11407BD4680BC704700BF80B485B000AF0346FB7145F25013C4F200031B78DBB203F07F03FB7345F25013C4F20003FA794FEAC212D1B2FA7B0A43A5
:400A4000D2B21A7007F11407BD4680BC704700BF0230800800F0058000BF013800467FF4FCAF7047EFF3108072B6704780F31088704700BFAFF3008080B483B000AF03460B
:400A8000FB7101BE07F10C07BD4680BC704700BF80B582B000AF78600BE048F21813C1F6FF731B681846FFF7D3FF7B68A3F500437B607B68B3F5004FEFD848F21013C1F6ED
:400AC000FF731B687A6802FB03F31846FFF7C0FF07F10807BD4680BD80B584B000AF03463960FB714EF60853CEF200031B68FB60FB791F2B03D94FF00000FFF7BDFFFB792D
:400B000003F01F0303F110034FEA8303FA68D3181B68BB60FB7903F01F0303F110034FEA8303FA68D3183A681A60BB68184607F11007BD4680BD00BF80B582B000AF02464A
:400B40000B46FA71BB71BB79072B03D94FF00000FFF792FFFB791F2B03D94FF00000FFF78BFFFB7903F01F0303F1604303F56443BA794FEA4212D2B21A7007F10807BD4695
:400B800080BD00BF80B500AF48F23C13C1F6FF731B78002B08D100F00BF848F23C13C1F6FF734FF001021A7000F052F880BD00BF80B582B000AF46F27F43C4F200031B7809
:400BC000DBB223F03F03FB7146F27F43C4F20003FA7942F00902D2B21A7046F29F43C4F2000346F29F42C4F200021278D2B242F00102D2B21A704FF0FF0000F051F84FF08B
:400C0000FF0000F06BF84FF07F0000F077F84FF0000000F083F8FFF725FF0346BB7146F29F43C4F2000346F29F42C4F200021278D2B242F01002D2B21A70BB791846FFF780
:400C400015FF00F03DF807F10807BD4680BD00BF80B400AF46F27F43C4F2000346F27F42C4F200021278D2B262F07F02D2B21A70BD4680BC704700BF80B400AF46F27F436D
:400C8000C4F2000346F27F42C4F200021278D2B202F07F02D2B21A70BD4680BC704700BF80B483B000AF0346FB7146F20F43C4F20003FA791A7007F10C07BD4680BC70477A
:400CC00080B500AF01E000F049F800F037F8034603F01003002BF6D180BD00BF80B483B000AF0346FB7146F24F43C4F20003FA791A7007F10C07BD4680BC704780B483B0EF
:400D000000AF0346FB7146F22F43C4F20003FA791A7007F10C07BD4680BC704780B483B000AF0346FB7146F28F43C4F20003FA791A7007F10C07BD4680BC704780B483B0FB
:400D400000AF46F26F43C4F200031B78FB71FB79184607F10C07BD4680BC704780B400AF46F25F43C4F200031B78DBB21846BD4680BC704780B582B000AF46F27C43C4F2A2
:400D800000034FF000021A7046F28743C4F200034FF001021A70FFF765FE0346FB7146F29743C4F2000346F29742C4F200021278D2B242F01002D2B21A70FB791846FFF714
:400DC00055FE46F22743C4F200034FF00F021A7046F23743C4F200034FF008021A704EF28013CEF200034FF002021A604FF001004FF00701FFF7A0FE4FF0010040F68D615B
:400E0000C0F20001FFF768FE48F25D13C1F6FF734FF010021A7000F041FB00F059FB00F025FB07F10807BD4680BD00BF80B400AF46F27C43C4F2000346F27C42C4F200022E
:400E40001278D2B242F00202D2B21A70BD4680BC704700BF80B500AF48F23D13C1F6FF731B78002B08D1FFF785FF48F23D13C1F6FF734FF001021A70FFF7D8FF4FF4614390
:400E8000CEF200034FF002021A6080BD80B582B000AF46F26743C4F200031B78FB7148F25D13C1F6FF731B78DBB203F04003DBB2002B00F0C482FB7903F00103002B00F028
:400EC000878248F25D13C1F6FF731B78DBB2A3F14503052B00F2778201A252F823F000BFF90E00000B110000C7130000C7130000F90E0000C3120000FB7923F02003FB7177
:400F0000FB7903F00A03DBB2082B40F0938048F25D13C1F6FF731B78DBB2452B74D148F26813C1F6FF731B78DBB2002B28D046F20343C4F2000348F26C12C1F6FF721268E0
:400F40001278D2B21A7046F27C43C4F200034FF006021A7046F25343C4F200034FF000021A7048F26513C1F6FF734FF001021A7048F25D13C1F6FF734FF046021A7027E272
:400F800048F26413C1F6FF731B78DBB203F00203002B1CD048F26713C1F6FF731B78DBB243F00A03DAB248F26713C1F6FF731A7048F25D13C1F6FF734FF060021A704EF2BA
:400FC0008013CEF200034FF002021A6000E246F28743C4F2000346F28742C4F200021278D2B242F02002D2B21A7046F27C43C4F200034FF052021A7046F25343C4F20003C4
:401000004FF000021A70E3E146F27C43C4F200034FF002021A7046F25343C4F200034FF000021A7048F25D13C1F6FF734FF04A021A70CDE1FB7903F00A03DBB20A2B5FD156
:4010400048F26713C1F6FF731B78DBB263F05F03DAB248F26713C1F6FF731A7048F26413C1F6FF731B78DBB203F00203002B2AD048F25D13C1F6FF731B78DBB203F00803C3
:40108000002B02D04FF0090201E04FF00A0248F26713C1F6FF731B78DBB21343DAB248F26713C1F6FF731A7048F25D13C1F6FF734FF060021A704EF28013CEF200034FF0A4
:4010C00002021A6084E146F28743C4F2000346F28742C4F200021278D2B242F02002D2B21A7046F27C43C4F200034FF052021A7046F25343C4F200034FF000021A7067E1C2
:401100004FF00000FFF7B8FC62E1FB7903F00203002B40F0848048F26513C1F6FF731B78DAB248F26813C1F6FF731B78DBB29A422FD246F20343C4F2000348F26C12C1F63D
:40114000FF72116848F26512C1F6FF721278D2B28A181278D2B21A7046F27C43C4F200034FF006021A7046F25343C4F200034FF000021A7048F26513C1F6FF731B78DBB296
:4011800003F10103DAB248F26513C1F6FF731A701EE148F26413C1F6FF731B78DBB203F00203002B1CD048F26713C1F6FF731B78DBB243F00A03DAB248F26713C1F6FF7398
:4011C0001A7048F25D13C1F6FF734FF060021A704EF28013CEF200034FF002021A60F7E000F090F946F28743C4F2000346F28742C4F200021278D2B242F02002D2B21A70E0
:4012000046F27C43C4F200034FF052021A7046F25343C4F200034FF000021A70D8E048F26413C1F6FF731B78DBB203F00203002B1CD048F26713C1F6FF731B78DBB263F07E
:401240006503DAB248F26713C1F6FF731A7048F25D13C1F6FF734FF060021A704EF28013CEF200034FF002021A60B1E046F28743C4F2000346F28742C4F200021278D2B2AF
:4012800042F02002D2B21A7046F27C43C4F200034FF052021A7046F25343C4F200034FF000021A7048F26713C1F6FF731B78DBB263F06F03DAB248F26713C1F6FF731A70F8
:4012C00086E048F26013C1F6FF731A6848F27013C1F6FF731B78DBB2D21846F20343C4F200031B78DBB2137048F27013C1F6FF731B78DBB203F10103DAB248F27013C1F668
:40130000FF731A7048F27013C1F6FF731B78DAB248F26613C1F6FF731B78DBB29A420ED246F27C43C4F200034FF002021A7046F25343C4F200034FF000021A7048E048F2C3
:401340006413C1F6FF731B78DBB203F00203002B1CD048F26713C1F6FF731B78DBB243F00903DAB248F26713C1F6FF731A7048F25D13C1F6FF734FF060021A704EF280139E
:40138000CEF200034FF002021A6021E046F28743C4F2000346F28742C4F200021278D2B242F02002D2B21A7046F27C43C4F200034FF012021A7046F25343C4F200034FF075
:4013C00000021A7004E04FF00000FFF755FB00BFFB7903F02003002B43D048F25D13C1F6FF731B78DBB203F00803002B02D04FF0010201E04FF0020248F26713C1F6FF7340
:401400001B78DBB21343DAB248F26713C1F6FF731A7046F28743C4F2000346F28742C4F200021278D2B222F02002D2B21A7048F25D13C1F6FF734FF010021A7011E048F2A6
:401440005D13C1F6FF731B78DBB203F01003DBB2002B06D148F25D13C1F6FF734FF010021A7007F10807BD4680BD00BF80B483B000AF48F26713C1F6FF731B78FB7148F23E
:401480006713C1F6FF734FF000021A70FB79184607F10C07BD4680BC704700BF80B400AF48F27013C1F6FF734FF000021A7048F26713C1F6FF731B78DBB223F00103DAB2F8
:4014C00048F26713C1F6FF731A70BD4680BC704780B400AF48F26513C1F6FF734FF000021A7048F26713C1F6FF731B78DBB223F00203DAB248F26713C1F6FF731A70BD46FB
:4015000080BC704780B400AFBD4680BC704700BF80B485B000AF0346FB7145F25013C4F200031B78DBB223F04003FB7345F25013C4F20003FA794FEA8212D2B202F04002D1
:40154000D1B2FA7B0A43D2B21A7007F11407BD4680BC704780B483B000AF46F24E43C4F200031B78FB71FB79184607F10C07BD4680BC704780B582B000AF786000F042F88D
:40158000786800F00BF84FF0070000F01BF800F02DF807F10807BD4680BD00BF80B485B000AF78604EF60853CEF200031B68FB60FB6803F148037A681A6007F11407BD46B0
:4015C00080BC704780B483B000AF0346FB714EF20243CEF20003FA794FEA4212D2B21A7007F10C07BD4680BC704700BF80B400AF4FF46143CEF200034FF004021A60BD46C8
:4016000080BC704780B400AF4EF28013CEF200034FF004021A60BD4680BC704738B50E4D0E4B0024E81A8510AC4205D00B4951F8242090470134F7E700F050F80849094AC3
:40164000541AA5100024AC4205D0054B53F8240080470134F7E738BDE8160000E8160000E8160000F016000010B50023934203D0CC5CC4540133F9E710BD82180346934269
:4016800002D003F8011BFAE77047000000000000C84900401900005100404000F0510040100000000140800200030140000D00140140000800400140000A004C0140000252
:4016C000005001402000000060520040C40E0048060080020140CC0E00488000F8B500BFF8BC08BC9E467047510000004D040000F8B500BFF8BC08BC9E4670472D000000F5
:40170000101700000881FF1F18000000580000000000000000366E01C05D0000180000000000E02E0000000000000000000000000000000000000000000000000000000083
:401740000000000000000000000000000000000000000000000000000000000000000000000000000000000000000000000000000000000000000000000000000000000069
:401780000000000000000000000000000000000000000000000000000000000000000000000000000000000000000000000000000000000000000000000000000000000029
:4017C00000000000000000000000000000000000000000000000000000000000000000000000000000000000000000000000000000000000000000000000000000000000E9
:4018000000000000000000000000000000000000000000000000000000000000000000000000000000000000000000000000000000000000000000000000000000000000A8
:020000040003F7
:0200000480007A
:40000000075200400A6400404D00014037010140230201405203014058040140580501405A0601405A070140690801405E090140570A0140630B0140510C0140560D01400B
:40004000620E0140480F01400D150140151701405318014056190140561A0140481B0140064001400541014006420140054301401144014009450140094601400347014056
:4000800002480140054901400C4C0140144D014007500140025101402001282029202C303041310334332304270F2804290F3708390883388B0F8E728F2D01A5034A070257
:4000C00008010BB50F0411FF154D16021792191A1B601D022301250429CC2B132DA92E022F54300133FF340236013E503F0452F6580459045B045C035D105F0180408101AC
:40010000821D843D86C28701880189018D028E0890E291049310940195019718980D9D019E029F08A004A2E0A320A501A6FFA708A892A904AA60AB08AC5DAEA2B104B338C9
:40014000B503B6FFB922BB08BE40BF10D804D904DC10DF0103080540060807900B200C020E100F09120114061501161018061A801F802104250826092708280629012A28A4
:400180002D142F8030023158331136883701388839113A103C203D013EA13F0868287044710172187301811082C0840A85048C088E41C0F2C2F4C4F1CAEFCCDFCEFFE00413
:4001C000E60808010F0819011B021E021F0421012302300131043508360237033E01400646504701481849FF4A074BFF4C404D204EF04F055008580459045A045D035F01BB
:40020000604061A862406320020903A00420088109200A200C8010181181182019011E401F4020082102231424402610270128092A012B122C80325C33013440372038801F
:4002400039013A103B043C403E013F024040422049104A204F105048561057085A0260046242871088108AC08E0290069290930195149641972098089A089B089D40A022EA
:40028000A201A410A680A70CA802AA80AD04B108B380C04FC28FC40FCA8FCC3FCE1FD003D224D601D80DE612E808EA050101031E0410050106800810091C0AE00B220C603A
:4002C0000D220E180F18100F1340147015221601183019041A441D061E0F20202118225823062470253F2602292A2A0F2B102C0F2D322F08300F32F0331F356039083A088C
:400300003E01580459045F0180018122820485188706881289328A018B088C018D1C8E068F229101931E94019522961A97189A139B409D019E13A106A52AA710A904AD3F18
:40034000AE33B007B11FB208B410B620B760B902BA02BE10D804D904DC10DF01032A0450050208010A290B800E29110B124013B0140119081A401B081C541E01200821148A
:40038000221025402680274128042A012B222C0A2E06310932203380340836013750392A3A403C203D843F0158045A085C805F8082048340840885088701880889408A03CE
:4003C0008C408E108F109080921093819515962899019A189CC09D509E219F20A022A102A231A301A490A680A7B6AD60AE01B004B201B401B708C0D7C2EFC48FCAFFCCFF5A
:40040000CEFFE202E401E604EA0EEE0201220305053A070409100B070D080E010F07100111031401150119051B781D401F072103250129012D7F337F36013F0458045904F1
:400440005C015F01817F840A8610890F8A018E028F20902491449308940A95809610971499909A029B019C24A023A190A302A403A980AB08AD80AF18B020B140B203B33F78
:40048000B41CB604B780B8A2B98ABE50BF40C014C652C80CC9FFCAFFCBFFCC42CDA0CE70D008D110D420D604D804D904DA04DB04DF01E148E240E348E480E548E680E74884
:4004C000001803020542078009840A480B400C220E080F2011011308181019131A011D401F4021012311271029202A012B022C022E182F44310132143685372039013B60A8
:400500003C203D843F024102420151805310582259085B405E045F046004638183448504870489158A808E019004910892709516960C971099089A099B099C409D509F900B
:40054000A026A106A301A490A501A786A904AA01AE20AF08B102B210B320C087C23FC40CCAFDCCF7CEFDD009D60FD80DE008E408E604EA0C004202090490060B081F090157
:400580000C480E021001110214031620184F1C01204022142440260B28032E0132E03302341F35013640370138883E443F0440364401450B46D0480949FF4A7F4BFF4C42FF
:4005C0004DA04E70500C580459045A045C015D015F0161096240630964306509820F840F88908B028E048F029090930196089A0F9C209E42A208A420A641A880AB04AC0FDE
:40060000B00FB101B280B302B470B610B704B8A8BE51BF04C012C550C702C812C9FFCAFFCBFFCC42CDA0CE70D008D110D804D904DA04DC11DD01DF01E148E240E348E48018
:40064000E548E680E7480082010C020103080518064108800A840B100C200F6210281180124014A0155119081AA91D4C1F1420022104220224022614270828402A12300165
:400680003502388039203E104004420144014508480849104A804E044F04530857305C205F1083208701888089088A848B188D018F10908491A09210950996209704980195
:4006C00099329A4C9B019C209D019E829F54A0C0A140A201A342A511A614A880A920AE08AF02B008B210B304C0FFC2FFC4FFCA04CC81CE2CD05CD220E008E2B0E680EA80BE
:40070000EC20051809081104151C160217E11B041C011D9C1F6221FF25E727182BA32D1030013140333835983602371F39023B883E01580459045C305F018190830B849C34
:4007400086228701883089488A4C8B028C2C8D4F8ED191039320948095409610970B981499039D429E039F09A009A140A2F0A314A501A91FAD01B2E0B3E0B51FB61FB90804
:40078000BA08BF04C062C101C5EBC7C0C823C9FFCAFFCBFFCEF0CF44D00CD401D804D904DA04DB04DC03DD33DF01E6C0EA40EB02041005040601080409800C080D800F085E
:4007C000146015041A401B801D84211822412520260829492B082C802D802E082F043022310832403602375438283C403D203E063F90440A46014D024E044F0857015D1200
:400800005E085F407C107E0483808701880489108B058C408D448E4290AC921C9340952D96A29710984B99F89A4C9B019D059E829F54A062A140A201A308A480A509A61036
:40084000A741AB08AC10AD81AE04B002B110B260B302B42CB540C0E0C2E5C410CAFFCCFFCEF6D030D220D6F0E040E210E491E620E860EC40EE800201030C0402070708CC9E
:400880000A130EB5101A1260144D169218FF1CA91D011E542204260228042CA52E4A31013308350436FF37023E4052F6580459045B045C205F018005826A8420850C86C0CA
:4008C000884089048A208C608DC38E0290019141920293109408952F966597C0980699829A609C2F9D2C9E809FC3A001A1EFA264A461A5E3A602A70CAA10ABC3AD08B01F4F
:40090000B1C0B320B4E0B50FB710BA20BB20BF04D804D904DC31DF010080011002400320050206020714082009010A200B020C900F90100411051614174119201B221E0230
:4009400021412324244025042680270829492B0830023128324034103690382839403C023F085D085E085F04650167806E1474147502761477017D207E0486018824890485
:400980008A0890A891409342944095209780984599509D049E809F20A043A170A30CA504A624A701AA42AC05AD0AB052B304C0FFC2FFC4FECA0FCC1FCECEE080E220E680AE
:4009C000EC20EE08080A0A510C010E2610801501170A18141A492304249F289F2D012F0230073103328033043418350836603E404063410542024401460C470E481449FF33
:400A00004AFF4BFF4C624DA04EF04F41500C56025711580459045A045B045C135D335F016640670269106A306B106D106E106F12810D832089218B1A911493219504972A7D
:400A40009927A401A90DB001B51FB720BF40C030C106C5D1C620C80BC9FFCAFFCBFFCDA0CF04D018D280D425D804D904DA04DB04DC31DD22DF01E040E2C0E440E540E6C019
:400A8000E8C0EAC0ECC0EEC000200140030209200A840C400E820F4010201110170418011A141B0A1E401F012108220223042510265029022A802F043204350436213D20A2
:400AC0003F0240014110421045044A044B804F295040520857105B205C485F016620682069106A8070147140740178087B1082A0861089408A048B048D108E098F05C003D8
:400B0000C20AC426CA29CCE2CEA0D04ED22CD6D4D820E011E410E640802088808F029C20A480A702A921AB80AC10B040E606EA09EE058002860496089C629D20A490A501B3
:400B4000A782A810AA04AB40AD42AF14B140B208B321B710E609E808EA02EC0C00E20101030E040406E0080109050B300D050E020F10103D118112C2132814401504161D3C
:400B800017011A081B801C5D1EA21F10210522FF2310249226602740280129042B012C0D2D812F02310F338034FF35703A023B223E10580459045C035F01820885808640C2
:400BC000875689338A988B0C8E94922094909546960297A998C0990E9B30A00FA140A313A404A608A701A8FFA9FFAC90AD2AAE01AF54B2C0B3FFB43FB820D804D904DC1141
:400C0000DF0100200108024104020506062407010A800B280C800E280F801008110412801340144215801608170419081A041B081D011F20202021082310251126142710DF
:400C400029102A412B102C802E202F223030310834403502371439043B203D223F8081018610881089408A108B40900291849280932896049710984099709A4D9B019D0170
:400C80009E109F54A0A9A140A283A352A510A940AC40AE02B020B110B340B504C0FFC2FEC4FFCAFFCCF6CEB6E8A8EA10EC20021B0501070209751012120114011564160668
:400CC000171119101BE01D011E131F0E2135234025752613280129112A042B882C012D242E322F5130203207341035F03608370F3A083BA03E1054205604580459045B0437
:400D00005C115D105F01802F828084058546866A87A988208AC08C018D0E8E028F309006926093019460952A96029754980199409A649B139D809E109F56A008A133A26538
:400D4000A30CA461A602A840AA20ADFFB21FB3FFB4E0BA20D804D904DF01000204020514068007010A510D200E220F80100C121214401520170418041A511D1421802210CA
:400D8000230A250428142A412C802E803188321034423504361037013B283D083F804504470459205B4A600461406340808081308348874089108D04900293289852996056
:400DC0009A519D049F04A089A108A213A348A904AA04AB40AF10C0F8C2FDC477CA9FCCFECE56D60FD80DE6C0EA813008322037105740CC70D4408C089F10A408A620A74015
:400E00003E109F10A620AB40CE20EA20831096109F10A620E2200002050808080C041010150152025C10658082028908C00CC20CC40CD401D605E2019101941098109D8045
:400E4000A001AC01B00CEA01EE0180108D809101941098109D80B001E402EA018601910198109610A6208620A620AA10E640EA8010401320148078107D01910192019310AC
:400E80009810AF10C40EDE0308090C045A01671078407C8088059201931098C09C08AB20B008C20CD602D801DC01DE04E605EA01000F080F0A030C0B0E0F100B1C0B003F33
:400EC00003C000002030000030000000030100007F0C0030082007003A000401100207000501780001010000400007782201050001640000030C0050010100007F03000CAE
:400F000000700000080A00200000010536000000040B0D0D15FF7FFF42A070000C0000001800040004040404323000010009400930090000000000000000000000000000A0
:400F40000000000000000000000000000080B00030000000000101000100000000C0F00030000000430030C3C00043000000000000000000000000000000000000000000F5
:400F80000000000000000000000000000000000000000000000000000000000000000000000000000000000000000000000000000000000000000000000000000000000031
:400FC00000000000000000000000000000000000000000000000000000000000000000000000000000000000000000000000000000000000000000000000000000000000F1
:4010000000000000000000000000000000000000000000000000000000000000000000000000000000000000000000000000000000000000000000000000000000000000B0
:401040000000000000000000000000000000000000000000000000000000000000000000000000000000000000000000000000000000000000000000000000000000000070
:0200000490006A
:0400000000004005B7
:0200000490105A
:04000000BC90ACAF55
:0200000490303A
:0200000033F8D3
:0200000490402A
:4000000000000000000000000000000000000000000000000000000000000000000000000000000000000000000000000000000000000000000000000000000000000000C0
:400040000000000000000000000000000000000000000000000000000000000000000000000000000000000000000000000000000000000000000000000000000000000080
:400080000000000000000000000000000000000000000000000000000000000000000000000000000000000000000000000000000000000000000000000000000000000040
:4000C0000000000000000000000000000000000000000000000000000000000000000000000000000000000000000000000000000000000000000000000000000000000000
:0200000490501A
:0C00000000012E12306900012E21646105
:00000001FF