:400000000080002011000000350600003506000080B500AF47F2BC63C4F2000344F2FA62C4F2000212681A6000F008FB10B5054C237833B9044810B10448AFF30080012139
:40004000217010BD2081FF1F00000000C01A000008B5064B1BB106480649AFF300800648016811B1054A02B1904708BD00000000C01A00002481FF1F0881FF1F0000000095
:4000800080B500AF48F25013C1F6FF73DA7948F25013C1F6FF731A7248F25013C1F6FF739A7948F25013C1F6FF73DA7148F25013C1F6FF735A7948F25013C1F6FF739A719D
:4000C00048F25013C1F6FF731A7948F25013C1F6FF735A7148F25013C1F6FF73DA7848F25013C1F6FF731A7148F25013C1F6FF739A7848F25013C1F6FF73DA7048F2501328
:40010000C1F6FF735A7848F25013C1F6FF739A7000F06EFF03461A4648F25013C1F6FF735A7000F077FA48F25013C1F6FF731B7A802B40F0CE8048F25013C1F6FF739A78A1
:4001400048F25013C1F6FF73DB78D318DAB248F25013C1F6FF731B79D318DAB248F25013C1F6FF735B79D318DAB248F25013C1F6FF739B79D318DAB248F25013C1F6FF73F6
:40018000DB79D318DAB248F26113C1F6FF731A7048F26113C1F6FF731B7803F07F03DAB248F26113C1F6FF731A7048F25013C1F6FF735A7848F26213C1F6FF731A7048F213
:4001C0005013C1F6FF739A7848F24813C1F6FF73DA7048F25013C1F6FF73DA7848F24813C1F6FF739A7048F25013C1F6FF731A7948F24813C1F6FF735A7048F25013C1F644
:40020000FF735A7948F24813C1F6FF731A7048F25013C1F6FF73DA7948F26413C1F6FF731A7048F25013C1F6FF739A7948F26313C1F6FF731A7048F25013C1F6FF73DB795E
:4002400003F00203002B1DD048F24C13C1F6FF731B78002B07D148F24C13C1F6FF734FF004021A700CE048F24C13C1F6FF731B7803F1FF33DAB248F24C13C1F6FF731A7046
:4002800000F0C8F948F25013C1F6FF73DB7903F00803002B1DD048F24C13C1F6FF731B78042B07D148F24C13C1F6FF734FF000021A700CE048F24C13C1F6FF731B7803F13F
:4002C0000103DAB248F24C13C1F6FF731A7000F0A9F980BD80B584B000AF0346FB80B7F90630002B03D14FF00003FB8122E0B7F9063013F1FF0F02DA4FF60173FB80B7F91A
:400300000630FF2B02DD4FF0FF03FB80B7F90630002B09DA4FF0010001F0B0FAFB88C3F100039BB2FB8105E04FF0000001F0A6FAFB88FB81FB89DBB2184601F093F807F159
:400340001007BD4680BD00BF80B584B000AF0346FB80B7F90630002B03D14FF00003FB8122E0B7F9063013F1FF0F02DA4FF60173FB80B7F90630FF2B02DD4FF0FF03FB8033
:40038000B7F90630002B09DA4FF0010001F054FAFB88C3F100039BB2FB8105E04FF0000001F04AFAFB88FB81FB89DBB2184600F07DFF07F11007BD4680BD00BF80B584B01D
:4003C00000AF0346FB80B7F90630002B03D14FF00003FB8122E0B7F9063013F1FF0F02DA4FF60173FB80B7F90630FF2B02DD4FF0FF03FB80B7F90630002B09DA4FF00000FF
:4004000001F05EFAFB88C3F100039BB2FB8105E04FF0010001F054FAFB88FB81FB89DBB2184601F0FBF807F11007BD4680BD00BF80B584B000AF0346FB80B7F90630002BBF
:4004400003D14FF00003FB8122E0B7F9063013F1FF0F02DA4FF60173FB80B7F90630FF2B02DD4FF0FF03FB80B7F90630002B09DA4FF0000001F046FAFB88C3F100039BB24A
:40048000FB8105E04FF0010001F03CFAFB88FB81FB89DBB2184601F09DF907F11007BD4680BD00BF80B500AF40F28100C0F2000000F0FEFD00F09AF800F08AFE4FF0000004
:4004C00000F0F4FE00F060FF4FF0000000F0CAFF01F036F84FF0000001F0A0F801F00CF94FF0000001F076F94FF0010001F02AFA4FF0010001F048FA4FF0010001F066FAFE
:400500004FF0010001F084FA48F20C13C1F6FF731B785BB29BB21BB21846FFF789FF48F20C13C1F6FF731B785BB29BB2C3F100039BB29BB21BB21846FFF740FF48F20C137B
:40054000C1F6FF731B785BB29BB2C3F100039BB29BB21BB21846FFF7F7FE48F20C13C1F6FF731B785BB29BB21BB21846FFF7B2FE4FF4FA7000F008FC48F20C13C1F6FF739B
:400580001B785BB29BB2C3F100039BB29BB21BB21846FFF74DFF48F20C13C1F6FF731B785BB29BB21BB21846FFF708FF48F20C13C1F6FF731B785BB29BB21BB21846FFF769
:4005C000C3FE48F20C13C1F6FF731B785BB29BB2C3F100039BB29BB21BB21846FFF77AFE4FF4FA7000F0D0FB8EE700BF80B500AF00F0EEFB4FF07F0000F0A6FC4FF0C80031
:4006000000F0C2FB4FF0000000F09EFC00F05AFC80BD00BF80B500AF4FF0010000F07EFB80BD00BF80B500AF4FF0000000F076FB80BD00BF80B400AFFEE700BF80B586B007
:4006400000AF40F20103C0F200037B6141F64433C0F200033B6140F20103C0F200037B6141F64433C0F200033B613BE03B691B68FB603B695B68BB603B699B683B604FF09F
:4006800000037B600FE0FB681A68BB681A60BB6803F10403BB60FB6803F10403FB607B6803F104037B607A683B689A42EBD13B69DB683B604FF000037B600BE0BB684FF037
:4006C00000021A60BB6803F10403BB607B6803F104037B607A683B689A42EFD13B6903F110033B617B69002B0CBF00230123DBB27A6902F1FF327A61002BB7D101F0A8F94F
:40070000FFF7D0FEFEE700BF80B582B000AF4EF60C53CEF200034FF48062C0F2FA521A604EF61453CEF200034EF61452CEF20002126842F400721A604FF000037B6019E0AC
:400740007B68032B07D840F20003C0F200037A6853F8223003E040F23563C0F2000348F20002C1F6FF72796842F821307B6803F101037B607B682F2BE2D947F2BC63C4F232
:4007800000031B78DAB248F20413C1F6FF731A704EF60853CEF2000348F20002C1F6FF721A6000F09DF948F20013C1F6FF734FF000021A6007F10807BD4680BD80B582B06E
:4007C00000AF7860396078684FF000013A6801F06EF907F10807BD4680BD00BF80B584B000AFF860B9607A60F868B9687A6801F055F907F11007BD4680BD00BF80B483B03F
:4008000000AF0346FB71FEE780B487B000AF786039604FF000033B614FF000037B612CE07B694FEA83037A68D3181B68BB60BB68FB73BB6823F0FF03BB6017E03B694FEA16
:4008400043033A68D3181B781A46BB68D3183A694FEA420239688A1852781A703B6903F101033B61FB7B03F1FF33FB73FB7B002BE4D17B6903F101037B617B69252BCFD9C1
:4008800007F11C07BD4680BC704700BF80B582B000AF4FF48143C4F200034FF003021A8044F28203C4F200034FF018021A7044F28403C4F200034FF00E021A8044F286033F
:4008C000C4F200034FF018021A7044F28803C4F200034FF017021A8044F28A03C4F200034FF018021A7044F28C03C4F200034FF49C721A8044F28E03C4F200034FF018024F
:400900001A704FF48643C4F200034FF002021A704FF040234FF008021A704FF48443C4F200034FF003021A7044F2A163C4F200034FF48472C4F600121278D2B21A7044F2CF
:400940002223C4F200034FF008021A8044F22023C4F2000341F251221A804FF00003FB704FF019037B6019E0FB784FEA4303DAB244F22523C4F200031B78DBB203F001037C
:40098000DBB21343DBB203F00303FB704FF4F07000F0E6F97B6803F1FF337B607B68002B02D0FB78032BDFD17B68002B03D14FF00300FFF723FF44F20403C4F200034FF467
:4009C00080721A8044F20403C4F200034FF007021A7044F20603C4F200034FF000021A7044F20803C4F200034FF048021A7044F20403C4F200034FF000021A7044F20103D8
:400A0000C4F200034FF002021A7044F2A233C4F2000344F2A232C4F200021278D2B242F00F02D2B21A7007F10807BD4680BD00BF80B483B000AF40F2CF13C4F600131B78BB
:400A4000FB7145F66E03C4F20003FA7902F00702D2B21A7045F66F03C4F20003FA794FEA1212D2B21A7045F23C13C4F200034FF4E1621A804FF4B543C4F200034FF002024F
:400A80001A7045F68B23C4F200034FF001021A7045F69023C4F200034FF020021A7045F69823C4F200034FF010021A704FF4B643C4F200034FF042021A7045F65833C4F2A4
:400AC00000034FF060021A7045F67603C4F200034FF044021A7007F10C07BD4680BC704780B586B000AF72B644F2E863C4F2000344F2E862C4F200021278D2B242F0040251
:400B0000D2B21A704FF00003FB7519E0FA7D13464FEA43039B184FEA430341F6C422C0F200029B183B613B691A683B699B889BB210461946FFF742FEFB7D03F10103FB7556
:400B4000FB7D092BE2D94FF00003FB7523E0FA7D13464FEA83039B184FEA430341F60032C0F200029B18FB60FB681B68BB60FB685B687B60FB681A7A5B7A4FEA03231343EA
:400B80007B807B88B86879681A46FFF727FEFB7D03F10103FB75FB7D022BD8D94FF090404FF09801C4F60001FFF72EFE45F20303C4F2010345F20302C4F201021278D2B2C7
:400BC00042F00202D2B21A7045F21303C4F2010345F21302C4F201021278D2B242F00202D2B21A7044F2A033C4F2000344F2A032C4F200021278D2B242F04002D2B21A7041
:400C000044F2C233C4F2000344F2C232C4F200021278D2B242F01002D2B21A7045F20210C4F2000040F67C51C4F600014FF00802FFF7D4FD45F2C210C4F2000040F68451F7
:400C4000C4F600014FF00802FFF7C8FD45F23210C4F2000040F68C51C4F600014FF00802FFF7BCFD45F24210C4F2000040F69451C4F600014FF00802FFF7B0FD45F2521026
:400C8000C4F2000040F69C51C4F600014FF00802FFF7A4FD45F26010C4F2000040F6A451C4F600014FF00A02FFF798FD44F22233C4F2000344F22232C4F200021278D2B213
:400CC00042F00802D2B21A704FF49043C4F200034FF001021A70FFF7D9FD4FF49043C4F200034FF081021A704FF00403C4F208034FF001021A70FFF79BFE44F2B030C4F2FA
:400D0000000044F2A031C4F200014FF00E02FFF765FD07F11807BD4680BD00BF80B485B000AF0346FB7145F25013C4F200031B78DBB203F07F03FB7345F25013C4F20003C2
:400D4000FA794FEAC212D1B2FA7B0A43D2B21A7007F11407BD4680BC704700BF000000000230800800F0058000BF013800467FF4FCAF7047EFF3108072B6704780F310883A
:400D8000704700BFAFF3008080B582B000AF78600BE048F21C13C1F6FF731B681846FFF7DFFF7B68A3F500437B607B68B3F5004FEFD848F21413C1F6FF731B687A6802FB55
:400DC00003F31846FFF7CCFF07F10807BD4680BD80B500AF48F23C13C1F6FF731B78002B08D100F00BF848F23C13C1F6FF734FF001021A7000F052F880BD00BF80B582B05C
:400E000000AF46F27043C4F200031B78DBB223F03F03FB7146F27043C4F20003FA7942F00902D2B21A7046F29243C4F2000346F29242C4F200021278D2B242F00102D2B2CB
:400E40001A704FF0FF0000F051F84FF0FF0000F06BF84FF07F0000F077F84FF0000000F083F8FFF787FF0346BB7146F29243C4F2000346F29242C4F200021278D2B242F05E
:400E80001002D2B21A70BB791846FFF777FF00F03DF807F10807BD4680BD00BF80B400AF46F27043C4F2000346F27042C4F200021278D2B262F07F02D2B21A70BD4680BC92
:400EC000704700BF80B400AF46F27043C4F2000346F27042C4F200021278D2B202F07F02D2B21A70BD4680BC704700BF80B483B000AF0346FB7146F20243C4F20003FA799B
:400F00001A7007F10C07BD4680BC704780B500AF01E000F049F800F037F8034603F01003002BF6D180BD00BF80B483B000AF0346FB7146F24243C4F20003FA791A7007F19E
:400F40000C07BD4680BC704780B483B000AF0346FB7146F22243C4F20003FA791A7007F10C07BD4680BC704780B483B000AF0346FB7146F28243C4F20003FA791A7007F1D3
:400F80000C07BD4680BC704780B483B000AF46F26243C4F200031B78FB71FB79184607F10C07BD4680BC704780B400AF46F25243C4F200031B78DBB21846BD4680BC7047CD
:400FC00080B400AF4FF46143CEF200034FF004021A60BD4680BC704780B400AF4EF28013CEF200034FF004021A60BD4680BC704780B582B000AFFFF7EFFF48F23E13C1F645
:40100000FF731B78BB7148F23F13C1F6FF731B787B7148F24013C1F6FF731B78DBB2002B03D1BA797B799A4234D0BA7948F26813C1F6FF739B5CFB71BB7903F10103BB71A3
:40104000BB790F2B02D94FF00003BB7148F23E13C1F6FF73BA791A7048F24013C1F6FF731B78DBB2002B1BD048F24013C1F6FF734FF000021A7046F28143C4F2000346F2EE
:401080008142C4F200021278D2B242F02002D2B21A7005E046F24F43C4F200031B78FB71FFF78EFFFB79184607F10807BD4680BD80B582B000AF786000F042F8786800F05A
:4010C0000BF84FF0070000F01BF800F02DF807F10807BD4680BD00BF80B485B000AF78604EF60853CEF200031B68FB60FB6803F14C037A681A6007F11407BD4680BC70474E
:4011000080B483B000AF0346FB714EF20343CEF20003FA794FEA4212D2B21A7007F10C07BD4680BC704700BF80B400AF4FF46143CEF200034FF008021A60BD4680BC704787
:4011400080B400AF4EF28013CEF200034FF008021A60BD4680BC704780B500AF45F62C03C4F200034FF000021A7045F62D03C4F200034FF000021A704FF0040000F06CF8E5
:401180004FF0000000F03EF880BD00BF80B400AF44F2A833C4F2000344F2A832C4F200021278D2B242F00802D2B21A7044F2B833C4F2000344F2B832C4F200021278D2B241
:4011C00042F00802D2B21A70BD4680BC704700BF80B500AF48F24213C1F6FF731B78002B08D1FFF7B9FF48F24213C1F6FF734FF001021A70FFF7CAFF4FF0640000F056F8EB
:4012000080BD00BF80B483B000AF0346FB7145F62C03C4F2000345F62C02C4F200021278D2B222F00202D2B21A7045F62C03C4F2000345F62C02C4F200021278D1B2FA79AD
:4012400002F00202D2B20A43D2B21A7007F10C07BD4680BC704700BF80B582B000AF0346FB7145F62C03C4F2000345F62C02C4F200021278D2B222F00C02D2B21A7045F653
:401280002C03C4F2000345F62C02C4F200021278D1B2FA7902F00C02D2B20A43D2B21A7000F014F807F10807BD4680BD80B483B000AF0346FB7145F68333C4F20003FA799B
:4012C0001A7007F10C07BD4680BC704780B483B000AF45F62C03C4F200031B78DBB203F00C034FEA9303DBB203F10603FB7144F20B63C4F20003FA7902F1924202F59C72A7
:401300001278D2B21A7007F10C07BD4680BC704780B500AF45F62803C4F200034FF000021A7045F62903C4F200034FF000021A704FF0040000F06CF84FF0000000F03EF85F
:4013400080BD00BF80B400AF44F2A833C4F2000344F2A832C4F200021278D2B242F00402D2B21A7044F2B833C4F2000344F2B832C4F200021278D2B242F00402D2B21A70A2
:40138000BD4680BC704700BF80B500AF48F24313C1F6FF731B78002B08D1FFF7B9FF48F24313C1F6FF734FF001021A70FFF7CAFF4FF0640000F056F880BD00BF80B483B00E
:4013C00000AF0346FB7145F62803C4F2000345F62802C4F200021278D2B222F00202D2B21A7045F62803C4F2000345F62802C4F200021278D1B2FA7902F00202D2B20A4398
:40140000D2B21A7007F10C07BD4680BC704700BF80B582B000AF0346FB7145F62803C4F2000345F62802C4F200021278D2B222F00C02D2B21A7045F62803C4F2000345F641
:401440002802C4F200021278D1B2FA7902F00C02D2B20A43D2B21A7000F014F807F10807BD4680BD80B483B000AF0346FB7145F68233C4F20003FA791A7007F10C07BD4669
:4014800080BC704780B483B000AF45F62803C4F200031B78DBB203F00C034FEA9303DBB203F10603FB7144F20A63C4F20003FA7902F1924202F594721278D2B21A7007F1FA
:4014C0000C07BD4680BC704780B500AF45F62003C4F200034FF000021A7045F62103C4F200034FF000021A704FF0040000F06CF84FF0000000F03EF880BD00BF80B400AF5F
:4015000044F2A833C4F2000344F2A832C4F200021278D2B242F00102D2B21A7044F2B833C4F2000344F2B832C4F200021278D2B242F00102D2B21A70BD4680BC704700BF10
:4015400080B500AF48F24413C1F6FF731B78002B08D1FFF7B9FF48F24413C1F6FF734FF001021A70FFF7CAFF4FF0640000F056F880BD00BF80B483B000AF0346FB7145F660
:401580002003C4F2000345F62002C4F200021278D2B222F00202D2B21A7045F62003C4F2000345F62002C4F200021278D1B2FA7902F00202D2B20A43D2B21A7007F10C077C
:4015C000BD4680BC704700BF80B582B000AF0346FB7145F62003C4F2000345F62002C4F200021278D2B222F00C02D2B21A7045F62003C4F2000345F62002C4F2000212784D
:40160000D1B2FA7902F00C02D2B20A43D2B21A7000F014F807F10807BD4680BD80B483B000AF0346FB714FF4B743C4F20003FA791A7007F10C07BD4680BC704780B483B06C
:4016400000AF45F62003C4F200031B78DBB203F00C034FEA9303DBB203F10603FB7144F20863C4F20003FA7902F1924202F590721278D2B21A7007F10C07BD4680BC704797
:4016800080B500AF45F62403C4F200034FF000021A7045F62503C4F200034FF000021A704FF0040000F06CF84FF0000000F03EF880BD00BF80B400AF44F2A833C4F20003D4
:4016C00044F2A832C4F200021278D2B242F00202D2B21A7044F2B833C4F2000344F2B832C4F200021278D2B242F00202D2B21A70BD4680BC704700BF80B500AF48F24513A1
:40170000C1F6FF731B78002B08D1FFF7B9FF48F24513C1F6FF734FF001021A70FFF7CAFF4FF0640000F056F880BD00BF80B483B000AF0346FB7145F62403C4F2000345F6F7
:401740002402C4F200021278D2B222F00202D2B21A7045F62403C4F2000345F62402C4F200021278D1B2FA7902F00202D2B20A43D2B21A7007F10C07BD4680BC704700BF10
:4017800080B582B000AF0346FB7145F62403C4F2000345F62402C4F200021278D2B222F00C02D2B21A7045F62403C4F2000345F62402C4F200021278D1B2FA7902F00C023A
:4017C000D2B20A43D2B21A7000F014F807F10807BD4680BD80B483B000AF0346FB7145F68133C4F20003FA791A7007F10C07BD4680BC704780B483B000AF45F62403C4F228
:4018000000031B78DBB203F00C034FEA9303DBB203F10603FB7144F20963C4F20003FA7902F1924202F598721278D2B21A7007F10C07BD4680BC704780B485B000AF03462E
:40184000FB7145F23013C4F200031B78DBB223F01003FB7345F23013C4F20003FA794FEA0212D2B202F01002D1B2FA7B0A43D2B21A7007F11407BD4680BC704780B485B0D5
:4018800000AF0346FB7145F23013C4F200031B78DBB223F02003FB7345F23013C4F20003FA794FEA4212D2B202F02002D1B2FA7B0A43D2B21A7007F11407BD4680BC7047A6
:4018C00080B485B000AF0346FB7145F23013C4F200031B78DBB223F04003FB7345F23013C4F20003FA794FEA8212D2B202F04002D1B2FA7B0A43D2B21A7007F11407BD4670
:4019000080BC704780B485B000AF0346FB7145F23013C4F200031B78DBB203F07F03FB7345F23013C4F20003FA794FEAC212D1B2FA7B0A43D2B21A7007F11407BD4680BC59
:40194000704700BF80B485B000AF0346FB714FF4A243C4F200031B78DBB223F01003FB734FF4A243C4F20003FA794FEA0212D2B202F01002D1B2FA7B0A43D2B21A7007F11B
:401980001407BD4680BC704780B485B000AF0346FB714FF4A243C4F200031B78DBB223F02003FB734FF4A243C4F20003FA794FEA4212D2B202F02002D1B2FA7B0A43D2B262
:4019C0001A7007F11407BD4680BC704780B485B000AF0346FB714FF4A243C4F200031B78DBB223F04003FB734FF4A243C4F20003FA794FEA8212D2B202F04002D1B2FA7BF1
:401A00000A43D2B21A7007F11407BD4680BC704780B485B000AF0346FB714FF4A243C4F200031B78DBB203F07F03FB734FF4A243C4F20003FA794FEAC212D1B2FA7B0A43EB
:401A4000D2B21A7007F11407BD4680BC704700BF38B50E4D0E4B0024E81A8510AC4205D00B4951F8242090470134F7E700F058F80849094A541AA5100024AC4205D0054B68
:401A800053F8240080470134F7E738BD2C1B00002C1B00002C1B0000341B000010B50023934203D0CC5CC4540133F9E710BD82180346934202D003F8011BFAE770470000DA
:401AC00000000000C84900401900105100402000F05100401000000001408006000701408007000F0140000100140140000800400140000A004C014000020050014020001B
:401B000060520040740C00480600800601407C0C00488000800E0140FC0C004880000000F8B500BFF8BC08BC9E4670475100000009070000F8B500BFF8BC08BC9E467047D0
:401B40002D000000581B00000881FF1F180000005800000000000000000000007F00000000366E01C05D0000180000000000E02E0000000000000000000000000000000047
:401B80000000000000000000000000000000000000000000000000000000000000000000000000000000000000000000000000000000000000000000000000000000000025
:401BC00000000000000000000000000000000000000000000000000000000000000000000000000000000000000000000000000000000000000000000000000000000000E5
:401C000000000000000000000000000000000000000000000000000000000000000000000000000000000000000000000000000000000000000000000000000000000000A4
:401C40000000000000000000000000000000000000000000000000000000000000000000000000000000000000000000000000000000000000000000000000000000000064
:020000040003F7
:0200000480007A
:40000000075200400764004002650040500001403B01014061020140520301401B0501400706014053070140500801404D0901405A0A01404D0B0140630C0140560D014081
:40004000200E0140360F0140101501401C170140661801404A190140511A01404E1B0140074001400941014003420140044301400F4401400B45014002460140024701409F
:4000800001480140024901400A4C0140124D01400750014002510140040F210129202C3030813103342327042C042D0F3D088138822D8372290F3908000803040473054034
:4000C000060C081F09240A600C030DFF111C13E214011518180419081C5C1E231F63216022632402251C27E1280C29E72B182C7F2D103010311F322C3380340F3560364C5A
:4001000039083A283B023E015280580459045B045C335D205F018004820A8707880E8C028E109402961C99019E01A006A208A601A80EAC0CAE02AF0CB001B104B21EB302AE
:40014000B508B701BA08BE01D418D604D804D904DB04DC21DD30DF0101800260032804200602074009200A020B100C040E1110401144120813201491160419161A011B2803
:400180001E101F012028220125012640271429542A402B402E403040312032093710388239443B103F085F026408678272408220840C85048A018C41C0DFC2A7C4FFCA1FC4
:4001C000CC2FCE4FD680D8B0E008E401E60A0004023808100A040C4010101206140716081E0120142202241628162C072E20303C344036033A023E104030410545D0460205
:400200004701481649FF4AFF4BFF4DA04F045018542558045A045B045C015D225F01604062C06440654066C068C06AC06CC06EC080CC81C082138307844D85018692880245
:4002400089018CA98D3A8E548F049103920195229602970598A599019A4A9CFF9D109F07A1FFA204A404A508A707A81AA903AA60AD05AEB5AF78B17FB580B6FFB920BE40DA
:40028000BF01D602D713D804D904DB04DD30DF010048012002800320041005010702084009400A080B580C010E010F20108412011304148016261B801D111E031F022101FA
:4002C0002210284029202A402B203286331038403A013B1447044F81574459025E805F09651069146A407160732080108224880489508A408E419420954099029B049C81FE
:400300009D409E069F60A010A240A520A704A981AB40AC04AF42B050B310C0DFC2BFC4FFCA0FCC0FCE0FD040D210D6D1D820E205E602EA048A028F109102922094409540E7
:40034000975C98409C849D209E039F12A380A484A682A710A810AB40AC01AD04AF02B010B748E808EA02EC02EE012A0132013980580459045C215F01012002C10310084043
:4003800009080A800B081004110113841608184019401A801B081E1022212702284029202A402B2030843211384039023B28400443084A0151085320580159805B24615031
:4003C000638069206B107080735478047A208140824083408510878089018B108F0891029220944095409610975C98409A089C049D209E019F12A380A484A682A880AE08AC
:40040000B610C00FC20FC44FCA0FCC0FCE0FD006D208D60FD80DE002E409E604EE03010402B503E00402050108CC09010A130CFF0F0211401204131D141A1660170818A9B1
:40044000195D1A541BA21CA51DE21E4A204D229223FF240425922760293D2A022BC22D0D2E0132FF37FF3A203E043F4052F6580459045B045C035D105F01802A82548433DD
:40048000860C892A8B548E0191FF940E9630984699469AA99BA99C809D0E9E569F30A040A180A213A356A701A940AB13ACFFAD33AF0CB4FFB5FFD804D904DC01DF010002A0
:4004C000014003100566060108400A140C100E100F8212011302176619201A041C101F20211022302701280229012A042B082C402D422E14300132503410354436813712B1
:4005000039103C823E283F826C086D0474407628776480028320850886048B408F1091409210941095049604980199069B109D209E089F21A281A301A408A508A740AA01D3
:40054000AE01B510B680C0FDC2F7C4F9CAFFCCFDCEF4E010E480EC1003130501071A09120A400B010C050D010E100F061015122813131419152018051A081C201D011E1448
:400580001F04200122082402283C2C042E092F13307C3107330834033510372038203B023E103F10580459045C115F0180908108820B830784018501884089058A0B8B7847
:4005C0008C428D3A8E098F049040912292149305944F9503980399019C489DFF9E02A01FA1C0A307A501A601A801A910AB07AC03AD03AE20B01FB2E0B580B77FB808B920EE
:40060000BE04BF40D804D904DC11DF010090048005220720084009040A940E9A0F0111501220130114801544160A188019111A801B011C801E801F0A204022802314261068
:4006400027022A802C402D66300832813480350536843720384239083B103C803D803E183F0189108A808F5A9002910892029301951096849704980199069A029D109F430D
:40068000A104A220A440A558A610A742A804AA40AD01AE05B240C0F3C2FFC4FFCAF8CCFBCEFFE290EC80012A020203100506093F0D220E011340151C172219011B1E1D01FE
:4006C0001E02212223182532270829042D182F06300132023360371F39803E044016440346B047D0482849FF4A7F4BFF4C424DA04E70500C54205604580459045A045B0498
:400700005C135D115F0161096240630964306509800F860F8C208E429208941095019A089C0FA204A420A641AA8FAC10B010B101B20FB470B680B822BE15C046C505C7200A
:40074000C821C9FFCAFFCBFFCC42CDA0CE70D008D110D804D904DA04DC01DD01DF01E148E240E348E480E548E680E748008401020202058006400A960B800C810D021002C6
:40078000112A130118021A501B101F05210225042648271029042A082E242F42310836583702380839043D123E083F8042404744482049104F20500256225C905E015F087A
:4007C00064026744820283108740890A8A408C90901491089202942095169694970A980299869B0C9D089F51A080A101A220A422A540AA40B182B218B520C09DC28FC40F35
:40080000CAF0CCF2CEF0D051D224D6F0D8B0E090E440E620EAA0EE80008004100501060107020A800C040E081101120813061440162017081A181C101E022214240F28FF35
:400840002C403040310432803308343F35033822580459045C115F01004003580420058809400A940E48102211121502184419061B081D881E681F10210422212410250140
:40088000260827062D26310233043608371138043D923E04458846404E024F20548056085C025F028310871C8A408C048E028F01C0EFC25FC41FCAE0CCE3CEF2D0D0D2302C
:4008C000E240E490818087208D109D909F20A920AA01AC04AE40AF10B001B220B704E206EA05EE035E805F8080048201860187048B0492029304940497289C019DB09E01EA
:400900009FA4A220A404A601A908AAA2AC80E002E204E402E601E809EC01EE04015D021003A20405050D06300A400B020E800FFF1101148115401602171D180119921A0E48
:400940001B601C041E011F082081210122282405253D261027C2280429042A012BE02C052DE22E103270340F35FF36803A283F10580459045F018009840285018604872271
:4009800089218B028C088D0F90029140920497109D259F0AA108A305A409A526A920AB02AD21AE10AF04B008B160B210B407B601B71FB8A2B902BE50BF01C054C502C605EB
:4009C000C805C9FFCAFFCBFFCC42CDA0CE70D008D110D804D904DA04DF01E148E240E348E480E548E680E748000A0140021005450708080209010C800E040F20102214026B
:400A00001520169019A11A501D441E061F08210122C02708280229012A082B082C012D502E882F403080324535443620370139603A043B043C203D023E403F044101482006
:400A40004980514080128120870189108A80912092089380951098039A049D01A010A220A310A708AA54AC10C0FDC2E8C4F5CAFFCCFBCEFED001D208E280E402021305F0DD
:400A8000061307010B801102130C1401161A17F0181219021A011BF41C011E061F8021F027102A332B402C012E042F20302031063210330134083508360737F03A803E0429
:400AC0003F40580459045F018004820885028608878189088A948B708D018E208F069240930394C0951B9720989099389A019B039D109F2BA0FFA490A538A602A703A9330E
:400B0000AA98AB08AC0FAD09AF44B0C0B380B43FB578B707B820BBA0D804D904DF01000401020408052107020A150C100E400F201001120815A4168019021A051B041D1015
:400B40001E40200621082209230224202550281229212A082B082C012D042E20300231183240341035053680380439203A203DA8811082408402854488028C048D048E401A
:400B80008F0491A0929094209602980399059A88A280A318A401A510A901AA01AF08B004B20CB510C0FCC277C4F3CA7FCCFFCE76E240E404E820EA01EE303220330236084A
:400BC00037105B40CCF0D48086209F10A620AB40AE08AF02E640EA10EE803E109F10CE20831096109F10E220022006100C041010150150025C025F408C02C00CC204C40C76
:400C0000D401D605E4028B40910197409810B006B210B620E004E804EA08EE0591019810910198109610AA10EA8010401320148078107D01860191019810C40EDE030A4026
:400C40000C045A02630878407C80830488048E40920298C0AB20C20CD602D802DC01DE04E603000F080F0A070C0B0E0B10011C0100FF03C0203000003000000040000B40C7
:400C800000220118032A001090180B0640011400031C20224201091E1F220000013F0000010400004F060000483202081F1FE00000604000880200000000440035000000C3
:400CC0000200B00D18FF7FFF42A070000C00F60020000400040404040000000100094009300900000000000000000000000000000000000000000000000000000043001831
:400D00009F430000800100140A40510B01002620000100061440490B000000009F00000B00400003000200810000000007388007188060400080000A0000404063050400BC
:400D400001000E0C14FFFFFF62A0F0410C00000000000000040404001303000100000000000040020010301000101012000000000000000000000000000000000FF0F00032
:400D8000000000000080B0003000000000F0F00000000F00000101000100000000C0F000300000000300208380008300000000000000000000000000000000000000000058
:400DC00000000000000000000000000000000000000000000000000000000000000000000000000000000000000000000000000000000000000000000000000000000000F3
:400E000000000000000000000000000000000000000000000000000000000000000000000000000000000000000000000000000000000000000000000000000000000000B2
:400E40000000000000000000000000000000000000000000000000000000000000000000000000000000000000000000000000000000000000000000000000000000000072
:400E80000000000000000000000000000000000000000000000000000000000000000000000000000000000000000000000000000000000000000000000000000000000032
:0200000490006A
:0400000000004005B7
:0200000490105A
:04000000BC90ACAF55
:0200000490303A
:02000000565256
:0200000490402A
:4000000000000000000000000000000000000000000000000000000000000000000000000000000000000000000000000000000000000000000000000000000000000000C0
:400040000000000000000000000000000000000000000000000000000000000000000000000000000000000000000000000000000000000000000000000000000000000080
:400080000000000000000000000000000000000000000000000000000000000000000000000000000000000000000000000000000000000000000000000000000000000040
:4000C0000000000000000000000000000000000000000000000000000000000000000000000000000000000000000000000000000000000000000000000000000000000000
:0200000490501A
:0C00000000012E12306900012E2286BB88
:00000001FF