:400000000080002011000000850E0000850E000080B500AF47F2BC63C4F2000344F2FA62C4F2000212681A6000F030FF10B5054C237833B9044810B10448AFF3008001215D
:40004000217010BDE881FF1F00000000A82A000008B5064B1BB106480649AFF300800648016811B1054A02B1904708BD00000000A82A0000EC81FF1F0881FF1F0000000015
:4000800080B483B000AF03463960FB7197F90730002B10DA4FF46D43CEF20003FA7902F00F02A2F104013A68D2B24FEA4212D2B25B181A760DE04FF46143CEF2000397F9DB
:4000C00007103A68D2B24FEA4212D2B25B1883F8002307F10C07BD4680BC704780B582B000AF78607B6803F1FF326FF07F439A4202D94FF001031DE04EF21003CEF200037C
:400100007A6802F1FF325A604FF0FF304FF00701FFF7B6FF4EF21003CEF200034FF000029A604EF21003CEF200034FF007021A604FF00003184607F10807BD4680BD00BFD0
:4001400080B500AF4FF00C0000F08EF848F20423C1F6FF734FF001021A7080BD80B582B000AF02460B46FA71BB71FB79032B2BD801A252F823F000BF890100009901000079
:40018000A9010000B9010000BB79A3F18003DBB2184600F069F818E0BB79A3F14003DBB2184600F061F810E0BB79A3F16C03DBB2184600F059F808E0BB79A3F12C03DBB25E
:4001C000184600F051F800E000BF07F10807BD4680BD00BF80B584B000AF78604FF00103FB737B681B78BB730CE0BB7B184600F01FF8FB7B7A68D3181B78BB73FB7B03F189
:400200000103FB73BB7B002BEFD107F11007BD4680BD00BF80B582B000AF0346FB71FB79184600F005F807F10807BD4680BD00BF80B584B000AF0346FB7100F031F8FB7933
:400240004FEA1313FB73FB7B184600F02DF9FB7903F00F03FB73FB7B184600F025F907F11007BD4680BD00BF80B584B000AF0346FB7100F015F8FB794FEA1313FB73FB7B6F
:40028000184600F06BF9FB7903F00F03FB73FB7B184600F063F907F11007BD4680BD00BF80B582B000AF4FF4A243C4F200034FF4A242C4F200021278D2B222F07F02D2B27C
:4002C0001A7045F20213C4F200031B78DBB223F00F03FB7145F20213C4F20003FA7942F00F02D2B21A7045F20313C4F200031B78DBB223F00F03FB7145F20313C4F2000338
:40030000FA791A7045F20413C4F200031B78DBB223F00F03FB7145F20413C4F20003FA791A704FF4A243C4F200034FF4A242C4F200021278D2B222F02002D2B21A704FF4B1
:40034000A243C4F200034FF4A242C4F200021278D2B242F04002D2B21A704FF0000002F00BF84FF4A243C4F200034FF4A242C4F200021278D2B242F01002D2B21A704FF0DD
:40038000010001F0F9FF45F20113C4F200031B78FB714FF4A243C4F200034FF4A242C4F200021278D2B222F01002D2B21A704FF0000001F0E1FFFB7903F00803FB714FF41F
:4003C000A243C4F200034FF4A242C4F200021278D2B242F01002D2B21A704FF0010001F0CBFF4FF4A243C4F200034FF4A242C4F200021278D2B222F01002D2B21A70FB79B1
:40040000002BAAD14FF4A243C4F200034FF4A242C4F200021278D2B222F04002D2B21A704FF4A243C4F200034FF4A242C4F200021278D2B222F07F02D2B21A7045F202132B
:40044000C4F2000345F20212C4F200021278D2B222F00F02D2B21A7045F20313C4F200031B78DBB223F00F03FB7145F20313C4F20003FA7942F00F02D2B21A7045F20413B2
:40048000C4F200031B78DBB223F00F03FB7145F20413C4F20003FA7942F00F02D2B21A7007F10807BD4680BD80B582B000AF0346FB714FF4A243C4F200034FF4A242C4F237
:4004C00000021278D2B242F02002D2B21A704FF4A243C4F200034FF4A242C4F200021278D2B222F04002D2B21A704FF0000001F043FF4FF4A243C4F200034FF4A242C4F22A
:4005000000021278D2B222F00F02D2B21A704FF4A243C4F200034FF4A242C4F200021278D1B2FA790A43D2B242F01002D2B21A704FF0010001F020FF4FF4A243C4F20003E6
:400540004FF4A242C4F200021278D2B222F01002D2B21A7007F10807BD4680BD80B582B000AF0346FB714FF4A243C4F200034FF4A242C4F200021278D2B222F06002D2B284
:400580001A704FF4A243C4F200034FF4A242C4F200021278D2B222F00F02D2B21A704FF4A243C4F200034FF4A242C4F200021278D1B2FA790A43D2B242F01002D2B21A704F
:4005C0004FF0010001F0D8FE4FF4A243C4F200034FF4A242C4F200021278D2B222F01002D2B21A7007F10807BD4680BD80B582B000AF0346FB71FB794FEA1313DBB21A4622
:4006000042F60043C0F200039B5C1846FFF702FEFB7903F00F0242F60043C0F200039B5C1846FFF7F7FD07F10807BD4680BD00BF80B500AF48F22223C1F6FF731B8803F12F
:4006400001039AB248F22223C1F6FF731A8048F22223C1F6FF731B88642B11D900F08EFF0346002B14BF00230123DBB2184600F063FF48F22223C1F6FF734FF000021A8059
:400680004FF000004FF0010101F06AFB4FF0000001F01AFC03461A4648F20C13C1F6FF731A7001F0D7FB4FF001004FF00001FFF755FD48F20C13C1F6FF731B781846FFF775
:4006C00095FF4FF001004FF0010101F049FB4FF0000001F0F9FB03461A4648F20C13C1F6FF731A7001F0B6FB4FF001004FF00301FFF734FD48F20C13C1F6FF731B78184618
:40070000FFF774FF4FF003004FF0010101F028FB4FF0000001F0D8FB03461A4648F20C13C1F6FF731A7001F095FB4FF001004FF00601FFF713FD48F20C13C1F6FF731B78DF
:400740001846FFF753FF80BD80B400AF48F20823C1F6FF731B6803F1010248F20823C1F6FF731A60BD4680BC704700BF80B500AF48F23423C1F6FF73DA7948F23423C1F6B5
:40078000FF731A7248F23423C1F6FF739A7948F23423C1F6FF73DA7148F23423C1F6FF735A7948F23423C1F6FF739A7148F23423C1F6FF731A7948F23423C1F6FF735A7145
:4007C00048F23423C1F6FF73DA7848F23423C1F6FF731A7148F23423C1F6FF739A7848F23423C1F6FF73DA7048F23423C1F6FF735A7848F23423C1F6FF739A7000F04AFF4F
:4008000003461A4648F23423C1F6FF735A7048F23423C1F6FF731B7A802B40F0CA8048F23423C1F6FF739A7848F23423C1F6FF73DB78D318DAB248F23423C1F6FF731B7979
:40084000D318DAB248F23423C1F6FF735B79D318DAB248F23423C1F6FF739B79D318DAB248F23423C1F6FF73DB79D318DAB248F20D23C1F6FF731A7048F20D23C1F6FF7382
:400880001B7803F07F03DAB248F20D23C1F6FF731A7048F23423C1F6FF735A7848F24623C1F6FF731A7048F23423C1F6FF739A7848F21823C1F6FF73DA7048F23423C1F6A9
:4008C000FF73DA7848F21823C1F6FF739A7048F23423C1F6FF731A7948F21823C1F6FF735A7048F23423C1F6FF735A7948F21823C1F6FF731A7048F23423C1F6FF73DA7915
:4009000048F24C23C1F6FF731A7048F23423C1F6FF739A7948F24823C1F6FF731A7048F23423C1F6FF73DB7903F00203002B1BD048F20E23C1F6FF731B78002B07D148F2B6
:400940000E23C1F6FF734FF004021A700CE048F20E23C1F6FF731B7803F1FF33DAB248F20E23C1F6FF731A7048F23423C1F6FF73DB7903F00803002B1BD048F20E23C1F627
:40098000FF731B78042B07D148F20E23C1F6FF734FF000021A700CE048F20E23C1F6FF731B7803F10103DAB248F20E23C1F6FF731A7080BD80B485B000AF786048F2082385
:4009C000C1F6FF731B68FB6000BF48F20823C1F6FF731A68FB68D21A7B689A42F5D307F11407BD4680BC704780B500AF01F010FB4FF07F0001F0C8FB4FF03200FFF7DAFFB0
:400A00004FF0000001F0C0FB01F07CFB80BD00BF80B500AF4FF4FA7001F08AFC4FF00200FFF79CFD4FF00200FFF798FD4FF00000FFF794FD4FF00000FFF790FD4FF00800F4
:400A4000FFF78CFD4FF0320001F072FC4FF01300FFF70AFC4FF0320001F06AFC4FF00000FFF77CFD4FF0320001F062FC4FF00000FFF774FD4FF00000FFF770FD4FF000001C
:400A8000FFF76CFD4FF00000FFF768FD4FF00000FFF764FD4FF02000FFF7E6FB4FF02800FFF7E2FB4FF00B00FFF7DEFB4FF00600FFF7DAFB4FF00100FFF7D6FB4FF01400B4
:400AC00001F036FC4FF00200FFF7CEFB4FF0640001F02EFC4FF01700FFF7C6FB4FF0320001F026FC4FF00F00FFF7BEFB4FF00C00FFF7BAFB80BD00BF80B500AF48F205234F
:400B0000C1F6FF731B78002B08D1FFF781FF48F20523C1F6FF734FF001021A70FFF710FB80BD00BF80B500AFFFF75EFFFFF7E4FF00F036FD4FF000004FF00001FFF70EFB7A
:400B400042F6D030C0F20000FFF744FB4FF001004FF00001FFF702FB42F6E830C0F20000FFF738FB80BD00BF80B584B000AF0346FB80B7F90630002B03D14FF00003FB813D
:400B800022E0B7F9063013F1FF0F02DA4FF60173FB80B7F90630FF2B02DD4FF0FF03FB80B7F90630002B09DA4FF0010001F0BEFEFB88C3F100039BB2FB8105E04FF0000078
:400BC00001F0B4FEFB88FB81FB89DBB2184601F061FE07F11007BD4680BD00BF80B584B000AF0346FB80B7F90630002B03D14FF00003FB8122E0B7F9063013F1FF0F02DA31
:400C00004FF60173FB80B7F90630FF2B02DD4FF0FF03FB80B7F90630002B09DA4FF0010001F0A6FEFB88C3F100039BB2FB8105E04FF0000001F09CFEFB88FB81FB89DBB24A
:400C4000184601F037FE07F11007BD4680BD00BF80B584B000AF0346FB80B7F90630002B03D14FF00003FB8122E0B7F9063013F1FF0F02DA4FF60173FB80B7F90630FF2B49
:400C800002DD4FF0FF03FB80B7F90630002B09DA4FF0000001F08EFEFB88C3F100039BB2FB8105E04FF0010001F084FEFB88FB81FB89DBB2184601F0F5FC07F11007BD46EC
:400CC00080BD00BF80B584B000AF0346FB80B7F90630002B03D14FF00003FB8122E0B7F9063013F1FF0F02DA4FF60173FB80B7F90630FF2B02DD4FF0FF03FB80B7F90630DE
:400D0000002B09DA4FF0000001F076FEFB88C3F100039BB2FB8105E04FF0010001F06CFEFB88FB81FB89DBB2184601F0CBFC07F11007BD4680BD00BF80B582B000AF4FF0F5
:400D40000F0040F24971C0F2000101F029FB40F26D70C0F2000001F053FA40F23160C0F2000001F09FFB4FF4E870C0F20100FFF7B5F962B601F080FA01F0D0FB00F008FD8B
:400D800000F0DAFCFFF730FE01F0E0FB01F0D6FCFFF7C8FE4FF06400FFF70CFE4FF00200FFF762FA48F21823C1F6FF735B78002B03D14FF04003FB8005E048F21823C1F64A
:400DC000FF735B78FB8048F21823C1F6FF731B78002B03D14FF04003BB8005E048F21823C1F6FF731B78BB8048F21823C1F6FF739B78002B03D14FF040037B8005E048F2A9
:400E00001823C1F6FF739B787B80FA88BB88D3189AB27B88D3189BB2A3F1C0039BB29BB21BB21846FFF7A0FEFA88BB88D31A9AB27B88D3189BB2A3F140039BB29BB21BB2E2
:400E40001846FFF7CBFEFA88BB88D31A9AB27B88D31A9BB203F140039BB29BB21BB21846FFF7F6FEFA88BB88D3189AB27B88D31A9BB2A3F140039BB29BB21BB21846FFF769
:400E800021FF8FE780B400AFFEE700BF80B586B000AF40F20103C0F200037B6142F66C43C0F200033B6140F20103C0F200037B6142F66C43C0F200033B613BE03B691B68BB
:400EC000FB603B695B68BB603B699B683B604FF000037B600FE0FB681A68BB681A60BB6803F10403BB60FB6803F10403FB607B6803F104037B607A683B689A42EBD13B69D9
:400F0000DB683B604FF000037B600BE0BB684FF000021A60BB6803F10403BB607B6803F104037B607A683B689A42EFD13B6903F110033B617B69002B0CBF00230123DBB2E5
:400F40007A6902F1FF327A61002BB7D101F074FDFFF7F2FEFEE700BF80B582B000AF4EF60C53CEF200034FF48062C0F2FA521A604EF61453CEF200034EF61452CEF20002FD
:400F8000126842F400721A604FF000037B6019E07B68032B07D840F20003C0F200037A6853F8223003E040F68563C0F2000348F20002C1F6FF72796842F821307B6803F1C9
:400FC00001037B607B682F2BE2D947F2BC63C4F200031B78DAB248F20413C1F6FF731A704EF60853CEF2000348F20002C1F6FF721A6000F06DF948F20013C1F6FF734FF09B
:4010000000021A6007F10807BD4680BD80B582B000AF7860396078684FF000013A6801F03AFD07F10807BD4680BD00BF80B584B000AFF860B9607A60F868B9687A6801F0BF
:4010400021FD07F11007BD4680BD00BF80B483B000AF0346FB71FEE780B487B000AF786039604FF000033B614FF000037B612CE07B694FEA83037A68D3181B68BB60BB68D0
:40108000FB73BB6823F0FF03BB6017E03B694FEA43033A68D3181B781A46BB68D3183A694FEA420239688A1852781A703B6903F101033B61FB7B03F1FF33FB73FB7B002B2D
:4010C000E4D17B6903F101037B617B691C2BCFD907F11C07BD4680BC704700BF80B582B000AF4FF48143C4F200034FF005021A8044F28203C4F200034FF018021A7044F29D
:401100008403C4F200034FF041021A8044F28603C4F200034FF018021A7044F28803C4F2000340F25A321A8044F28A03C4F200034FF018021A7044F28C03C4F2000347F210
:401140002F521A8044F28E03C4F200034FF019021A704FF48643C4F200034FF002021A704FF040234FF008021A704FF48443C4F200034FF003021A7044F2A163C4F2000365
:401180004FF48472C4F600121278D2B21A7044F22223C4F2000340F242221A8044F22023C4F2000341F251221A804FF00003FB704FF019037B6019E0FB784FEA4303DAB262
:4011C00044F22523C4F200031B78DBB203F00103DBB21343DBB203F00303FB704FF4F07001F086F87B6803F1FF337B607B68002B02D0FB78032BDFD17B68002B03D14FF085
:401200000300FFF723FF44F20403C4F200034FF480721A8044F20403C4F200034FF007021A7044F20603C4F200034FF000021A7044F20803C4F200034FF048021A7044F200
:401240000403C4F200034FF000021A7044F20103C4F200034FF002021A7044F2A233C4F2000344F2A232C4F200021278D2B242F00F02D2B21A7007F10807BD4680BD00BF38
:4012800080B483B000AF40F2CF13C4F600131B78FB7145F66E03C4F20003FA7902F00702D2B21A7045F66F03C4F20003FA794FEA1212D2B21A7045F67603C4F200034FF067
:4012C00044021A7007F10C07BD4680BC704700BF80B586B000AF72B64FF49043C4F200034FF001021A70FFF7F9FE44F2E863C4F2000344F2E862C4F200021278D2B242F0E2
:401300000402D2B21A704FF00003FB7519E0FA7D13464FEA43039B184FEA430342F61042C0F200029B183B613B691A683B699B889BB210461946FFF769FEFB7D03F1010324
:40134000FB75FB7D062BE2D94FF00003FB7523E0FA7D13464FEA83039B184FEA430342F63C42C0F200029B18FB60FB681B68BB60FB685B687B60FB681A7A5B7A4FEA03237E
:4013800013437B807B88B86879681A46FFF74EFEFB7D03F10103FB75FB7D002BD8D04FF090404FF07401C4F60001FFF755FE45F20303C4F2010345F20302C4F201021278CE
:4013C000D2B242F00202D2B21A7045F21303C4F2010345F21302C4F201021278D2B242F00202D2B21A7044F2A033C4F2000344F2A032C4F200021278D2B242F04002D2B23F
:401400001A7044F2C233C4F2000344F2C232C4F200021278D2B242F01002D2B21A7045F20210C4F200004FF4BD61C4F600014FF00802FFF7FBFD45F2C010C4F200004FF4AA
:40144000BE61C4F600014FF00A02FFF7EFFD45F2F010C4F2000040F2FC51C4F600014FF00A02FFF7E3FD45F21010C4F200004FF4C161C4F600014FF00A02FFF7D7FD45F2A4
:401480002010C4F2000040F21461C4F600014FF00A02FFF7CBFD45F23210C4F200004FF4C461C4F600014FF00802FFF7BFFD45F24210C4F200004FF4C561C4F600014FF0EC
:4014C0000802FFF7B3FD45F25210C4F200004FF4C661C4F600014FF00802FFF7A7FD45F26010C4F200004FF4C761C4F600014FF00A02FFF79BFD44F22233C4F2000344F20F
:401500002232C4F200021278D2B242F00802D2B21A70FFF7B5FE44F2B030C4F2000044F2A031C4F200014FF00E02FFF77FFD07F11807BD4680BD00BF80B485B000AF0346DC
:40154000FB7145F24013C4F200031B78DBB223F04003FB7345F24013C4F20003FA794FEA8212D2B202F04002D1B2FA7B0A43D2B21A7007F11407BD4680BC704780B400AF5E
:4015800045F24113C4F200031B78DBB203F040034FEA9313DBB21846BD4680BC704700BF80B500AF48F21023C1F6FF731B78002B08D100F00BF848F21023C1F6FF734FF039
:4015C00001021A7000F02AF880BD00BF80B400AF46F28D43C4F200034FF072021A7046F28943C4F200034FF020021A7046F22A43C4F200034FF007021A7046F23A43C4F22C
:4016000000034FF048021A7046F28B43C4F200034FF000021A70BD4680BC704780B582B000AF00F06FFE0346FB7146F29D43C4F2000346F29D42C4F200021278D2B242F00C
:401640002002D2B21A7046F29943C4F2000346F29942C4F200021278D2B242F01002D2B21A7046F29B43C4F2000346F29B42C4F200021278D2B242F01002D2B21A7000F056
:4016800013FEFB79184600F041FE07F10807BD4680BD00BF80B483B000AF46F24D43C4F200031B78FB71FB79184607F10C07BD4680BC704780B500AF44F6D613C4F20003E9
:4016C0004FF002021A7044F6C813C4F200034FF081021A7044F6DB13C4F200034FF02A021A7044F6DC13C4F200034FF000021A704EF28013CEF200034FF400421A604FF0AC
:401700000F004FF0070100F0A7FE4FF00F0041F2C971C0F2000100F06FFE48F24D23C1F6FF734FF010021A7000F038FC00F050FC00F01CFC80BD00BF80B582B000AF00F0DB
:40174000E1FD0346FB7144F2A533C4F2000344F2A532C4F200021278D2B242F00402D2B21A7044F2B533C4F2000344F2B532C4F200021278D2B242F00402D2B21A70FB7982
:40178000184600F0C3FD07F10807BD4680BD00BF80B500AF48F21223C1F6FF731B78002B08D1FFF787FF48F21223C1F6FF734FF001021A70FFF7C0FF4FF46143CEF20003C3
:4017C0004FF400421A6080BD80B582B000AF44F6D713C4F200031B78FB7148F24D23C1F6FF731B78DBB203F04003DBB2002B00F0A082FB7903F00103002B00F0638248F223
:401800004D23C1F6FF731B78DBB2A3F14503052B00F2538201A252F823F000BF351800002B1A0000BB1C0000BB1C000035180000D31B0000FB7923F02003FB71FB7903F065
:401840000A03DBB2082B40F0858048F24D23C1F6FF731B78DBB2452B6DD148F25323C1F6FF731B78DBB2002B21D044F6D813C4F2000348F25822C1F6FF7212681278D2B26E
:401880001A7044F6D713C4F200034FF004021A7048F25023C1F6FF734FF001021A7048F24D23C1F6FF734FF046021A700AE248F25123C1F6FF731B78DBB203F00203002B66
:4018C0001CD048F25223C1F6FF731B78DBB243F00A03DAB248F25223C1F6FF731A7048F24D23C1F6FF734FF060021A704EF28013CEF200034FF400421A60E3E144F6D6135C
:40190000C4F2000344F6D612C4F200021278D2B242F01002D2B21A7044F6D913C4F200034FF010021A7044F6D713C4F200034FF004021A70C6E144F6D713C4F200034FF08B
:4019400000021A7048F24D23C1F6FF734FF04A021A70B7E1FB7903F00A03DBB20A2B5FD148F25223C1F6FF731B78DBB263F05F03DAB248F25223C1F6FF731A7048F25123AC
:40198000C1F6FF731B78DBB203F00203002B2AD048F24D23C1F6FF731B78DBB203F00803002B02D04FF0090201E04FF00A0248F25223C1F6FF731B78DBB21343DAB248F249
:4019C0005223C1F6FF731A7048F24D23C1F6FF734FF060021A704EF28013CEF200034FF400421A606EE144F6D613C4F2000344F6D612C4F200021278D2B242F01002D2B251
:401A00001A7044F6D913C4F200034FF010021A7044F6D713C4F200034FF004021A7051E14FF0000000F078FC4CE1FB7903F00203002B7CD148F25023C1F6FF731B78DAB2DB
:401A400048F25323C1F6FF731B78DBB29A4228D244F6D813C4F2000348F25822C1F6FF72116848F25022C1F6FF721278D2B28A181278D2B21A7044F6D713C4F200034FF02C
:401A800004021A7048F25023C1F6FF731B78DBB203F10103DAB248F25023C1F6FF731A7010E148F25123C1F6FF731B78DBB203F00203002B1CD048F25223C1F6FF731B785A
:401AC000DBB243F00A03DAB248F25223C1F6FF731A7048F24D23C1F6FF734FF060021A704EF28013CEF200034FF400421A60E9E000F088FA44F6D613C4F2000344F6D6125F
:401B0000C4F200021278D2B242F01002D2B21A7044F6D913C4F200034FF010021A7044F6D713C4F200034FF004021A70CAE048F25123C1F6FF731B78DBB203F00203002B63
:401B40001CD048F25223C1F6FF731B78DBB263F06503DAB248F25223C1F6FF731A7048F24D23C1F6FF734FF060021A704EF28013CEF200034FF400421A60A3E044F6D6139F
:401B8000C4F2000344F6D612C4F200021278D2B242F01002D2B21A7044F6D913C4F200034FF010021A7044F6D713C4F200034FF004021A7048F25223C1F6FF731B78DBB2D4
:401BC00063F06F03DAB248F25223C1F6FF731A7078E048F25C23C1F6FF731A6848F25423C1F6FF731B78DBB2D21844F6D813C4F200031B78DBB2137048F25423C1F6FF7337
:401C00001B78DBB203F10103DAB248F25423C1F6FF731A7048F25423C1F6FF731B78DAB248F26023C1F6FF731B78DBB29A4207D244F6D713C4F200034FF010021A7041E00F
:401C400048F25123C1F6FF731B78DBB203F00203002B1CD048F25223C1F6FF731B78DBB243F00903DAB248F25223C1F6FF731A7048F24D23C1F6FF734FF060021A704EF2FB
:401C80008013CEF200034FF400421A601AE044F6D613C4F2000344F6D612C4F200021278D2B242F01002D2B21A7044F6D713C4F200034FF000021A7004E04FF0000000F004
:401CC0002BFB00BFFB7903F02003002B43D048F24D23C1F6FF731B78DBB203F00803002B02D04FF0010201E04FF0020248F25223C1F6FF731B78DBB21343DAB248F252235A
:401D0000C1F6FF731A7044F6D613C4F2000344F6D612C4F200021278D2B222F01002D2B21A7048F24D23C1F6FF734FF010021A7011E048F24D23C1F6FF731B78DBB203F075
:401D40001003DBB2002B06D148F24D23C1F6FF734FF010021A7007F10807BD4680BD00BF80B485B000AF02460B46FA71BB714FF00203FB7348F24D23C1F6FF731B78DBB220
:401D8000102B5FD144F6D913C4F200031B78DBB203F00803002B52D14EF28013CEF200034FF400421A60FB794FEA4303FB71BB79002B0BD0FB7943F00103FB7148F24D237E
:401DC000C1F6FF734FF049021A7006E048F24D23C1F6FF734FF045021A7044F6D813C4F20003FA791A7044F6D913C4F200034FF001021A7000BF44F6D713C4F200031B7828
:401E0000DBB203F00103002BF5D044F6D713C4F200031B78DBB203F00A03DBB20A2B0AD148F24D23C1F6FF734FF010021A704FF00303FB7306E04FF00003FB7302E04FF07C
:401E40000103FB73FB7B184607F11407BD4680BC704700BF80B483B000AF4FF00203FB7144F6D913C4F200031B78DBB203F00403002B22D044F6D913C4F200034FF0100248
:401E80001A7044F6D713C4F200034FF004021A7048F24D23C1F6FF734FF010021A7000BF44F6D713C4F200031B78DBB203F02103002BF5D04FF00003FB71FB79184607F103
:401EC0000C07BD4680BC704780B485B000AF0346FB714FF00003FB7344F6D913C4F200031B78DBB203F00403002B38D048F24D23C1F6FF731B78DBB2492B0DD148F24D2341
:401F0000C1F6FF734FF04A021A7044F6D713C4F200034FF000021A7000BF44F6D713C4F200031B78DBB203F00103002BF5D044F6D813C4F200031B78FB73FB79002B07D0C3
:401F400044F6D713C4F200034FF010021A7006E048F24D23C1F6FF734FF060021A70FB7B184607F11407BD4680BC704780B483B000AF48F25223C1F6FF731B78FB7148F2C1
:401F80005223C1F6FF734FF000021A70FB79184607F10C07BD4680BC704700BF80B400AF48F25423C1F6FF734FF000021A7048F25223C1F6FF731B78DBB223F00103DAB203
:401FC00048F25223C1F6FF731A70BD4680BC704780B400AF48F25023C1F6FF734FF000021A7048F25223C1F6FF731B78DBB223F00203DAB248F25223C1F6FF731A70BD4604
:4020000080BC704780B400AFBD4680BC704700BF80B500AF48F21323C1F6FF731B78002B08D100F00BF848F21323C1F6FF734FF001021A7000F052F880BD00BF80B582B00C
:4020400000AF46F27843C4F200031B78DBB223F03F03FB7146F27843C4F20003FA7942F00902D2B21A7046F29843C4F2000346F29842C4F200021278D2B242F00102D2B25D
:402080001A704FF0FF0000F051F84FF0FF0000F06BF84FF07F0000F077F84FF0000000F083F800F02FF90346BB7146F29843C4F2000346F29842C4F200021278D2B242F064
:4020C0001002D2B21A70BB79184600F01FF900F03DF807F10807BD4680BD00BF80B400AF46F27843C4F2000346F27842C4F200021278D2B262F07F02D2B21A70BD4680BC94
:40210000704700BF80B400AF46F27843C4F2000346F27842C4F200021278D2B202F07F02D2B21A70BD4680BC704700BF80B483B000AF0346FB7146F20843C4F20003FA7932
:402140001A7007F10C07BD4680BC704780B500AF01E000F049F800F037F8034603F01003002BF6D180BD00BF80B483B000AF0346FB7146F24843C4F20003FA791A7007F146
:402180000C07BD4680BC704780B483B000AF0346FB7146F22843C4F20003FA791A7007F10C07BD4680BC704780B483B000AF0346FB7146F28843C4F20003FA791A7007F175
:4021C0000C07BD4680BC704780B483B000AF46F26843C4F200031B78FB71FB79184607F10C07BD4680BC704780B400AF46F25843C4F200031B78DBB21846BD4680BC70476F
:4022000080B582B000AF786000F042F8786800F00BF84FF0070000F01BF800F02DF807F10807BD4680BD00BF80B485B000AF78604EF60853CEF200031B68FB60FB6803F1C8
:4022400040037A681A6007F11407BD4680BC704780B483B000AF0346FB714FF46443CEF20003FA794FEA4212D2B21A7007F10C07BD4680BC704700BF80B400AF4FF46143A6
:40228000CEF200034FF001021A60BD4680BC704780B400AF4EF28013CEF200034FF001021A60BD4680BC704780B400AF44F2A233C4F2000344F2A232C4F200021278D2B207
:4022C00042F00402D2B21A7044F2B233C4F2000344F2B232C4F200021278D2B242F00402D2B21A70BD4680BC704700BF000000000230800800F0058000BF013800467FF409
:40230000FCAF7047EFF3108072B6704780F31088704700BFAFF3008080B483B000AF0346FB7101BE07F10C07BD4680BC704700BF80B582B000AF78600BE048F2E413C1F63C
:40234000FF731B681846FFF7D3FF7B68A3F500437B607B68B3F5004FEFD848F2DC13C1F6FF731B687A6802FB03F31846FFF7C0FF07F10807BD4680BD80B582B000AF0346A5
:40238000FB80FA8848F2E013C1F6FF731B7803FB02F31846FFF7ACFF07F10807BD4680BD80B584B000AF03463960FB714EF60853CEF200031B68FB60FB790F2B03D94FF08F
:4023C0000000FFF7A9FFFB7903F00F034FEA8303FA68D3181B68BB60FB7903F00F034FEA8303FA68D3183A681A60BB68184607F11007BD4680BD00BF80B584B000AF03468B
:402400003960FB714EF60853CEF200031B68FB60FB791F2B03D94FF00000FFF77DFFFB7903F01F0303F110034FEA8303FA68D3181B68BB60FB7903F01F0303F110034FEA09
:402440008303FA68D3183A681A60BB68184607F11007BD4680BD00BF80B582B000AF02460B46FA71BB71BB79072B03D94FF00000FFF752FFFB791F2B03D94FF00000FFF701
:402480004BFFFB7903F01F0303F1604303F56443BA794FEA4212D2B21A7007F10807BD4680BD00BF80B582B000AF786000F042F8786800F00BF84FF0070000F01BF800F01B
:4024C0002DF807F10807BD4680BD00BF80B485B000AF78604EF60853CEF200031B68FB60FB6803F144037A681A6007F11407BD4680BC704780B483B000AF0346FB714EF273
:402500000143CEF20003FA794FEA4212D2B21A7007F10C07BD4680BC704700BF80B400AF4FF46143CEF200034FF002021A60BD4680BC704780B400AF4EF28013CEF200030D
:402540004FF002021A60BD4680BC704780B500AF48F21423C1F6FF731B78002B08D100F00BF848F21423C1F6FF734FF001021A7000F056F880BD00BF80B582B000AF46F2B2
:402580007F43C4F200031B78DBB223F03F03FB7146F27F43C4F20003FA7942F00902D2B21A7046F29F43C4F2000346F29F42C4F200021278D2B242F00102D2B21A704FF01A
:4025C000800000F041F84FF0800000F05BF84FF0000000F067F84FF0000000F073F84FF0000000F07FF8FFF78DFE0346BB7146F29F43C4F2000346F29F42C4F2000212783E
:40260000D2B242F01002D2B21A70BB791846FFF77DFE00F029F807F10807BD4680BD00BF80B400AF46F27F43C4F2000346F27F42C4F200021278D2B262F07F02D2B21A7074
:40264000BD4680BC704700BF80B483B000AF0346FB7146F20F43C4F20003FA791A7007F10C07BD4680BC704780B500AF01E000F059F800F047F8034603F01003002BF6D123
:4026800080BD00BF80B483B000AF0346FB7146F24F43C4F20003FA791A7007F10C07BD4680BC704780B483B000AF0346FB7146F22F43C4F20003FA791A7007F10C07BD4699
:4026C00080BC704780B483B000AF0346FB7146F23F43C4F20003FA791A7007F10C07BD4680BC704780B483B000AF0346FB7146F28F43C4F20003FA791A7007F10C07BD4612
:4027000080BC704780B483B000AF46F26F43C4F200031B78FB71FB79184607F10C07BD4680BC704780B400AF46F25F43C4F200031B78DBB21846BD4680BC704780B500AF4D
:4027400048F21523C1F6FF731B78002B08D100F00BF848F21523C1F6FF734FF001021A7000F056F880BD00BF80B582B000AF46F27E43C4F200031B78DBB223F03F03FB71EA
:4027800046F27E43C4F20003FA7942F00902D2B21A7046F29E43C4F2000346F29E42C4F200021278D2B242F00102D2B21A704FF0800000F041F84FF0800000F05BF84FF08D
:4027C000000000F067F84FF0000000F073F84FF0000000F07FF8FFF795FD0346BB7146F29E43C4F2000346F29E42C4F200021278D2B242F01002D2B21A70BB791846FFF7C3
:4028000085FD00F029F807F10807BD4680BD00BF80B400AF46F27E43C4F2000346F27E42C4F200021278D2B262F07F02D2B21A70BD4680BC704700BF80B483B000AF0346B7
:40284000FB7146F20E43C4F20003FA791A7007F10C07BD4680BC704780B500AF01E000F059F800F047F8034603F01003002BF6D180BD00BF80B483B000AF0346FB7146F237
:402880004E43C4F20003FA791A7007F10C07BD4680BC704780B483B000AF0346FB7146F22E43C4F20003FA791A7007F10C07BD4680BC704780B483B000AF0346FB7146F2A2
:4028C0003E43C4F20003FA791A7007F10C07BD4680BC704780B483B000AF0346FB7146F28E43C4F20003FA791A7007F10C07BD4680BC704780B483B000AF46F26E43C4F260
:4029000000031B78FB71FB79184607F10C07BD4680BC704780B400AF46F25E43C4F200031B78DBB21846BD4680BC704780B485B000AF0346FB7145F25013C4F200031B7826
:40294000DBB223F00203FB7345F25013C4F20003FA794FEA4202D2B202F00202D1B2FA7B0A43D2B21A7007F11407BD4680BC704780B485B000AF0346FB7145F25013C4F20E
:4029800000031B78DBB223F00803FB7345F25013C4F20003FA794FEAC202D2B202F00802D1B2FA7B0A43D2B21A7007F11407BD4680BC704780B485B000AF0346FB7145F2C5
:4029C0003013C4F200031B78DBB223F04003FB7345F23013C4F20003FA794FEA8212D2B202F04002D1B2FA7B0A43D2B21A7007F11407BD4680BC704780B485B000AF03460F
:402A0000FB7145F26013C4F200031B78DBB203F07F03FB7345F26013C4F20003FA794FEAC212D1B2FA7B0A43D2B21A7007F11407BD4680BC704700BF38B50E4D0E4B002401
:402A4000E81A8510AC4205D00B4951F8242090470134F7E700F0F8F80849094A541AA5100024AC4205D0054B53F8240080470134F7E738BD542C0000542C0000542C000095
:402A80005C2C000010B50023934203D0CC5CC4540133F9E710BD82180346934202D003F8011BFAE77047000000000000210000003F0000004C310000202000004C32000009
:402AC000523100005232000053454C4543540000535441525400000020202020202020003078000020307800200000002064736B792074726F6F737469746520312E307604
:402B0000000000002020202073656C656374206D6F646520202020200000000020202044696554656D706572617475726520202000000000207374617475733A00000000D2
:402B4000535543434553532020000000554E4B4E4F574E202000000053544152544544202000000054494D454F5554202000000020426C7565746F6F7468204D6F6E6974D1
:402B80006F7220200000000020436F6E66696775726174696F6E204D6F6465200000000020202020646576696365206F6E6F6620202020200000000020426C7565746F6F5B
:402BC000746820436F6E74726F6C6C200000000020202020202048494C4C20544F50202020202020000000002064736B792074726F6F7374697465312E397620000000009A
:402C000030313233343536373839414243444546C8490040190000000140800C000D0140000300140140000800400140000A004C014000020050014020000000800C014075
:402C40006805004880000000F8B500BFF8BC08BC9E46704751000000590F0000F8B500BFF8BC08BC9E4670472D000000802C00000881FF1FE0000000800000000000000088
:402C800000000000070000002064736B792074726F6F737469746500000000007374617274207061676500000000000000000000202020636F6E6669670000000000000064
:402CC0000000000020202073656C65637400000000000000000000002020206D6F6465310000000000000000000000002020202074656D7000000000000000000000000088
:402D00000000000000000000000000000000000000000000000000000000000000000000000000000000000000000000000000000000000000000000000000000000000093
:402D4000000000000000000000000000000000008014EF03D0010100420000000000E880000000000000000000000000000000000000000000000000000000000000000051
:402D80000000000000000000000000000000000000000000000000000000000000000000000000000000000000000000000000000000000000000000000000000000000013
:402DC00000000000000000000000000000000000000000000000000000000000000000000000000000000000000000000000000000000000000000000000000000000000D3
:402E00000000000000000000000000000000000000000000000000000000000000000000000000000000000000000000000000000000000000000000000000000000000092
:402E40000000000000000000000000000000000000000000000000000000000000000000000000000000000000000000000000000000000000000000000000000000000052
:020000040003F7
:0200000480007A
:400000000852004006640040010701405208014040090140600A01404A0B0140110C01403C0D0140510E0140340F0140011501400117014002190140021B014003400140D3
:40004000024101400642014006430140054401400A4501400C4601400547014004480140054901400B4C0140094D014006500140025101400840108011A0300531046040A6
:4000800061487810882D89388B0F8D728E2F8F2FE201002003030A170B010C100E05141016031C061D041E1020082802302032073304340835013613370239023A883E1120
:4000C0003F044010410245D046104702481A49FF4AFF4BFF4DA04F04501852805425580459045A045B045C125D115F01604062C06440654066C068C06AC06CC06EC0820134
:40010000840486088B038E0190089204941C99019A029E02A010A41CB001B101B20CB402B502B610BE11D418D604D804D904DB04DC12DD20DF01018A040105100701080166
:400140000A240B020E121104130215211804194C1A011B011C401E1A2120238025482748312037403A103C023F204408454846244F015614571059015C085F81600462023F
:400180006302662074018040820290019125922493029611980199939B039C809D44A605B184B420C0DDC2AFC45CCC14CEA4D030D6D1D82DE404004F02300430064F0C7FA5
:4001C00010381247140318011E4B2020241028302C02300332703404363838203A08400346504701481849FF4A074BFF4C404D204EF04F055008560858045A045B045C029A
:400200005D925F01604061A86240632082038480850D880989278A508D0D8F209104932A946C961199149A109B219C3C9D219E029F1AA070A20CA814B120B260B480B61FC1
:40024000B71FB808BE04BF01C045C102C5E0C6CCC70BC81EC9FFCAFFCBFFCEF0CF44D00CD401D804D904DA04DB04DC22DD22DF01E6C0EA40EB020108024003020409051050
:40028000080209080A090D100E1210A91608170119891A041C011D101F0824402680270131043204351036813D203E103F844308451047014D014E024F3050045110520898
:4002C0005608575058A05C405D015E085F109104922093069508980399029A409B029D4CA0A8A108A202A302A608A820B002B102B240B318B440B601C07DC2EFC45FCCB015
:40030000CE70D0A2D210D6FCEE04020215011E022801310132013401360239083E143F015608580459045B045D905F0101080240038A0740081009080A020B800F0210A9F3
:4003400017201A081B8A1C041E021F04200121082201260227202810290431083210360839043B0140014104430249424B9053015A085C606401670569046A206B0270A8B9
:40038000940497089B40A301AB01B084B440C01FC28FC44FCA02CC46CE03D00BD20CD632D830EC0408010B080F011104120C1A071B072508300431023202330834013504F5
:4003C000360837014010410645D546104702481B49FF4AFF4BFF4DA04F04501852805427580459045A045B045F01604062C06440654066C068C06AC06CC06EC08303960332
:400400009902AE06B002B204B301B401B702C030C102C5D0C650C712C83AC9FFCAFFCBFFCDA0CF04D018D280D427D804D904DA04DB04DF01E040E2C0E440E540E6C0E8C02B
:40044000EAC0ECC0EEC000100A400B040F201740189119101D081F21200821022322264027102B20302C310237103A903F024001440845084608480849014B044F01502820
:4004800056185711588459115C085E805F216004670872C077408702C002C22AC480CA02CC25CE8CD068D204D6FFD824E402EA01EA089C80AF08B080EA0130203580CC307F
:4004C0009D80A4203E1053409D80A420CE20D4208020961097809D80A420E28054205F408740D402D6040040060263086708A380AB80B420C003D803EC08500457809008B4
:40050000A380A704A840B304B404B602D406E809EA028304A680A704B680EA0296109D80AF40EA1019809D80AA10C640EA800810132114805F0178107E80A680C202C40E9F
:40054000D601DE0312807C809880A680AB20B010C408DE04EA04000701010C060D010E050F01000F03C00000F3040C29CF071000CC002300FF000000000033000301001665
:40058000010700000000400008000000040200210C0000004200000000087C0780000F3000008A00000010406504030001C000E022FFFFFF62A0F0410C00000000000212D3
:4005C00004040404222200010000000000004002001030100010101200000000000000000000000000000000007F7F000000000040000008480048000000000030000030AC
:40060000300030000000000040000000400040000000000020000CA0A000A00000000000004040000000000000F0F00000000000000A0A0000000000040000858500050007
:40064000000000000000000000000000000000000000000000000000000000000000000000000000000000000000000000000000000000000000000000000000000000007A
:40068000000000000000000000000000000000000000000000000000000000000000000000000000000000000000000000000000000000000000000000000000000000003A
:4006C00000000000000000000000000000000000000000000000000000000000000000000000000000000000000000000000000000000000000000000000000000000000FA
:4007000000000000000000000000000000000000000000000000000000000000000000000000000000000000000000000000000000000000000000000000000000000000B9
:0200000490006A
:0400000000004005B7
:0200000490105A
:04000000BC90ACAF55
:0200000490303A
:0200000036CEFA
:0200000490402A
:4000000000000000000000000000000000000000000000000000000000000000000000000000000000000000000000000000000000000000000000000000000000000000C0
:400040000000000000000000000000000000000000000000000000000000000000000000000000000000000000000000000000000000000000000000000000000000000080
:400080000000000000000000000000000000000000000000000000000000000000000000000000000000000000000000000000000000000000000000000000000000000040
:4000C0000000000000000000000000000000000000000000000000000000000000000000000000000000000000000000000000000000000000000000000000000000000000
:0200000490501A
:0C00000000012E12306900012E28673725
:00000001FF