:400000000080002011000000A5100000A510000080B500AF024B034A12681A6001F046F8BC760040FA46004010B5054C237833B9044B13B10448AFF300800123237010BD70
:400040003881FF1F000000004843000008B5064B1BB106480649AFF300800648036813B1054B03B1984708BD00000000484300003C81FF1F0881FF1F0000000098B500AF57
:400080000420012102F066F90346002B05D100F0F7FF454B00221A7004E000F0EBFF424B01221A70012002F039FA03461A463F4B1A70012002F032FA03461A463B4B5A700A
:4000C000012002F02BFA03461A46384B9A70002002F024FA03461A46344BDA7002F09AF9314B1B78012B0BD1304B15221A702F4B15225A702D4B15229A702C4B1522DA70EC
:400100000B20012102F026F9294B00221A700FE0274B1B781C46012002F000FA03461A46244B1A55224B1B780133DAB2204B1A701F4B1B78072BEBD9002002F0EFF903466C
:400140001A461C4B1A7202F065F91A4B1A781A4B1A70184B5A78184B5A70164B9A78164B9A70144B9A78144BDA700420002102F0F1F8124B00221A700CE0104B1B780E4A41
:40018000D35C184602F07CF90C4B1B780133DAB20A4B1A70094B1B78032BEED902F03AF900F016FC98BD00BF8B81FF1F9081FF1F9E81FF1F8081FF1FE481FF1F8A81FF1F4A
:4001C00080B500AF044B01221A7003F051F803461A46024B1A7080BD7581FF1F7C81FF1F80B500AF03F00AF902F016FC3A4BDA79394B1A72384B9A79374BDA71364B5A797A
:40020000354B9A71344B1A79334B5A71324BDA78314B1A71304B9A782F4BDA702E4B5A782D4B9A7002F0C0FA03461A462A4B5A70294B1B7A802B4CD1274B9A78264BDB7837
:400240001344DAB2244B1B791344DAB2224B5B791344DAB2204B9B791344DAB21E4BDB791344DAB21D4B1A701C4B1B7803F07F03DAB21A4B1A70184B5A78194B1A70164B2F
:400280009A78184BDA70144BDA78164B9A70124B1A79144B5A70104B5A79124B1A700E4BDB7903F00203002B02D00F4B00221A70094BDB7903F00803002B02D00A4B012272
:4002C0001A70054BDA79094B1A70034B9A79084B1A7003F087F880BDB081FF1FC981FF1FD181FF1F7881FF1F8981FF1FE081FF1FD581FF1F80B500AF104B00221A7016E0CC
:400300000E4B1B780E4AD25C0C4B1B780D49CB5C9A4206D00C4B01221A7000F017F801230AE0064B1B780133DAB2044B1A70034B1B78072BE4D90023184680BD9C81FF1FDB
:400340008081FF1F6C81FF1FC881FF1F80B400AF0C4B00221A700DE00A4B1B78094A12780949895C094AD154064B1B780133DAB2044B1A70034B1B78072BEDD9BD465DF8F7
:40038000047B70479C81FF1F8081FF1F6C81FF1F80B500AF564B1B78012B13D0554B1B78152B03D0534B5B78152B0BD1524B4FF085421A60514B4FF085421A60504B4FF095
:4003C00085421A604D4B1A684D4B1B681046194603F08EFC034618464FF0864103F086FC03461A46444B1B681046194603F080FC034618464FF0854103F078FC034683F085
:400400000043184603F042FF03469BB21BB2184600F078F8394B1A68394B1B681046194603F064FC03461A46334B1B681046194603F05EFC034618464FF0854103F056FC14
:40044000034683F00043184603F020FF03469BB21BB2184600F08AF8284B1A68284B1B681046194603F042FC03461A46224B1B681046194603F03AFC034618464FF08541E6
:4004800003F036FC034683F00043184603F0FEFE03469BB21BB2184600F09CF8174B1A68174B1B681046194603F022FC034618464FF0864103F01AFC03461A460E4B1B68BC
:4004C0001046194603F012FC034618464FF0854103F00EFC034683F00043184603F0D6FE03469BB21BB2184600F0A8F880BD00BFE881FF1F9081FF1FC481FF1F9881FF1FDC
:40050000A481FF1F80B584B000AF0346FB80B7F90630002B02D10023FB811EE0B7F9063013F1FF0F02DA4FF60173FB80B7F90630FF2B01DDFF23FB80B7F90630002B07DA96
:40054000012002F06DFDFB885B429BB2FB8104E0002002F065FDFB88FB81FB89DBB2184602F0B2FB1037BD4680BD00BF80B584B000AF0346FB80B7F90630002B02D1002387
:40058000FB811EE0B7F9063013F1FF0F02DA4FF60173FB80B7F90630FF2B01DDFF23FB80B7F90630002B07DA012002F01BFDFB885B429BB2FB8104E0002002F013FDFB889F
:4005C000FB81FB89DBB2184602F0CEFA1037BD4680BD00BF80B584B000AF0346FB80B7F90630002B02D10023FB811EE0B7F9063013F1FF0F02DA4FF60173FB80B7F90630C5
:40060000FF2B01DDFF23FB80B7F90630002B07DA002002F023FDFB885B429BB2FB8104E0012002F01BFDFB88FB81FB89DBB2184602F0FAFB1037BD4680BD00BF80B584B0F5
:4006400000AF0346FB80B7F90630002B02D10023FB811EE0B7F9063013F1FF0F02DA4FF60173FB80B7F90630FF2B01DDFF23FB80B7F90630002B07DA002002F00DFDFB8862
:400680005B429BB2FB8104E0012002F005FDFB88FB81FB89DBB2184602F076FC1037BD4680BD00BF80B500AF00F0C2FC40F6B83001F01AF801F054FC01F0BEF901F0ACF991
:4006C000012001F0C5FF00F0B3FC4FF4967001F00BF8364802F052F902F086F9344802F099FE02F0CDFE334802F046FE02F07AFE00F09EFC62B601F0C9FF02F03DF802F0CB
:4007000059FD02F0DDF9002002F02EFA02F088FA002002F0D9FA02F033FB002002F084FB02F0DEFB002002F02FFC012002F0CEFC012002F0E9FC012002F004FD012002F053
:400740001FFD1D4B5B78002B03D11B4B40225A7007E0194B5B78184603F07AFB0246174B1A60154B1B78002B03D1134B40221A7007E0114B1B78184603F06AFB0246104B1E
:400780001A600D4B9B78002B03D10B4B40229A7007E0094B9B78184603F05AFB0246094B1A60064B4FF085421A6080BDE1010000C10100007D0000007881FF1F9881FF1F0C
:4007C000A481FF1FC481FF1FB0B500AF4E4B1A884D4B5A804D4B1B781A464C4B5B78D31A9BB29AB2484B1A80474B1B889AB2464B5B889BB2D31A9BB29AB2454B1A80454B68
:400800001B68184602F0B8FF02460B461046194639A3D3E9002303F003F802460B4614461D46394B1B881BB2184602F093FF02460B462046294602F0F3FF02460B461046CA
:4008400019464FF00002344B02F038FE02460B4614461D46314B1B785BB2184602F07AFF02460B462046294602F026FE02460B461046194603F0E6F90246294B1A60254BAC
:400880001B68184602F078FF02460B46104619461BA3D3E9002302F0C3FF02460B4614461D461A4B1B781A46184B5B781344A3F17E021C4B1B785BB2D31A184602F04AFF73
:4008C00002460B462046294602F0AAFF02460B46104619464FF000020F4B02F0EFFD02460B461046194603F0ADF902460E4B1A60B0BD00BFAFF30080CDCCCCCCCCCCEC3FE4
:400900009A9999999999E93FA881FF1F9081FF1FAC81FF1F1881FF1F000050401781FF1FA481FF1F1681FF1FC481FF1FAFF3008080B582B000AF03463960FB80B7F9063064
:40094000184603F089FA02460C4B1B681046194603F0CCF903461846396803F0D1FA03461A46064B1B681046194603F0C1F903461A46024B1A600837BD4680BD9881FF1F09
:4009800080B582B000AF03463960FB80B7F90630184603F061FA02460C4B1B681046194603F0A4F903461846396803F0A9FA03461A46064B1B681046194603F099F90346ED
:4009C0001A46024B1A600837BD4680BDA481FF1F80B500AFA54B1B785BB2012B1FD1A44B01221A7000F052FBA24B1B78184603F02FFA0246A04B1A609E4B5B78184603F0F1
:400A000027FA02469D4B1A609A4B9B78184603F01FFA02469A4B1A60FFF7BAFC0CE200F03BFB984B1B78012B40F04681964B1B78052B00F2018201A252F823F0550A000011
:400A4000B30A0000E10A0000430B0000910B00001F0C00008D4B1B7A002B10D1FFF7B4FE8B4B1B785BB29BB240339BB29BB21BB218468849FFF75CFFFFF78AFC18E0FFF711
:400A800039FC0346002B13D000F0F4FA824B01221A70FFF799FE794B4FF085421A60FFF777FC794B1B780133DAB2774B1A70DCE0DBE07A4B1B78012B11D1734B1B78013353
:400AC000DAB2714B1A70764B01221A70734B00221A70744B1B78184600F0C6F9C5E0C4E06B4B1B78002B24D0FFF76EFE684B1B785BB24033184603F0AFF902465F4B1A60AF
:400B0000FFF746FCFFF7F6FB0346002B18D0FFF75BFE5A4B4FF085421A60FFF739FC5E4B01221A70584B1B78013BDAB2564B1A709BE0554B1B780133DAB2534B1A7094E012
:400B400093E0594B1B78152B1BD0574B5B78152B17D0474B01221A70544B1B785BB24033184603F079F90246434B1A60434B4FF085421A60424B4FF085421A60FFF708FCEB
:400B800073E0414B1B780133DAB23F4B1A706CE0454B1B78152B1FD0434B5B78152B1BD0FFF712FE354B4FF085421A60FFF7F0FB3F4B1B780133DAB23D4B1A703C4B1B78D5
:400BC0000A2B05D13A4B00221A702F4B05221A70274B00221A7048E0344B1B785BB2184603F03AF9034618464FF0854103F080F80346184603F04AFB03469BB21BB21846EE
:400C00004FF07E51FFF7BCFE1C4B4FF085421A601B4B4FF085421A60FFF7BAFB25E0FFF7D3FD244B1B785BB24033184603F014F90246124B1A60FFF7ABFBFFF75BFB034683
:400C4000002B11D0FFF7C0FD0C4B4FF085421A60FFF79EFB104B01221A700B4B1B78043BDAB2094B1A70FFE700BFE5E08981FF1FE881FF1F7881FF1FA481FF1F9881FF1F0B
:400C8000C481FF1F5481FF1F9D81FF1F8081FF1FDE81FF1FCDCCCC3D8C81FF1F7581FF1FD681FF1F7C81FF1F9081FF1F7481FF1FD481FF1FDC81FF1F604B1B78032B00F207
:400CC000BA8001A252F823F0D90C0000190D0000570D0000AB0D0000594B1A78594B1B789A420ED1FFF770FD574B1B785BB24033184603F0B1F80246544B1A60FFF748FBBF
:400D00009AE04E4B1B780133DAB24C4B1A704C4B1A784C4B1A708FE04D4B1B78002B07D04B4B1A78484B1A70444B00221A7083E0464B4FF085421A60444B1B6818464FF0A3
:400D4000854103F071FA0346002B00D174E03B4B02221A7070E03F4B1B78152B03D13D4B5B78152B1AD03C4B1B785BB2184603F073F8034618464FF0854102F0B9FF0346FA
:400D80001A46364B1A60314B4FF085421A60344B4FF085421A60FFF7FBFA4DE0274B1B780133DAB2254B1A7046E02A4B1B78152B1DD0284B5B78152B19D0FFF705FD234BD6
:400DC0004FF085421A60FFF7E3FA264B1B780133DAB2244B1A70234B1B780A2B06D1214B00221A70154B00221A7023E022E01A4B1B785BB2184603F02FF8034618464FF04A
:400E0000854102F075FF0346184603F03FFA03469BB21BB218464FF07E51FFF7B1FD0B4B4FF085421A600E4B4FF085421A60FFF7AFFA01E000E000BF80BD00BFDD81FF1FFA
:400E40008081FF1FD081FF1FDC81FF1F9881FF1FDE81FF1F9081FF1F7481FF1FA481FF1FC481FF1FD481FF1F80B483B000AF0346FB71FB79013B062B50D801A252F823F086
:400E80009D0E0000AD0E0000BD0E0000D50E0000ED0E0000050F00001D0F0000224B1A78224B1A70224B00221A7037E0214B1A781E4B1A701E4B00221A702FE01B4B002220
:400EC0001A701D4B1A781A4B1A70174B1A781B4B1A7023E0154B00221A70174B1A78144B1A70144B1A78154B1A7017E00F4B00221A70134B1A780E4B1A700B4B1A780F4BC2
:400F00001A700BE0094B00221A700D4B1A78084B1A70084B1A78094B1A7000BF0C37BD465DF8047B704700BF0C81FF1FDE81FF1F7481FF1F0D81FF1F0E81FF1FDC81FF1F54
:400F40000F81FF1F80B500AFFFF7ACFB2B4B01221A702A4B1B78012B1FD1294B01221A70284B1A78284B1A70284B1B78012B0BD1274802F0A7F92748082102F0C3F9234B15
:400F800000221A7000F064F8234B1B78012B03D1214B00221A70E7E7E6E7194B00221A70184B1A781D4B1A701A4B1B78022B0CD0032B16D0012B00D0F6E7124B1A78124B54
:400FC0001A70174B00221A7017E00F4B00221A70144B1A78124B1A70134B1A780F4B1A700BE0094B00221A70104B1A780C4B1A70044B1A78094B1A7000BFD5E75481FF1FCA
:40100000D081FF1F0C81FF1FDE81FF1FC881FF1F4C4300008081FF1F8C81FF1FDC81FF1F7481FF1F0F81FF1F0D81FF1F0E81FF1F80B500AF00F0C4FB7F2000F087FCC820B7
:4010400000F052FB002000F081FC00F04BFC80BD80B500AF00F0B4FB7F2000F077FC4FF4C87000F041FB002000F070FC00F03AFC80BD00BF80B500AF012000F0F9FA80BD43
:4010800080B500AF002000F0F3FA80BD80B500AF012000F0D3FA80BD80B500AF002000F0CDFA80BD80B400AFFEE700BF80B586B000AF214B7B61214B3B611F4B7B611F4B7A
:4010C0003B612FE03B691B68FB603B695B68BB603B699B683B6000237B600AE0BB681A1DBA60FA68111DF96012681A607B6804337B607A683B689A42F0D13B69DB683B602D
:4011000000237B6007E0BB681A1DBA6000221A607B6804337B607A683B689A42F3D13B6910333B617B695A1E7A61002BCAD103F0D3F8FFF707FFFEE701000000C443000079
:4011400080B582B000AF174B174A1A60174B174A126842F400721A6000237B600FE07B68032B04D8124B7A6853F8223000E0114B114A796842F821307B6801337B607B682F
:401180002F2BECD90D4B1B78DAB20D4B1A700D4B094A1A6000F070F90B4B00221A600837BD4680BD0CED00E00004FA0514ED00E000000000A51000000080FF1FBC76004046
:4011C0000481FF1F08ED00E00081FF1F80B582B000AF78603960786800213A6803F0ABF80837BD4680BD00BF80B584B000AFF860B9607A60F868B9687A6803F093F810374F
:40120000BD4680BD80B483B000AF0346FB71FEE780B487B000AF7860396000233B6100237B6126E07B699B007A6813441B68BB60BB68FB73BB6823F0FF03BB6013E03B699E
:401240005B003A6813441B781A46BB6813443A69520039680A4452781A703B6901333B61FB7B013BFB73FB7B002BE8D17B6901337B617B69282BD5D91C37BD465DF8047B84
:40128000704700BF80B582B000AF404B03221A803F4B18221A703F4B03221A803E4B18221A703E4B5D221A803D4B18221A703D4B4FF49C721A803C4B18221A703B4B4FF4FF
:4012C0009C721A803A4B18221A703A4B31221A80394B1B221A70394B02221A704FF0402308221A70364B03221A70364B364A1278D2B21A70354B08221A80354B41F2512285
:401300001A800023FB7019237B6014E0FB785B00DAB2304B1B78DBB203F00103DBB21343DBB203F00303FB704FF4F07000F0BCF97B68013B7B607B68002B02D0FB78032BF7
:40134000E4D17B68002B02D10320FFF75BFF224B4FF480721A80204B07221A701F4B00221A701F4B48221A701B4B00221A701D4B02221A701C4B1C4A1278D2B242F03F0220
:40138000D2B21A700837BD4680BD00BF80400040824000408440004086400040884000408A4000408C4000408E4000409040004092400040944000409640004000430040DA
:4013C00000420040A14600400801004922420040204200402542004004400040064000400840004001400040A243004080B483B000AF164B1B78FB71154BFA7902F0070289
:40140000D2B21A70134BFA791209D2B21A70124B4FF4E1621A80114B02221A70104B01221A70104B20221A700F4B10221A700F4B42221A700E4B60221A700E4B44221A70E2
:401440000C37BD465DF8047B704700BFCF0100496E5800406F5800403C510040805A00408B5A0040905A0040985A0040005B0040585B00407658004080B586B000AF72B670
:40148000544B544A1278D2B242F00402D2B21A700023FB7513E0FA7D13465B0013445B004D4A13443B613B691A683B699B889BB210461946FFF78AFEFB7D0133FB75FB7DAD
:4014C000092BE8D90023FB751CE0FA7D13469B0013445B00414A1344FB60FB681B68BB60FB685B687B60FB681A7A5B7A1B0213437B807B88B86879681A46FFF775FEFB7D8D
:401500000133FB75FB7D012BDFD94FF090403449FFF77EFE334B334A1278D2B242F00202D2B21A70304B304A1278D2B242F00202D2B21A702D4B2D4A1278D2B242F04002A8
:40154000D2B21A702A4B2A4A1278D2B242F01002D2B21A70274828490822FFF745FE274827490822FFF740FE264827490A22FFF73BFE264826490822FFF736FE254826494E
:401580000822FFF731FE254825490822FFF72CFE244825490A22FFF727FE244B234A1278D2B242F00802D2B21A70214B01221A70FFF768FE1E4B81221A701E4B01221A7041
:4015C000FFF714FF1C4809490E22FFF70DFE1837BD4680BDE8460040504300008C430000A40000480350014013500140A0430040C24300400251004044100048C25100408E
:401600004C10004820510040541000483251004060100048425100406810004852510040701000486051004078100048224300400048004004000840B043004080B485B01A
:4016400000AF0346FB71094B1B78DBB203F07F03FB73064BFA79D201D1B2FA7B0A43D2B21A701437BD465DF8047B7047C051004080B485B000AF0346FB71094B1B78DBB25A
:4016800003F07F03FB73064BFA79D201D1B2FA7B0A43D2B21A701437BD465DF8047B704750510040000000000230800800F0058000BF013800467FF4FCAF7047EFF31080EF
:4016C00072B6704780F31088704700BFAFF3008080B483B000AF0346FB7101BE0C37BD465DF8047B704700BF80B582B000AF786008E00C4B1B681846FFF7D6FF7B68A3F5FA
:4017000000437B607B68B3F5004FF2D8064B1B687A6802FB03F31846FFF7C6FF0837BD4680BD00BF3081FF1F2881FF1F80B584B000AF03463960FB710F4B1B68FB60FB793F
:401740001F2B02D90020FFF7C3FFFB7903F01F0310339B00FA6813441B68BB60FB7903F01F0310339B00FA6813443A681A60BB6818461037BD4680BD08ED00E080B582B02E
:4017800000AF02460B46FA71BB71BB79072B02D90020FFF79DFFFB791F2B02D90020FFF797FFFB7903F01F0303F1604303F56443BA795201D2B21A700837BD4680BD00BF81
:4017C00080B500AF054B1B78002B04D100F008F8024B01221A7000F061F880BD5581FF1F80B582B000AF284B274A1278D2B242F00202D2B21A70254B1B78DBB223F070035C
:40180000FB71224BFA7942F01002D2B21A70204B1F4A1278D2B222F03002D2B21A701C4B1B4A1278D2B242F03002D2B21A70184B174A1278D2B222F00F02D2B21A70144B28
:40184000134A1278D2B242F00F02D2B21A70FF2000F06CF87F2000F079F8002000F086F80C4B0C4A1278D2B242F00102D2B21A70094B094A1278D2B242F00102D2B21A70B5
:401880000837BD4680BD00BF004F0040024F00400B4F0040A3430040014F004080B400AF0D4B0D4A1278D2B242F00102D2B21A700A4B0A4A1278D2B242F00102D2B21A709D
:4018C000074B074A1278D2B242F00102D2B21A70BD465DF8047B7047A3430040B3430040004F004080B400AF0D4B0D4A1278D2B222F00102D2B21A700A4B0A4A1278D2B201
:4019000022F00102D2B21A70074B074A1278D2B222F00102D2B21A70BD465DF8047B7047004F0040A3430040B343004080B483B000AF0346FB71044BFA7992B21A800C3789
:40194000BD465DF8047B7047044F004080B483B000AF0346FB71044BFA7992B21A800C37BD465DF8047B7047064F004080B483B000AF0346FB71044BFA791A700C37BD4618
:401980005DF8047B704700BF034F004080B582B000AF194B00221A70184B01221A70FFF78DFE0346FB71164B154A1278D2B242F01002D2B21A70FB791846FFF783FE114B1A
:4019C0000F221A70104B08221A70104B01221A6000200521FFF7D2FE00200D49FFF7A6FE0C4B10221A7000F033FA00F047FA00F01DFA0837BD4680BD7364004087650040DF
:401A000097650040276500403765004080E100E0651A0000E981FF1F80B400AF054B054A1278D2B242F00202D2B21A70BD465DF8047B70477364004080B500AF074B1B7838
:401A4000002B04D1FFF7A2FF044B01221A70FFF7E3FF034B01221A6080BD00BF5681FF1F00E100E080B582B000AFAD4B1B78FB71AC4B1B78DBB203F04003DBB2002B00F05C
:401A8000B981FB7903F00103002B00F09181A54B1B78DBB2453B052B00F2868101A252F823F000BFBD1A0000EB1B0000A91D0000A91D0000BD1A0000DF1C0000FB7923F01A
:401AC0002003FB71FB7903F00A03DBB2082B4BD1944B1B78DBB2452B3CD1934B1B78DBB2002B12D0914B924A12681278D2B21A70904B06221A70904B00221A708F4B0122A5
:401B00001A70884B46221A706EE08D4B1B78DBB203F00203002B0ED08A4B1B78DBB243F00A03DAB2874B1A707E4B60221A70864B01221A6058E0854B844A1278D2B242F099
:401B40002002D2B21A707B4B52221A707A4B00221A7049E0774B02221A70774B00221A70704B4A221A7023E1FB7903F00A03DBB20A2B35D1734B1B78DBB263F05F03DAB2E9
:401B8000704B1A706E4B1B78DBB203F00203002B17D0644B1B78DBB203F00803002B01D0092300E00A23674A1278D2B21343DAB2644B1A705B4B60221A70634B01221A6024
:401BC00012E0624B614A1278D2B242F02002D2B21A70584B52221A70574B00221A70E7E00020FFF775FDE3E0E2E0FB7903F00203002B46D1514B1B78DAB24B4B1B78DBB249
:401C00009A4217D2494B4A4A11684C4A1278D2B20A441278D2B21A70464B06221A70464B00221A70454B1B78DBB20133DAB2434B1A7053E0424B1B78DBB203F00203002BA9
:401C40000ED0404B1B78DBB243F00A03DAB23D4B1A70344B60221A703B4B01221A603DE000F022F9394B394A1278D2B242F02002D2B21A702F4B52221A702F4B00221A7012
:401C800096E02F4B1B78DBB203F00203002B0ED02C4B1B78DBB263F06503DAB2294B1A70204B60221A70284B01221A6016E0274B264A1278D2B242F02002D2B21A701D4B00
:401CC00052221A701C4B00221A701E4B1B78DBB263F06F03DAB21B4B1A7069E068E01C4B1A681C4B1B78DBB21344104A1278D2B21A70184B1B78DBB20133DAB2154B1A7092
:401D0000144B1B78DAB2144B1B78DBB29A4225D2084B02221A70084B00221A7043E000BF67650040E981FF1FEF81FF1F07640040F481FF1F7364004057640040EC81FF1FF4
:401D4000ED81FF1FEE81FF1F80E100E087650040F881FF1FF081FF1FFC81FF1F2C4B1B78DBB203F00203002B0ED02A4B1B78DBB243F00903DAB2274B1A70274B60221A70AA
:401D8000264B01221A600EE0254B254A1278D2B242F02002D2B21A70224B12221A70224B00221A7004E003E00020FFF791FC00BFFB7903F02003002B27D0174B1B78DBB23D
:401DC00003F00803002B01D0012300E00223114A1278D2B21343DAB20E4B1A70104B104A1278D2B222F02002D2B21A700A4B10221A700AE0084B1B78DBB203F01003DBB28C
:401E0000002B02D1044B10221A700837BD4680BDED81FF1FEE81FF1FE981FF1F80E100E087650040736400405764004080B483B000AF064B1B78FB71044B00221A70FB7925
:401E400018460C37BD465DF8047B7047EE81FF1F80B400AF074B00221A70074B1B78DBB223F00103DAB2044B1A70BD465DF8047B704700BFF081FF1FEE81FF1F80B400AF8B
:401E8000074B00221A70074B1B78DBB223F00203DAB2044B1A70BD465DF8047B704700BFEC81FF1FEE81FF1F80B400AFBD465DF8047B704780B582B000AF194B00221A7039
:401EC000184B01221A70FFF7F9FB0346FB71164B154A1278D2B242F01002D2B21A70FB791846FFF7EFFB114B0F221A70104B08221A70104B02221A6001200421FFF73EFCCC
:401F000001200D49FFF712FC0C4B10221A7000F06DFB00F081FB00F057FB0837BD4680BD796500408864004098640040286500403865004080E100E08D1F0000FD81FF1FD5
:401F400080B400AF054B054A1278D2B242F00202D2B21A70BD465DF8047B70477965004080B500AF074B1B78002B04D1FFF7A2FF044B01221A70FFF7E3FF034B02221A60C1
:401F800080BD00BF5781FF1F00E100E080B582B000AFAD4B1B78FB71AC4B1B78DBB203F04003DBB2002B00F0B981FB7903F00103002B00F09181A54B1B78DBB2453B052BDA
:401FC00000F2868101A252F823F000BFE51F000013210000D1220000D1220000E51F000007220000FB7923F02003FB71FB7903F00A03DBB2082B4BD1944B1B78DBB2452B09
:402000003CD1934B1B78DBB2002B12D0914B924A12681278D2B21A70904B06221A70904B00221A708F4B01221A70884B46221A706EE08D4B1B78DBB203F00203002B0ED017
:402040008A4B1B78DBB243F00A03DAB2874B1A707E4B60221A70864B02221A6058E0854B844A1278D2B242F02002D2B21A707B4B52221A707A4B00221A7049E0774B022275
:402080001A70774B00221A70704B4A221A7023E1FB7903F00A03DBB20A2B35D1734B1B78DBB263F05F03DAB2704B1A706E4B1B78DBB203F00203002B17D0644B1B78DBB221
:4020C00003F00803002B01D0092300E00A23674A1278D2B21343DAB2644B1A705B4B60221A70634B02221A6012E0624B614A1278D2B242F02002D2B21A70584B52221A707A
:40210000574B00221A70E7E00020FFF7E1FAE3E0E2E0FB7903F00203002B46D1514B1B78DAB24B4B1B78DBB29A4217D2494B4A4A11684C4A1278D2B20A441278D2B21A7005
:40214000464B06221A70464B00221A70454B1B78DBB20133DAB2434B1A7053E0424B1B78DBB203F00203002B0ED0404B1B78DBB243F00A03DAB23D4B1A70344B60221A7062
:402180003B4B02221A603DE000F05CFA394B394A1278D2B242F02002D2B21A702F4B52221A702F4B00221A7096E02F4B1B78DBB203F00203002B0ED02C4B1B78DBB263F088
:4021C0006503DAB2294B1A70204B60221A70284B02221A6016E0274B264A1278D2B242F02002D2B21A701D4B52221A701C4B00221A701E4B1B78DBB263F06F03DAB21B4B64
:402200001A7069E068E01C4B1A681C4B1B78DBB21344104A1278D2B21A70184B1B78DBB20133DAB2154B1A70144B1B78DAB2144B1B78DBB29A4225D2084B02221A70084B79
:4022400000221A7043E000BF68640040FD81FF1F0882FF1F096500400C82FF1F79650040596500400582FF1F0482FF1F0782FF1F80E100E0886400400082FF1F1082FF1F5D
:402280000682FF1F2C4B1B78DBB203F00203002B0ED02A4B1B78DBB243F00903DAB2274B1A70274B60221A70264B02221A600EE0254B254A1278D2B242F02002D2B21A70BA
:4022C000224B12221A70224B00221A7004E003E00020FFF7FDF900BFFB7903F02003002B27D0174B1B78DBB203F00803002B01D0012300E00223114A1278D2B21343DAB26C
:402300000E4B1A70104B104A1278D2B222F02002D2B21A700A4B10221A700AE0084B1B78DBB203F01003DBB2002B02D1044B10221A700837BD4680BD0482FF1F0782FF1FE1
:40234000FD81FF1F80E100E088640040796500405965004080B485B000AF02460B46FA71BB710223FB73254B1B78DBB2102B3ED1234B1B78DBB203F01003002B35D1214B52
:4023800002221A60FB795B00FB71BB79002B07D0FB7943F00103FB71184B49221A7002E0164B45221A70184BFA791A70174B82221A70174B00221A7000BF114B1B78DBB232
:4023C00003F00103002BF8D00D4B1B78DBB203F00A03DBB20A2B05D1084B10221A700323FB7304E00023FB7301E00123FB73FB7B18461437BD465DF8047B7047FD81FF1F0F
:402400006864004080E100E009650040796500405965004080B483B000AF0223FB71144B1B78DBB203F00403002B1AD0114B52221A70114B00221A7000BF0D4B1B78DBB2B7
:4024400003F00103002BF8D10C4B10221A7000BF074B1B78DBB203F02103002BF8D00023FB71FB7918460C37BD465DF8047B7047686400407965004059650040FD81FF1F2D
:4024800080B485B000AF0346FB710223FB731E4B1B78DBB203F00403002B2DD01B4BFA791A701B4B06221A701A4B00221A7000BF154B1B78DBB203F00103002BF8D1164BFA
:4024C00046221A7000BF104B1B78DBB203F00103002BF8D00C4B1B78DBB203F00203002B05D10D4B60221A700023FB7304E00A4B60221A700323FB73FB7B18461437BD4666
:402500005DF8047B704700BF68640040096500407965004059650040FD81FF1F80B485B000AF0346FB710023FB73224B1B78DBB203F00403002B35D01F4B1B78DBB2492BCC
:4025400010D11D4B4A221A701C4B02221A701C4B00221A7000BF174B1B78DBB203F00103002BF8D100BF134B1B78DBB203F00103002BF8D0134B1B78FB73FB79002B0ED0C5
:402580000E4B02221A700E4B00221A7000BF094B1B78DBB203F00103002BF8D102E0064B60221A70FB7B18461437BD465DF8047B704700BF68640040FD81FF1F7965004080
:4025C000596500400965004080B483B000AF064B1B78FB71044B00221A70FB7918460C37BD465DF8047B70470782FF1F80B400AF074B00221A70074B1B78DBB223F001031A
:40260000DAB2044B1A70BD465DF8047B704700BF1082FF1F0782FF1F80B400AF074B00221A70074B1B78DBB223F00203DAB2044B1A70BD465DF8047B704700BF0582FF1FCF
:402640000782FF1F80B400AFBD465DF8047B704780B485B000AF0346FB710B4B1B78DBB223F04003FB73084BFA799201D2B202F04002D1B2FA7B0A43D2B21A701437BD4689
:402680005DF8047B704700BF5051004080B500AF054B1B78002B04D100F008F8024B01221A7000F033F880BD5881FF1F80B500AF02200F49FFF73AF802200121FFF75EF8D9
:4026C0000C4B72221A700C4B20221A7003200B49FFF72CF803200721FFF750F8084B07221A70084B48221A70074B02221A7080BD412800008C640040806400400D290000AB
:4027000020640040306400408164004080B582B000AFFEF7D3FF0346FB71134B124A1278D2B242F02002D2B21A70104B0F4A1278D2B242F01002D2B21A700D4B04221A6014
:402740000C4B0C4A1278D2B242F01002D2B21A70074B08221A6000F06BF9FB791846FEF7B1FF0837BD4680BD9C6400409064004000E100E09164004080B400AF034B04224B
:402780001A60BD465DF8047B704700BF00E100E080B400AF034B04221A60BD465DF8047B704700BF80E100E080B582B000AFFFF7EFFF1D4B1B78BB711C4B1B787B711C4BC4
:4027C0001B78DBB2002B03D1BA797B799A4221D0BB79184AD35CFB71BB790133BB71BB795BB2002B01DA0023BB710F4BBA791A700F4B1B78DBB2002B0BD00D4B00221A70D0
:402800000D4B0D4A1278D2B242F02002D2B21A7003E002E0094B1B78FB71FFF7ADFFFB7918460837BD4680BD5B81FF1F5C81FF1F5D81FF1F9482FF1F806400404C64004035
:4028400080B483B000AF0023BB71274B1B78FB713FE0264B1B78DBB2254A1278D1B2254AD1540123BB71BB79002B2FD0224B1B78DBB2002B02D0214B01221A701B4B1B7878
:40288000DBB20133DAB2194B1A70184B1B78DBB2DBB25BB2002B02DA144B00221A70134B1B78DAB2164B1B78DBB29A420ED1124B01221A70134B134A1278D2B222F02002EE
:4028C000D2B21A70104B04221A6007E0064B1B78FB71FB7903F02003002BBAD10C37BD465DF8047B704700BF606400405C81FF1F4C6400409482FF1F5D81FF1F5E81FF1FAC
:402900005B81FF1F8064004080E200E080B400AF18E0154B1B78DBB2DBB25BB2002B02DA114B00221A70114B0F4A1278D2B210498A5CD2B21A700C4B1B78DBB20133DAB2EC
:40294000094B1A70084B1B78DAB20A4B1B789A4206D0094B1B78DBB203F00403002BD8D0BD465DF8047B70475981FF1F416400401482FF1F5A81FF1F6164004080B582B0A8
:4029800000AF786000F03CF8786800F009F8002000F018F800F028F80837BD4680BD00BF80B485B000AF7860054B1B68FB60FB6850337A681A601437BD465DF8047B7047F4
:4029C00008ED00E080B483B000AF0346FB71054BFA795201D2B21A700C37BD465DF8047B704700BF04E400E080B400AF034B10221A60BD465DF8047B704700BF00E100E0D0
:402A000080B400AF034B10221A60BD465DF8047B704700BF80E100E080B400AF034B10221A60BD465DF8047B704700BF80E200E080B400AF094B094A1278D2B242F00802EB
:402A4000D2B21A70064B064A1278D2B242F00802D2B21A70BD465DF8047B7047A2430040B243004080B500AF064B00221A70064B00221A70042000F057F8002000F034F8EA
:402A800080BD00BF2C5800402D58004080B400AF094B094A1278D2B242F00802D2B21A70064B064A1278D2B242F00802D2B21A70BD465DF8047B7047A8430040B8430040C2
:402AC00080B500AF074B1B78002B04D1FFF7CAFF044B01221A70FFF7D9FF642000F044F880BD00BF6081FF1F80B483B000AF0346FB710C4B0B4A1278D2B222F00202D2B2BA
:402B00001A70084B074A1278D1B2FA7902F00202D2B20A43D2B21A700C37BD465DF8047B704700BF2C58004080B582B000AF0346FB710C4B0B4A1278D2B222F00C02D2B295
:402B40001A70084B074A1278D1B2FA7902F00C02D2B20A43D2B21A7000F016F80837BD4680BD00BF2C58004080B483B000AF0346FB71044BFA791A700C37BD465DF8047B97
:402B8000704700BF835B004080B483B000AF0B4B1B78DBB203F00C039B08DBB20633FB71074AFB7903F1924303F59C731B78DBB213700C37BD465DF8047B70472C58004051
:402BC0000B46004080B500AF064B00221A70064B00221A70042000F057F8002000F034F880BD00BF285800402958004080B400AF094B094A1278D2B242F00402D2B21A706C
:402C0000064B064A1278D2B242F00402D2B21A70BD465DF8047B7047A8430040B843004080B500AF074B1B78002B04D1FFF7CAFF044B01221A70FFF7D9FF642000F044F8A9
:402C400080BD00BF6181FF1F80B483B000AF0346FB710C4B0B4A1278D2B222F00202D2B21A70084B074A1278D1B2FA7902F00202D2B20A43D2B21A700C37BD465DF8047B9C
:402C8000704700BF2858004080B582B000AF0346FB710C4B0B4A1278D2B222F00C02D2B21A70084B074A1278D1B2FA7902F00C02D2B20A43D2B21A7000F016F80837BD46E8
:402CC00080BD00BF2858004080B483B000AF0346FB71044BFA791A700C37BD465DF8047B704700BF825B004080B483B000AF0B4B1B78DBB203F00C039B08DBB20633FB71F1
:402D0000074AFB7903F1924303F594731B78DBB213700C37BD465DF8047B7047285800400A46004080B500AF064B00221A70064B00221A70042000F057F8002000F034F8C5
:402D400080BD00BF205800402158004080B400AF094B094A1278D2B242F00102D2B21A70064B064A1278D2B242F00102D2B21A70BD465DF8047B7047A8430040B843004025
:402D800080B500AF074B1B78002B04D1FFF7CAFF044B01221A70FFF7D9FF642000F044F880BD00BF6281FF1F80B483B000AF0346FB710C4B0B4A1278D2B222F00202D2B2F5
:402DC0001A70084B074A1278D1B2FA7902F00202D2B20A43D2B21A700C37BD465DF8047B704700BF2058004080B582B000AF0346FB710C4B0B4A1278D2B222F00C02D2B2DF
:402E00001A70084B074A1278D1B2FA7902F00C02D2B20A43D2B21A7000F016F80837BD4680BD00BF2058004080B483B000AF0346FB71044BFA791A700C37BD465DF8047BE0
:402E4000704700BF805B004080B483B000AF0B4B1B78DBB203F00C039B08DBB20633FB71074AFB7903F1924303F590731B78DBB213700C37BD465DF8047B704720580040A9
:402E80000846004080B500AF064B00221A70064B00221A70042000F057F8002000F034F880BD00BF245800402558004080B400AF094B094A1278D2B242F00202D2B21A70B6
:402EC000064B064A1278D2B242F00202D2B21A70BD465DF8047B7047A8430040B843004080B500AF074B1B78002B04D1FFF7CAFF044B01221A70FFF7D9FF642000F044F8E9
:402F000080BD00BF6381FF1F80B483B000AF0346FB710C4B0B4A1278D2B222F00202D2B21A70084B074A1278D1B2FA7902F00202D2B20A43D2B21A700C37BD465DF8047BD7
:402F4000704700BF2458004080B582B000AF0346FB710C4B0B4A1278D2B222F00C02D2B21A70084B074A1278D1B2FA7902F00C02D2B20A43D2B21A7000F016F80837BD4629
:402F800080BD00BF2458004080B483B000AF0346FB71044BFA791A700C37BD465DF8047B704700BF815B004080B483B000AF0B4B1B78DBB203F00C039B08DBB20633FB7133
:402FC000074AFB7903F1924303F598731B78DBB213700C37BD465DF8047B7047245800400946004080B485B000AF0346FB710B4B1B78DBB223F01003FB73084BFA791201D1
:40300000D2B202F01002D1B2FA7B0A43D2B21A701437BD465DF8047B704700BF3051004080B485B000AF0346FB710B4B1B78DBB223F02003FB73084BFA795201D2B202F0E6
:403040002002D1B2FA7B0A43D2B21A701437BD465DF8047B704700BF3051004080B485B000AF0346FB710B4B1B78DBB223F04003FB73084BFA799201D2B202F04002D1B2E7
:40308000FA7B0A43D2B21A701437BD465DF8047B704700BF3051004080B485B000AF0346FB71094B1B78DBB203F07F03FB73064BFA79D201D1B2FA7B0A43D2B21A7014378E
:4030C000BD465DF8047B70473051004080B485B000AF0346FB710B4B1B78DBB223F01003FB73084BFA791201D2B202F01002D1B2FA7B0A43D2B21A701437BD465DF8047BD4
:40310000704700BF0051004080B485B000AF0346FB710B4B1B78DBB223F02003FB73084BFA795201D2B202F02002D1B2FA7B0A43D2B21A701437BD465DF8047B704700BF05
:403140000051004080B485B000AF0346FB710B4B1B78DBB223F04003FB73084BFA799201D2B202F04002D1B2FA7B0A43D2B21A701437BD465DF8047B704700BF005100402A
:4031800080B485B000AF0346FB71094B1B78DBB203F07F03FB73064BFA79D201D1B2FA7B0A43D2B21A701437BD465DF8047B70470051004080B500AF054B1B78002B04D1D0
:4031C00000F008F8024B01221A7000F023F880BD6481FF1F80B400AF094B72221A70094B20221A70084B06221A70084B47221A70074B00221A70BD465DF8047B704700BF8F
:403200008E6400408964004026640040366400408564004080B582B000AFFEF74FFA0346FB71104B0F4A1278D2B242F02002D2B21A700D4B0C4A1278D2B242F01002D2B2B1
:403240001A700A4B094A1278D2B242F01002D2B21A7000F077F8FB791846FEF733FA0837BD4680BD9E640040996400409564004080B483B000AF054B1B78FB71FB791846FB
:403280000C37BD465DF8047B704700BF4D64004080B483B000AF0346FB7100BF074B1B78DBB203F00403002BF8D1054BFA791A700C37BD465DF8047B704700BF65640040BD
:4032C0004264004080B584B000AF78600023FB810B4B1B78002B10D009E0FB897A6813441B781846FFF7D4FFFB890133FB81FB897A6813441B78002BEFD11037BD4680BD0F
:403300006481FF1F80B584B000AF78600B46FB700023FB730A4B1B78002B0ED009E0FB7B7A6813441B781846FFF7B2FFFB7B0133FB73FA7BFB789A42F1D31037BD4680BD05
:403340006481FF1F80B400AF094B094A1278D2B242F01002D2B21A70064B064A1278D2B242F01002D2B21A70BD465DF8047B7047A2430040B243004080B582B000AF786089
:4033800000F03CF8786800F009F8062000F018F800F028F80837BD4680BD00BF80B485B000AF7860054B1B68FB60FB6858337A681A601437BD465DF8047B704708ED00E08E
:4033C00080B483B000AF0346FB71054BFA795201D2B21A700C37BD465DF8047B704700BF06E400E080B400AF034B40221A60BD465DF8047B704700BF00E100E080B400AF86
:40340000034B40221A60BD465DF8047B704700BF80E100E080B582B000AF786000F03CF8786800F009F8072000F018F800F028F80837BD4680BD00BF80B485B000AF78608C
:40344000054B1B68FB60FB6854337A681A601437BD465DF8047B704708ED00E080B483B000AF0346FB71054BFA795201D2B21A700C37BD465DF8047B704700BF05E400E0E2
:4034800080B400AF034B20221A60BD465DF8047B704700BF00E100E080B400AF034B20221A60BD465DF8047B704700BF80E100E081F0004102E000BF83F0004330B54FEA6F
:4034C00041044FEA430594EA050F08BF90EA020F1FBF54EA000C55EA020C7FEA645C7FEA655C00F0E2804FEA5454D4EB5555B8BF6D420CDD2C4480EA020281EA030382EAF4
:40350000000083EA010180EA020281EA0303362D88BF30BD11F0004F4FEA01314FF4801C4CEA113102D0404261EB410113F0004F4FEA03334CEA133302D0524263EB43037B
:4035400094EA050F00F0A780A4F10104D5F1200E0DDB02FA0EFC22FA05F2801841F1000103FA0EF2801843FA05F359410EE0A5F120050EF1200E012A03FA0EFC28BF4CF0B9
:40358000020C43FA05F3C01851EBE37101F0004507D54FF0000EDCF1000C7EEB00006EEB0101B1F5801F1BD3B1F5001F0CD349085FEA30004FEA3C0C04F101044FEA445279
:4035C00012F5800F80F09A80BCF1004F08BF5FEA500C50F1000041EB045141EA050130BD5FEA4C0C404141EB010111F4801FA4F10104E9D191F0000F04BF01460020B1FAB6
:4036000081F308BF2033A3F10B03B3F120020CDA0C3208DD02F1140CC2F10C0201FA0CF021FA02F10CE002F11402D8BFC2F1200C01FA02F120FA0CFCDCBF41EA0C01904094
:40364000E41AA2BF01EB0451294330BD6FEA04041F3C1CDA0C340EDC04F11404C4F1200220FA04F001FA02F340EA030021FA04F345EA030130BDC4F10C04C4F1200220FA7E
:4036800002F001FA04F340EA0300294630BD21FA04F0294630BD94F0000F83F4801306BF81F480110134013D4EE77FEA645C18BF7FEA655C29D094EA050F08BF90EA020F1B
:4036C00005D054EA000C04BF1946104630BD91EA030F1EBF0021002030BD5FEA545C05D14000494128BF41F0004130BD14F580043CBF01F5801130BD01F0004545F0FE4129
:4037000041F470014FF0000030BD7FEA645C1ABF194610467FEA655C1CBF0B46024650EA013406BF52EA033591EA030F41F4002130BD00BF90F0000F04BF0021704730B51C
:403740004FF4806404F132044FF000054FF0000150E700BF90F0000F04BF0021704730B54FF4806404F1320410F0004548BF40424FF000013EE700BF42004FEAE2014FEA93
:4037800031014FEA02701FBF12F07F4393F07F4F81F06051704792F0000F14BF93F07F4F704730B54FF4607401F0004521F0004120E700BF50EA010208BF704730B54FF0CB
:4037C00000050AE050EA010208BF704730B511F0004502D5404261EB41014FF4806404F132045FEA915C3FF4DCAE4FF003025FEADC0C18BF03325FEADC0C18BF033202EB1D
:40380000DC02C2F1200300FA03FC20FA02F001FA03FE40EA0E0021FA02F11444C1E600BF70B54FF0FF0C4CF4E06C1CEA11541DBF1CEA135594EA0C0F95EA0C0F00F0DEF826
:403840002C4481EA030621EA4C5123EA4C5350EA013518BF52EA033541F4801143F4801338D0A0FB02CE4FF00005E1FB02E506F00042E0FB03E54FF00006E1FB03569CF04A
:40388000000F18BF4EF0010EA4F1FF04B6F5007F64F5407404D25FEA4E0E6D4146EB060642EAC62141EA55514FEAC52040EA5E504FEACE2EB4F1FD0C88BFBCF5E06F1ED8A6
:4038C000BEF1004F08BF5FEA500E50F1000041EB045170BD06F0004646EA010140EA020081EA0301B4EB5C04C2BFD4EB0C0541EA045170BD41F480114FF0000E013C00F324
:40390000AB8014F1360FDEBF002001F0004170BDC4F10004203C35DA0C341BDC04F11404C4F1200500FA05F320FA04F001FA05F240EA020001F0004221F0004110EBD370D3
:4039400021FA04F642EB06015EEA430E08BF20EAD37070BDC4F10C04C4F1200500FA04F320FA05F001FA04F240EA020001F0004110EBD37041F100015EEA430E08BF20EA5B
:40398000D37070BDC4F1200500FA05F24EEA020E20FA04F301FA05F243EA020321FA04F001F0004121FA04F220EA020000EBD3705EEA430E08BF20EAD37070BD94F0000F56
:4039C0000FD101F00046400041EB010111F4801F08BF013CF7D041EA060195F0000F18BF704703F00046520043EB030313F4801F08BF013DF7D043EA0603704794EA0C0FC8
:403A00000CEA135518BF95EA0C0F0CD050EA410618BF52EA4306D1D181EA030101F000414FF0000070BD50EA410606BF1046194652EA430619D094EA0C0F02D150EA013609
:403A400013D195EA0C0F05D152EA03361CBF104619460AD181EA030101F0004141F0FE4141F470014FF0000070BD41F0FE4141F4780170BD70B54FF0FF0C4CF4E06C1CEAA3
:403A800011541DBF1CEA135594EA0C0F95EA0C0F00F0A7F8A4EB050481EA030E52EA03354FEA013100F088804FEA03334FF0805545EA131343EA12634FEA022245EA11157E
:403AC00045EA10654FEA00260EF000419D4208BF964244F1FD0404F5407402D25B084FEA3202B61A65EB03055B084FEA32024FF480104FF4002CB6EB020E75EB030E22BF42
:403B0000B61A754640EA0C005B084FEA3202B6EB020E75EB030E22BFB61A754640EA5C005B084FEA3202B6EB020E75EB030E22BFB61A754640EA9C005B084FEA3202B6EB4B
:403B4000020E75EB030E22BFB61A754640EADC0055EA060E18D04FEA051545EA16754FEA06164FEAC30343EA52734FEAC2025FEA1C1CC0D111F4801F0BD141EA00014FF0CA
:403B800000004FF0004CB6E711F4801F04BF01430020B4F1FD0C88BFBCF5E06F3FF6AFAEB5EB030C04BFB6EB020C5FEA500C50F1000041EB045170BD0EF0004E4EEA113110
:403BC00014EB5C04C2BFD4EB0C0541EA045170BD41F480114FF0000E013C90E645EA060E8DE60CEA135594EA0C0F08BF95EA0C0F3FF43BAF94EA0C0F0AD150EA01347FF421
:403C000034AF95EA0C0F7FF425AF104619462CE795EA0C0F06D152EA03353FF4FDAE1046194622E750EA410618BF52EA43067FF4C5AE50EA41047FF40DAF52EA43057FF40F
:403C4000EBAE12E74FEA4102B2F1E04324BFB3F5001CDCF1FE5C0DD901F0004C4FEAC0024CEA5070B2F1004F40EB830008BF20F00100704711F0804F21D113F13872BCBF74
:403C800001F00040704741F480114FEA5252C2F11802C2F1200C10FA0CF320FA02F018BF40F001004FEAC1234FEAD32303FA0CFC40EA0C0023FA02F34FEA4303CCE77FEA7C
:403CC000625307D150EA01331EBF4FF0FE4040F44000704701F0004040F0FE4040F40000704700BF80F0004002E000BF81F0004142001FBF5FEA410392EA030F7FEA226CC6
:403D00007FEA236C6AD04FEA1262D2EB1363C1BFD218414048404140B8BF5B42192B88BF704710F0004F40F4000020F07F4018BF404211F0004F41F4000121F07F4118BF4E
:403D4000494292EA030F3FD0A2F1010241FA03FC10EB0C00C3F1200301FA03F100F0004302D5494260EB4000B0F5000F13D3B0F1807F06D340084FEA310102F10102FE2A7A
:403D800051D2B1F1004F40EBC25008BF20F0010040EA03007047490040EB000010F4000FA2F10102EDD1B0FA80FCACF1080CB2EB0C0200FA0CF0AABF00EBC250524218434E
:403DC000BCBFD0401843704792F0000F81F4000106BF80F400000132013BB5E74FEA41037FEA226C18BF7FEA236C21D092EA030F04D092F0000F08BF0846704790EA010F5E
:403E00001CBF0020704712F07F4F04D1400028BF40F00040704712F100723CBF00F50000704700F0004343F0FE4040F4000070477FEA226216BF08467FEA236301464202A8
:403E400006BF5FEA412390EA010F40F4800070474FF0000304E000BF10F0004348BF40425FEA000C08BF704743F0964301464FF000001CE050EA010208BF70474FF00003CC
:403E80000AE000BF50EA010208BF704711F0004302D5404261EB41015FEA010C02BF84460146002043F0B64308BFA3F18053A3F50003BCFA8CF2083AA3EBC25310DB01FA37
:403EC00002FC634400FA02FCC2F12002BCF1004F20FA02F243EB020008BF20F00100704702F1200201FA02FCC2F1200250EA4C0021FA02F243EB020008BF20EADC7070470B
:403F00004FF0FF0C1CEAD0521EBF1CEAD15392EA0C0F93EA0C0F6FD01A4480EA010C400218BF5FEA41211ED04FF0006343EA501043EA5111A0FB01310CF00040B1F5000F97
:403F40003EBF490041EAD3715B0040EA010062F17F02FD2A1DD8B3F1004F40EBC25008BF20F00100704790F0000F0CF0004C08BF49024CEA502040EA51207F3AC2BFD2F130
:403F8000FF0340EAC250704740F400004FF00003013A5DDC12F1190FDCBF00F000407047C2F10002410021FA02F1C2F1200200FA02FC5FEA310040F1000053EA4C0308BFA6
:403FC00020EADC70704792F0000F00F0004C02BF400010F4000F013AF9D040EA0C0093F0000F01F0004C02BF490011F4000F013BF9D041EA0C018FE70CEAD15392EA0C0F48
:4040000018BF93EA0C0F0AD030F0004C18BF31F0004CD8D180EA010000F00040704790F0000F17BF90F0004F084691F0000F91F0004F14D092EA0C0F01D142020FD193EABC
:404040000C0F03D14B0218BF084608D180EA010000F0004040F0FE4040F40000704740F0FE4040F4400070474FF0FF0C1CEAD0521EBF1CEAD15392EA0C0F93EA0C0F69D098
:40408000A2EB030280EA010C49024FEA402037D04FF0805343EA111143EA10130CF000408B4238BF5B0042F17D024FF4000C8B4224BF5B1A40EA0C00B3EB510F24BFA3EB35
:4040C000510340EA5C00B3EB910F24BFA3EB910340EA9C00B3EBD10F24BFA3EBD10340EADC001B0118BF5FEA1C1CE0D1FD2A3FF650AF8B4240EBC25008BF20F001007047FB
:404100000CF0004C4CEA50207F32C2BFD2F1FF0340EAC250704740F400004FF00003013A37E792F0000F00F0004C02BF400010F4000F013AF9D040EA0C0093F0000F01F03A
:40414000004C02BF490011F4000F013BF9D041EA0C0195E70CEAD15392EA0C0F08D142027FF47DAF93EA0C0F7FF470AF084676E793EA0C0F04D14B023FF44CAF08466EE74F
:4041800030F0004C18BF31F0004CCAD130F000427FF45CAF31F000437FF43CAF5FE700BF4FF0FF3C06E000BF4FF0010C02E000BF4FF0010C4DF804CD4FEA40024FEA4103A7
:4041C0007FEA226C18BF7FEA236C11D001B052EA530C18BF90EA010F58BFB2EB030088BFC81738BF6FEAE17018BF40F0010070477FEA226C02D15FEA402C05D17FEA236CE1
:40420000E4D15FEA412CE1D05DF8040B704700BF844608466146FFE70FB5FFF7C9FF002848BF10F1000F0FBD4DF808EDFFF7F4FF0CBF012000205DF808FB00BF4DF808EDD6
:40424000FFF7EAFF34BF012000205DF808FB00BF4DF808EDFFF7E0FF94BF012000205DF808FB00BF4DF808EDFFF7D2FF94BF012000205DF808FB00BF4DF808EDFFF7C8FFB7
:4042800034BF012000205DF808FB00BF4FEA4002B2F1FE4F0FD34FF09E03B3EB12620DD94FEA002343F0004310F0004F23FA02F018BF404270474FF00000704712F1610FE5
:4042C00001D1420205D110F0004008BF6FF0004070474FF00000704770B50E4B0E4D0024ED1AAD101E46AC4204D056F8242090470134F8E700F054F8084D094B0024ED1A0B
:40430000AD101E46AC4204D056F8242090470134F8E770BDAC430000AC430000B4430000AC43000010B50023934203D0CC5CC4540133F9E710BD02440346934202D003F84A
:40434000011BFAE7704700000000000073000000004F00400C00105100401000F05100401000000001408006000701400005800C0140800300140140000800400140000AED
:40438000004C0140000200500140200080060140440F00488000000C0140C40F00488000F8B500BFF8BC08BC9E4670474D00000041110000F8B500BFF8BC08BC9E46704756
:4043C00029000000D84300000881FF1F30000000E00100000000000000000000D828D82814406400F40105FF0000803F0000803F0000803F00366E01C05D000018000000F9
:404400000000E02E0000000000000000000000000000000000000000000000000000000000000000000000000000000000000000000000000000000000000000000000006E
:40444000000000000000000000000000000000000000000000000000000000000000000000000000000000000000000000000000000000000000000000000000000000003C
:4044800000000000000000000000000000000000000000000000000000000000000000000000000000000000000000000000000000000000000000000000000000000000FC
:4044C00000000000000000000000000000000000000000000000000000000000000000000000000000000000000000000000000000000000000000000000000000000000BC
:40450000000000000000000000000000000000000000000000000000000000000000000000000000000000000000000000000000000000000000000000000000000000007B
:020000040003F7
:0200000480007A
:40000000024F00400852004007640040056500406400014040010140590201404F030140550401405C05014034060140520701405208014050090140540A01404C0B01402D
:400040002C0C0140590D01404F0E0140350F01400415014065160140501701405F1801404B190140551A0140481B01400C4001400841014007420140064301400D44014011
:400080001145014004460140034701400548014004490140084C01400B4D0140085001400251014001200A36040F1401282029302C3031813433644027048038810F850FD2
:4000C00089388C728E72270F280F290437083808040E06300C400E130F1010801256160118461AA91B081CFF242A2654283329022A0C2B052D022F0431063301351036FFEB
:400100003708400345504610480A49FF4A074BFF4C404D204EF04F05500854185604580459045A045B045C105D335F01604061A862406320800D8108840D88208B04910164
:40014000930494019507961A9807A004A20AA907AC14AE01AF06B020B21FB303B420B508B704B908BE10BF54C062C103C5E0C6C0C7B0C82AC9FFCAFFCBFFCEF0CF44D00C7D
:40018000D401D604D804D904DA04DB04DC03DD33DF01E6C0EA40EB0203220420050206100720082009400AA00C080E08100411041560171118021D201F0D215122042508AE
:4001C0002640270828082A802C082D402F0930103604370539803D013F2041084520470448404C084D0150105612571058015D015E805F28626264808202850486408C2115
:40020000C075C26FC496CA3CCCC4CEA8D062D220D6F1D88DE208E60200A004010618088209010A6018621A881C481E8020E0221224042C80310132F83401360638803E1016
:400240004063410245E046CB480E49FF4AFF4BFF4EF04F44500C580459045A045C145D045F0166C06A406B0280FF814084A58520864A8702884D89258A928B0A8CCC8D08F7
:400280008E138F0592B5938094A995809654981A99019A609B229C029D8FA121A204A302A404A526A921AA02AB04AE01AF10B180B360B51FB6FFB908BE40BF04D2F6D804A0
:4002C000D904DB04DC10DD10DF010044020403400524064008290A020B800D200E021088134814101501160119401D041E021F1020042110220123102501274028A82950FA
:400300002B103221334839223A043B843D013E1140C0441045204D225410564068206A1070D8722073488101871088028B0491829208930A96A09A029B109C049E809F01BF
:40034000A040A540A604A722AA80AC80B011B102B408B620C07FC2CFC4BFCA0FCC0FCE2FD060D220E403E801001F03FF040305400620071D084F09040BE00E010F0210407D
:40038000120B13081442150116091848190D1A021C031DE220402192221423602401253D27C22801295D2BA22C902D012E0B304032E033FF341F380A3E053F045804590457
:4003C0005C015F018110832084608680872888618A968B208C5C8D028E8391069703986199389A8E9E1CA538A6A3AB05AE08AF07B120B2F0B307B41AB518B60FB920BAA850
:40040000BB08BF11D401D804D904DB04DC34DD40DF010110022203400560062008080A020B840D200E0210091280134814181520160119101B091D601E211F102208244878
:400440002604288029902B102F15308832213340352036143701388039223B043CA03E313F084D104F205C405D0B5E1078107B04840485408B408C408E40908091A0920A65
:40048000931A96A19704980299829A029B589C959D309E819F01A058A203A320A560A624A71AA820AA02AE01AF20B110B220B490B580C0EFC2CFC4AFCA7FCCEFCEFFD6F084
:4004C000E20AE601E801EC02EE08000102060C120D040E010F8011E4131115611613178E1B181C011E0421A02613280129812A322B622D482E1B2F873007320833F83410AD
:40050000362037073A023B803E104006474049FF4A074BFF4C404D204EF04F055008580459045A045C315D045F01604061A86240632001200322054108280A800C800E201C
:40054000100411891401171419281B021D611E20201022112721288229102B902E022F0530813215330436043721388039223A803B043C8041404308480149044A204C0421
:400580004F0851085601842087208B02900891A19288931A950297C4980699109A029B109C809D089E819F01A0C0A140A20CA339A508A620A706AA10AB10B340B518B68075
:4005C000C097C2AEC4EFCABFCCEFCE1FD00AD228E002E608EE450159024004B2054106080710080109020C040D1C0F80103F1304149C15411622171818A219591A181C2271
:400600001D101FE02006230124AA251C26102720280129512A1E2B082C982E06310C3260341F3503368037F038A039203B803E403F1054205604580459045B045F018101EA
:400640008364871089608B028D2F8F80952097C099059B6A9D019F02A140A320A561A702A906AB60AD08AF65B3E0B51FBB08D418D604D904DB04DD40DF01048205180C405F
:400680000E200F441501162217101D501E201F08201821082210230424402641270A2802290A2B082C802E2430803108321034083508365139083A223B403C083E023F52D6
:4006C00059015C505D045F02608463016540660167087D017F408110840886108A2090069311968097E0980899019B109C869D049E29A202A414A690A711AA91B120B50292
:40070000B603C0F0C2F0C4F0CAEFCCFECEFFD6F1D8BDE484E861EC10EE400082040C06F3070809010AE30B020C0F0EF00F0410FF14C31501171218F31A0C1C412008230497
:400740002404280C2B0830C0311032103303340F3508362C370438083AA03F50580459045C045F01803F813A830484018522861E870589018A408C188DFF8E06900491C0A8
:40078000930794019501983299059A089B789C1C9D039E22A02AA103A210A422A501A806A908AB07AC22AD10AE18AF07B21FB380B660B77FB808B908BF40D804D904DC0135
:4007C000DF010002018002280428060207400AA60D220E121088130414011604170519811A041B641E122004220223112402271029022B042E282F4130043402350436902F
:4008000039803B283CA83E013F4280808440860189208C0A8F05902891809222930C9680980999029A049B419D209E02A089A228A404A611A770AB20AE10AF10B003B1017F
:40084000B201B404B504C0FFC2FFC4FECAF5CCF2CEFEE210E490E810ECE085E789E78D8099019B0E9D449F31AD22AF51B118B380B507B760BA02BF01C026C104C201C40571
:40088000C5C0C70EC812C9FFCAFFCBFFCC62CDA0CEF0CF41D00CD804D904DA04DC43DD04DF01E640E702E910EA30EB10ED10EE10EF12050109020A800C020D080E051704E8
:4008C00018401C101DA91E081F012002229A242828022C012D202E022F10329035043601376039543C843D013F2041424320448045A0470849124A0A4D8053045610570208
:4009000059805A405CC05F02660467206C026E046F04742075407710834088408B0191D49241930494509680970298089B0A9C829D509E109F10A088A220A424A604A76228
:40094000AB02B201B320B520C010C2F0C420CAF8CCFCCEFED0FDD21CD680E220E422E805EAF0EE20011005080E010F0412011518160219BC1B021DBF219C232125A726026A
:4009800027182B232D042F40314033803402351F360137383B203E503F0456025712580459045B045C405D405F01801C814182E1831085E3870C880889C38C108DEF912F15
:4009C00093C0949C966297C3990C9AC39C049D08A0FFA4E7A504A618A818A92CABC3AD82AE04B098B110B21FB3C0B420B50FB658B720B820BA88BB20BF40D804D904DC33E0
:400A0000DF0103020401054006080A400B200D080E0912101480175819A01C011D081E421F142160222423402404276A280229102B602C202E082F0530083120324035402E
:400A4000360537103A023B443C543E015A086954708872027304840485808C08C0D1C2ECC4F4CA7FCCFECEFBD602E0408104A504E204EA40053506010740083309750A0CE7
:400A80000C460EA9108011011256130E140E1575163019101BE01D111F8820FF216423112440252426132751282A29012A542B0233F036FF370F3B88580459045C115F01D3
:400AC000829884908601870388C089188E408F019004920894909602970499189A089D089F02A0FFA520A694A741A920AA20AB41AC0FB03FB108B310B507B6C0B770B80214
:400B0000B98ABB20BF44C036C502C750C821C9FFCAFFCBFFCC42CDA0CE70D008D110D420D604D804D904DA04DB04DC11DD11DF01E148E240E348E480E548E680E7480188E6
:400B40000388055408180B400C100D100F60108211101304144015201708188019801D401FC020022109234C2721280829182B102C102F4830E0320834483721381039108E
:400B80003B443F2441084404472048204B105002580459805A205B016120620163028E0190109120922093109480950297C49914A080A120A208A319A401A504A780A8089E
:400BC000AA20B120C0EFC23EC47FCAE6CCFECE6ED002D204D60FD80DE640EC01EE04004001040328060807800A140BF00D010E80104011F0122013021410160117801904FA
:400C00001A181B181C101D011E02200F24FF27F028802B402C042DF02E083040310D3301343F3502368037F03822390A3F45402345504602480649FF4AFF4BFF4C424DA078
:400C40004E7050085110580459045A045F0161486240634864806548668067488902A301A402AA01B102B201B301B402BE10C024C406C5D0C60BC806C9FFCA7FCBFFCC4281
:400C8000CDA0CE70D00CD2F6D804D904DA04DB04DF01E109E240E309E430E5090404052006420EA80F0212181412152118201A081F52220823402512264027102802290252
:400CC0002B022D202E202F1234083656370139103C0C3DA43F1241124204471848804A884D01504055405640681069107002710C7218730688148A048B408D029480950875
:400D0000968497E898089A309B089C469D069E08A004A212A490A680A701AA10AB10B104C0F0C2F0C4F6CA71CCF0CEF4D065D204E820000303B504420504060909CC0A017D
:400D40000B130C480DFF0E021090120B13011440160B17021801191A1B601C401E141F04200321022220244F25A5274A2801294D2B922C1F2DA92F54301F33FF34E03828E3
:400D80003B803E143F04580459045C405F01815D821383A28501880189018A1A8C128DE28E019001920493029592963397609801993D9A069BC29D0DA213A308A504A7E074
:400DC000A940AB1DAFFFB020B210B3FFB407B608BA20BE04BF04D804D904DF010020010502010420054108090A010B040E080F50111012A0134017011A241B011D411E0890
:400E00001F0421042240271028102A222B012C112D052E222F43304231083220340836B0370239203B463D103E113F46400841104440470283108B108E2190209104921073
:400E400093F4950896A4970898089A209B039C409E02A012A108A290A302A701B610C0DFC27FC41FCAFFCCFFCEFFEA4030083120340235803A80530880088280CCF0CE1066
:400E8000D420E280324036809D80A520A708AC02CC30EE40824096809D80A520A680A708E6801B08A520A680A708B580C6100104050208080C0450085B2061406201C00CBF
:400EC000C20CD405D602D802000853108710890491049D409F20A808AA01B00CB104B502C008D404E204EA07EE019D409F20B004EA0483049D40AB2064208D20A520A68067
:400F0000D8802280A680B420C810880289408E109D40A304E001E202E6010A200C026308641088109620A304A402C20CD803E004001B081B0A1B0C130E1A10131A021C116F
:400F400000FF013F0078000338030120080070431800237800000178107828803001080600010004800300400000040B380001130802420107808078780700000000222055
:400F80000000040435000000010D000B11FF7FFF42A070000C0000000000000004040400100100010009400930090000000000000000000000000000000000000000000046
:400FC000000000001401490000010000000300000008000780050078011026079F0100000AFF5100003A00049F03000000C00007002200051800077F80806000002000005F
:4010000000004004320405000100E0C028FFFFFF62A0F0410C00000000000213040404041333000100000000000040020010301000101012000000000000000000000000FC
:40104000000000000FF0F00000000000408080000000000002000102020002000000000000F0F00000000F00000101000100000000C0F00030000000030030C7C400C300E5
:401080000000000000000000000000000000000000000000000000000000000000000000000000000000000000000000000000000000000000000000000000000000000030
:4010C00000000000000000000000000000000000000000000000000000000000000000000000000000000000000000000000000000000000000000000000000000000000F0
:4011000000000000000000000000000000000000000000000000000000000000000000000000000000000000000000000000000000000000000000000000000000000000AF
:40114000000000000000000000000000000000000000000000000000000000000000000000000000000000000000000000000000000000000000000000000000000000006F
:0200000490006A
:0400000000004005B7
:0200000490105A
:04000000BC90ACAF55
:0200000490303A
:02000000842951
:0200000490402A
:4000000000000000000000000000000000000000000000000000000000000000000000000000000000000000000000000000000000000000000000000000000000000000C0
:400040000000000000000000000000000000000000000000000000000000000000000000000000000000000000000000000000000000000000000000000000000000000080
:400080000000000000000000000000000000000000000000000000000000000000000000000000000000000000000000000000000000000000000000000000000000000040
:4000C0000000000000000000000000000000000000000000000000000000000000000000000000000000000000000000000000000000000000000000000000000000000000
:0200000490501A
:0C00000000012E12306900012E31B49274
:00000001FF